{
  "contracts/LiquidityPoolManager.sol": {
    "LiquidityPoolManager": {
      "abi": [
        {
          "inputs": [
            {
              "internalType": "address",
              "name": "wavax_",
              "type": "address"
            },
            {
              "internalType": "address",
              "name": "yts_",
              "type": "address"
            },
            {
              "internalType": "address",
              "name": "treasuryVester_",
              "type": "address"
            }
          ],
          "stateMutability": "nonpayable",
          "type": "constructor"
        },
        {
          "anonymous": false,
          "inputs": [
            {
              "indexed": true,
              "internalType": "address",
              "name": "previousOwner",
              "type": "address"
            },
            {
              "indexed": true,
              "internalType": "address",
              "name": "newOwner",
              "type": "address"
            }
          ],
          "name": "OwnershipTransferred",
          "type": "event"
        },
        {
          "inputs": [
            {
              "internalType": "address",
              "name": "pair",
              "type": "address"
            }
          ],
          "name": "addWhitelistedPool",
          "outputs": [],
          "stateMutability": "nonpayable",
          "type": "function"
        },
        {
          "inputs": [],
          "name": "avaxYtsPair",
          "outputs": [
            {
              "internalType": "address",
              "name": "",
              "type": "address"
            }
          ],
          "stateMutability": "view",
          "type": "function"
        },
        {
          "inputs": [],
          "name": "calculateAndDistribute",
          "outputs": [],
          "stateMutability": "nonpayable",
          "type": "function"
        },
        {
          "inputs": [],
          "name": "calculateReturns",
          "outputs": [],
          "stateMutability": "nonpayable",
          "type": "function"
        },
        {
          "inputs": [],
          "name": "distributeTokens",
          "outputs": [],
          "stateMutability": "nonpayable",
          "type": "function"
        },
        {
          "inputs": [
            {
              "internalType": "uint256",
              "name": "pairIndex",
              "type": "uint256"
            }
          ],
          "name": "distributeTokensSinglePool",
          "outputs": [],
          "stateMutability": "nonpayable",
          "type": "function"
        },
        {
          "inputs": [
            {
              "internalType": "uint256",
              "name": "",
              "type": "uint256"
            }
          ],
          "name": "distribution",
          "outputs": [
            {
              "internalType": "uint256",
              "name": "",
              "type": "uint256"
            }
          ],
          "stateMutability": "view",
          "type": "function"
        },
        {
          "inputs": [
            {
              "internalType": "address",
              "name": "pair",
              "type": "address"
            }
          ],
          "name": "getAvaxLiquidity",
          "outputs": [
            {
              "internalType": "uint256",
              "name": "",
              "type": "uint256"
            }
          ],
          "stateMutability": "view",
          "type": "function"
        },
        {
          "inputs": [],
          "name": "getAvaxYtsRatio",
          "outputs": [
            {
              "internalType": "uint256",
              "name": "conversionFactor",
              "type": "uint256"
            }
          ],
          "stateMutability": "view",
          "type": "function"
        },
        {
          "inputs": [
            {
              "internalType": "address",
              "name": "pair",
              "type": "address"
            },
            {
              "internalType": "uint256",
              "name": "conversionFactor",
              "type": "uint256"
            }
          ],
          "name": "getYtsLiquidity",
          "outputs": [
            {
              "internalType": "uint256",
              "name": "",
              "type": "uint256"
            }
          ],
          "stateMutability": "view",
          "type": "function"
        },
        {
          "inputs": [
            {
              "internalType": "address",
              "name": "pair",
              "type": "address"
            }
          ],
          "name": "isAvaxPair",
          "outputs": [
            {
              "internalType": "bool",
              "name": "",
              "type": "bool"
            }
          ],
          "stateMutability": "view",
          "type": "function"
        },
        {
          "inputs": [
            {
              "internalType": "address",
              "name": "pair",
              "type": "address"
            }
          ],
          "name": "isWhitelisted",
          "outputs": [
            {
              "internalType": "bool",
              "name": "",
              "type": "bool"
            }
          ],
          "stateMutability": "view",
          "type": "function"
        },
        {
          "inputs": [
            {
              "internalType": "address",
              "name": "pair",
              "type": "address"
            }
          ],
          "name": "isYtsPair",
          "outputs": [
            {
              "internalType": "bool",
              "name": "",
              "type": "bool"
            }
          ],
          "stateMutability": "view",
          "type": "function"
        },
        {
          "inputs": [],
          "name": "numPools",
          "outputs": [
            {
              "internalType": "uint256",
              "name": "",
              "type": "uint256"
            }
          ],
          "stateMutability": "view",
          "type": "function"
        },
        {
          "inputs": [],
          "name": "owner",
          "outputs": [
            {
              "internalType": "address",
              "name": "",
              "type": "address"
            }
          ],
          "stateMutability": "view",
          "type": "function"
        },
        {
          "inputs": [
            {
              "internalType": "address",
              "name": "pair",
              "type": "address"
            }
          ],
          "name": "removeWhitelistedPool",
          "outputs": [],
          "stateMutability": "nonpayable",
          "type": "function"
        },
        {
          "inputs": [],
          "name": "renounceOwnership",
          "outputs": [],
          "stateMutability": "nonpayable",
          "type": "function"
        },
        {
          "inputs": [
            {
              "internalType": "address",
              "name": "avaxYtsPair_",
              "type": "address"
            }
          ],
          "name": "setAvaxYtsPair",
          "outputs": [],
          "stateMutability": "nonpayable",
          "type": "function"
        },
        {
          "inputs": [
            {
              "internalType": "address",
              "name": "",
              "type": "address"
            }
          ],
          "name": "stakes",
          "outputs": [
            {
              "internalType": "address",
              "name": "",
              "type": "address"
            }
          ],
          "stateMutability": "view",
          "type": "function"
        },
        {
          "inputs": [
            {
              "internalType": "address",
              "name": "newOwner",
              "type": "address"
            }
          ],
          "name": "transferOwnership",
          "outputs": [],
          "stateMutability": "nonpayable",
          "type": "function"
        },
        {
          "inputs": [],
          "name": "treasuryVester",
          "outputs": [
            {
              "internalType": "address",
              "name": "",
              "type": "address"
            }
          ],
          "stateMutability": "view",
          "type": "function"
        },
        {
          "inputs": [],
          "name": "unallocatedYts",
          "outputs": [
            {
              "internalType": "uint256",
              "name": "",
              "type": "uint256"
            }
          ],
          "stateMutability": "view",
          "type": "function"
        },
        {
          "inputs": [],
          "name": "vestAllocation",
          "outputs": [],
          "stateMutability": "nonpayable",
          "type": "function"
        },
        {
          "inputs": [],
          "name": "wavax",
          "outputs": [
            {
              "internalType": "address",
              "name": "",
              "type": "address"
            }
          ],
          "stateMutability": "view",
          "type": "function"
        },
        {
          "inputs": [],
          "name": "yts",
          "outputs": [
            {
              "internalType": "address",
              "name": "",
              "type": "address"
            }
          ],
          "stateMutability": "view",
          "type": "function"
        }
      ],
      "evm": {
        "bytecode": {
          "linkReferences": {},
          "object": "60806040526000600b819055600c805460ff19169055600e5534801561002457600080fd5b506040516200439e3803806200439e8339818101604052606081101561004957600080fd5b508051602082015160409092015190919060006100646100f4565b600080546001600160a01b0319166001600160a01b0383169081178255604051929350917f8be0079c531659141344cd1fd0a4f28419497f9722a3daafe3b4186f6b6457e0908290a35060018055600780546001600160a01b039485166001600160a01b0319918216179091556008805493851693821693909317909255600a80549190931691161790556100f8565b3390565b61429680620001086000396000f3fe60806040523480156200001157600080fd5b5060043610620001cc5760003560e01c8063796cd9ba116200010557806394a4036b11620000a5578063aa8b0670116200007b578063aa8b067014620003fb578063db130a49146200041b578063dea964871462000444578063f2fde38b146200044e57620001cc565b806394a4036b14620003be5780639ab1b48414620003c8578063a8cb13df14620003d257620001cc565b80638da5cb5b11620000db5780638da5cb5b14620003815780639080dbee146200038b578063933733cf14620003b457620001cc565b8063796cd9ba14620003095780637e9ed57a14620003295780638c31ceff146200035857620001cc565b80634ad00082116200017157806368dfb544116200014757806368dfb54414620002cc5780637113aa1814620002d6578063715018a614620002ff57620001cc565b80634ad0008214620002ae5780635278f89c14620002b857806352f647cd14620002c257620001cc565b80632c74ce9711620001a75780632c74ce97146200022a57806335c62bc214620002555780633af32abf146200027157620001cc565b8063117be4c214620001d1578063150895db14620001f757806316934fc41462000201575b600080fd5b620001db62000477565b604080516001600160a01b039092168252519081900360200190f35b620001db62000486565b620001db600480360360208110156200021957600080fd5b50356001600160a01b031662000495565b62000253600480360360208110156200024257600080fd5b50356001600160a01b0316620004b0565b005b6200025f62000592565b60408051918252519081900360200190f35b6200029a600480360360208110156200028957600080fd5b50356001600160a01b031662000598565b604080519115158252519081900360200190f35b62000253620005c1565b620002536200088c565b6200025f62000a6c565b6200025f62000a72565b6200029a60048036036020811015620002ee57600080fd5b50356001600160a01b031662000c0d565b6200025362000c1c565b62000253600480360360208110156200032157600080fd5b503562000cdf565b6200025f600480360360408110156200034157600080fd5b506001600160a01b03813516906020013562000fbf565b6200029a600480360360208110156200037057600080fd5b50356001600160a01b0316620011e7565b620001db620011f6565b6200025360048036036020811015620003a357600080fd5b50356001600160a01b031662001205565b6200025362001540565b620001db62001556565b6200025362001565565b6200025360048036036020811015620003ea57600080fd5b50356001600160a01b031662001808565b6200025f600480360360208110156200041357600080fd5b503562001a35565b6200025f600480360360208110156200043357600080fd5b50356001600160a01b031662001a57565b620001db62001c61565b62000253600480360360208110156200046657600080fd5b50356001600160a01b031662001c70565b6007546001600160a01b031681565b600a546001600160a01b031681565b6006602052600090815260409020546001600160a01b031681565b620004ba62001d8b565b6001600160a01b0316620004cd620011f6565b6001600160a01b03161462000529576040805162461bcd60e51b815260206004820181905260248201527f4f776e61626c653a2063616c6c6572206973206e6f7420746865206f776e6572604482015290519081900360640190fd5b6001600160a01b038116620005705760405162461bcd60e51b815260040180806020018281038252604581526020018062003caa6045913960600191505060405180910390fd5b600980546001600160a01b0319166001600160a01b0392909216919091179055565b600b5481565b6000620005a760028362001d8f565b80620005bb5750620005bb60048362001d8f565b92915050565b600c5460ff1615620006055760405162461bcd60e51b815260040180806020018281038252606181526020018062003ff76061913960800191505060405180910390fd5b6000600e5411620006485760405162461bcd60e51b8152600401808060200182810382526052815260200180620041816052913960600191505060405180910390fd5b600062000656600462001dad565b1115620006a6576009546001600160a01b0316620006a65760405162461bcd60e51b815260040180806020018281038252603d81526020018062003d15603d913960400191505060405180910390fd5b600b5467ffffffffffffffff81118015620006c057600080fd5b50604051908082528060200260200182016040528015620006eb578160200160208202803683370190505b5080516200070291600d916020909101906200218b565b506000805b62000713600262001dad565b81101562000769576000620007346200072e60028462001dba565b62001a57565b905080600d83815481106200074557fe5b6000918252602090912001556200075d838262001dc8565b92505060010162000707565b50600062000778600462001dad565b1115620008035760006200078b62000a72565b905060005b6200079c600462001dad565b81101562000800576000620007be620007b760048462001dba565b8462000fbf565b905080600d620007cf600262001dad565b840181548110620007dc57fe5b600091825260209091200155620007f4848262001dc8565b93505060010162000790565b50505b6000805b600d548110156200087a5760006200084f8462000848600e54600d86815481106200082e57fe5b906000526020600020015462001e2390919063ffffffff16565b9062001e81565b905080600d83815481106200086057fe5b600091825260209091200155919091019060010162000807565b5050600c805460ff1916600117905550565b600e5415620008cd5760405162461bcd60e51b815260040180806020018281038252605681526020018062003dff6056913960600191505060405180910390fd5b600a60009054906101000a90046001600160a01b03166001600160a01b0316634e71d92d6040518163ffffffff1660e01b8152600401602060405180830381600087803b1580156200091e57600080fd5b505af115801562000933573d6000803e3d6000fd5b505050506040513d60208110156200094a57600080fd5b5051600e8190556200098e5760405162461bcd60e51b815260040180806020018281038252604a81526020018062004058604a913960600191505060405180910390fd5b600854604080517f70a0823100000000000000000000000000000000000000000000000000000000815230600482015290516000926001600160a01b0316916370a08231916024808301926020929190829003018186803b158015620009f357600080fd5b505afa15801562000a08573d6000803e3d6000fd5b505050506040513d602081101562000a1f57600080fd5b5051600e5490915081101562000a675760405162461bcd60e51b815260040180806020018281038252604281526020018062003e556042913960600191505060405180910390fd5b600e55565b600e5481565b6009546000906001600160a01b031662000abe5760405162461bcd60e51b815260040180806020018281038252603b81526020018062004226603b913960400191505060405180910390fd5b600080600960009054906101000a90046001600160a01b03166001600160a01b0316630902f1ac6040518163ffffffff1660e01b815260040160606040518083038186803b15801562000b1057600080fd5b505afa15801562000b25573d6000803e3d6000fd5b505050506040513d606081101562000b3c57600080fd5b50805160209182015160075460095460408051630dfe168160e01b815290516dffffffffffffffffffffffffffff95861698509490931695506001600160a01b0391821694911692630dfe1681926004808201939291829003018186803b15801562000ba757600080fd5b505afa15801562000bbc573d6000803e3d6000fd5b505050506040513d602081101562000bd357600080fd5b50516001600160a01b0316141562000bf95762000bf1818362001eea565b925062000c08565b62000c05828262001eea565b92505b505090565b6000620005bb60048362001d8f565b62000c2662001d8b565b6001600160a01b031662000c39620011f6565b6001600160a01b03161462000c95576040805162461bcd60e51b815260206004820181905260248201527f4f776e61626c653a2063616c6c6572206973206e6f7420746865206f776e6572604482015290519081900360640190fd5b600080546040516001600160a01b03909116907f8be0079c531659141344cd1fd0a4f28419497f9722a3daafe3b4186f6b6457e0908390a3600080546001600160a01b0319169055565b6002600154141562000d38576040805162461bcd60e51b815260206004820152601f60248201527f5265656e7472616e637947756172643a207265656e7472616e742063616c6c00604482015290519081900360640190fd5b6002600155600c5460ff1662000d805760405162461bcd60e51b815260040180806020018281038252606981526020018062003d966069913960800191505060405180910390fd5b600b54811062000dc25760405162461bcd60e51b815260040180806020018281038252604581526020018062003f496045913960600191505060405180910390fd5b600062000dd0600262001dad565b82101562000e0e576006600062000de960028562001dba565b6001600160a01b03908116825260208201929092526040016000205416905062000e4d565b6006600062000e2d62000e22600262001dad565b600490860362001dba565b6001600160a01b0390811682526020820192909252604001600020541690505b6000600d838154811062000e5d57fe5b90600052602060002001549050600081111562000fb6576000600d848154811062000e8457fe5b60009182526020808320909101929092556008546040805163a9059cbb60e01b81526001600160a01b038781166004830152602482018790529151919092169363a9059cbb936044808501949293928390030190829087803b15801562000eea57600080fd5b505af115801562000eff573d6000803e3d6000fd5b505050506040513d602081101562000f1657600080fd5b505162000f555760405162461bcd60e51b8152600401808060200182810382526037815260200180620040a26037913960400191505060405180910390fd5b816001600160a01b0316633c6b16ab826040518263ffffffff1660e01b815260040180828152602001915050600060405180830381600087803b15801562000f9c57600080fd5b505af115801562000fb1573d6000803e3d6000fd5b505050505b50506001805550565b6000806000846001600160a01b0316630902f1ac6040518163ffffffff1660e01b815260040160606040518083038186803b15801562000ffe57600080fd5b505afa15801562001013573d6000803e3d6000fd5b505050506040513d60608110156200102a57600080fd5b50805160209182015160085460408051630dfe168160e01b815290516dffffffffffffffffffffffffffff94851697509390921694506000936001600160a01b0391821693918a1692630dfe16819260048083019392829003018186803b1580156200109557600080fd5b505afa158015620010aa573d6000803e3d6000fd5b505050506040513d6020811015620010c157600080fd5b50516001600160a01b03161415620010e757620010df818462001dc8565b9050620011b3565b6008546040805163d21220a760e01b815290516001600160a01b039283169289169163d21220a7916004808301926020929190829003018186803b1580156200112f57600080fd5b505afa15801562001144573d6000803e3d6000fd5b505050506040513d60208110156200115b57600080fd5b50516001600160a01b031614620011a45760405162461bcd60e51b815260040180806020018281038252605081526020018062003ef96050913960600191505060405180910390fd5b620011b0818362001dc8565b90505b670de0b6b3a7640000620011cd8162000848848962001e23565b9150620011dc82600262001e23565b979650505050505050565b6000620005bb60028362001d8f565b6000546001600160a01b031690565b6200120f62001d8b565b6001600160a01b031662001222620011f6565b6001600160a01b0316146200127e576040805162461bcd60e51b815260206004820181905260248201527f4f776e61626c653a2063616c6c6572206973206e6f7420746865206f776e6572604482015290519081900360640190fd5b6001600160a01b038116620012c55760405162461bcd60e51b8152600401808060200182810382526049815260200180620041386049913960600191505060405180910390fd5b620012d08162000598565b156200130e5760405162461bcd60e51b815260040180806020018281038252604281526020018062003fb56042913960600191505060405180910390fd5b6000816001600160a01b0316630dfe16816040518163ffffffff1660e01b815260040160206040518083038186803b1580156200134a57600080fd5b505afa1580156200135f573d6000803e3d6000fd5b505050506040513d60208110156200137657600080fd5b50516040805163d21220a760e01b815290519192506000916001600160a01b0385169163d21220a7916004808301926020929190829003018186803b158015620013bf57600080fd5b505afa158015620013d4573d6000803e3d6000fd5b505050506040513d6020811015620013eb57600080fd5b50516008546040519192506000916001600160a01b039091169085906200141290620021db565b6001600160a01b03928316815291166020820152604080519182900301906000f08015801562001446573d6000803e3d6000fd5b506001600160a01b03858116600090815260066020526040902080546001600160a01b03191683831617905560075491925090811690841614806200149857506007546001600160a01b038381169116145b15620014b257620014ab60028562001f61565b5062001527565b6008546001600160a01b0384811691161480620014dc57506008546001600160a01b038381169116145b15620014ef57620014ab60048562001f61565b60405162461bcd60e51b815260040180806020018281038252604481526020018062003d526044913960600191505060405180910390fd5b600b546200153790600162001dc8565b600b5550505050565b6200154a620005c1565b6200155462001565565b565b6008546001600160a01b031681565b60026001541415620015be576040805162461bcd60e51b815260206004820152601f60248201527f5265656e7472616e637947756172643a207265656e7472616e742063616c6c00604482015290519081900360640190fd5b6002600155600c5460ff16620016065760405162461bcd60e51b815260040180806020018281038252605f815260200180620040d9605f913960600191505060405180910390fd5b600c805460ff19169055600080805b600d54811015620017fa576200162c600262001dad565b8110156200166a57600660006200164560028462001dba565b6001600160a01b039081168252602082019290925260400160002054169250620016a9565b60066000620016896200167e600262001dad565b600490850362001dba565b6001600160a01b0390811682526020820192909252604001600020541692505b600d8181548110620016b757fe5b906000526020600020015491506000821115620017f1576008546040805163a9059cbb60e01b81526001600160a01b038681166004830152602482018690529151919092169163a9059cbb9160448083019260209291908290030181600087803b1580156200172557600080fd5b505af11580156200173a573d6000803e3d6000fd5b505050506040513d60208110156200175157600080fd5b5051620017905760405162461bcd60e51b8152600401808060200182810382526037815260200180620040a26037913960400191505060405180910390fd5b826001600160a01b0316633c6b16ab836040518263ffffffff1660e01b815260040180828152602001915050600060405180830381600087803b158015620017d757600080fd5b505af1158015620017ec573d6000803e3d6000fd5b505050505b60010162001615565b50506000600e555060018055565b6200181262001d8b565b6001600160a01b031662001825620011f6565b6001600160a01b03161462001881576040805162461bcd60e51b815260206004820181905260248201527f4f776e61626c653a2063616c6c6572206973206e6f7420746865206f776e6572604482015290519081900360640190fd5b6200188c8162000598565b620018c95760405162461bcd60e51b815260040180806020018281038252604181526020018062003e976041913960600191505060405180910390fd5b6000816001600160a01b0316630dfe16816040518163ffffffff1660e01b815260040160206040518083038186803b1580156200190557600080fd5b505afa1580156200191a573d6000803e3d6000fd5b505050506040513d60208110156200193157600080fd5b50516040805163d21220a760e01b815290519192506000916001600160a01b0385169163d21220a7916004808301926020929190829003018186803b1580156200197a57600080fd5b505afa1580156200198f573d6000803e3d6000fd5b505050506040513d6020811015620019a657600080fd5b50516001600160a01b03808516600090815260066020526040902080546001600160a01b031916905560075491925083811691161480620019f457506007546001600160a01b038281169116145b1562001a0e5762001a0760028462001f78565b5062001a1d565b62001a1b60048462001f78565b505b600b5462001a2d90600162001f8f565b600b55505050565b600d818154811062001a4657600080fd5b600091825260209091200154905081565b6000806000836001600160a01b0316630902f1ac6040518163ffffffff1660e01b815260040160606040518083038186803b15801562001a9657600080fd5b505afa15801562001aab573d6000803e3d6000fd5b505050506040513d606081101562001ac257600080fd5b50805160209182015160075460408051630dfe168160e01b815290516dffffffffffffffffffffffffffff94851697509390921694506000936001600160a01b039182169391891692630dfe16819260048083019392829003018186803b15801562001b2d57600080fd5b505afa15801562001b42573d6000803e3d6000fd5b505050506040513d602081101562001b5957600080fd5b50516001600160a01b0316141562001b7f5762001b77818462001dc8565b905062001c4b565b6007546040805163d21220a760e01b815290516001600160a01b039283169288169163d21220a7916004808301926020929190829003018186803b15801562001bc757600080fd5b505afa15801562001bdc573d6000803e3d6000fd5b505050506040513d602081101562001bf357600080fd5b50516001600160a01b03161462001c3c5760405162461bcd60e51b8152600401808060200182810382526053815260200180620041d36053913960600191505060405180910390fd5b62001c48818362001dc8565b90505b62001c5881600262001e23565b95945050505050565b6009546001600160a01b031681565b62001c7a62001d8b565b6001600160a01b031662001c8d620011f6565b6001600160a01b03161462001ce9576040805162461bcd60e51b815260206004820181905260248201527f4f776e61626c653a2063616c6c6572206973206e6f7420746865206f776e6572604482015290519081900360640190fd5b6001600160a01b03811662001d305760405162461bcd60e51b815260040180806020018281038252602681526020018062003cef6026913960400191505060405180910390fd5b600080546040516001600160a01b03808516939216917f8be0079c531659141344cd1fd0a4f28419497f9722a3daafe3b4186f6b6457e091a3600080546001600160a01b0319166001600160a01b0392909216919091179055565b3390565b600062001da6836001600160a01b03841662001fed565b9392505050565b6000620005bb8262002005565b600062001da6838362002009565b60008282018381101562001da6576040805162461bcd60e51b815260206004820152601b60248201527f536166654d6174683a206164646974696f6e206f766572666c6f770000000000604482015290519081900360640190fd5b60008262001e3457506000620005bb565b8282028284828162001e4257fe5b041462001da65760405162461bcd60e51b815260040180806020018281038252602181526020018062003ed86021913960400191505060405180910390fd5b600080821162001ed8576040805162461bcd60e51b815260206004820152601a60248201527f536166654d6174683a206469766973696f6e206279207a65726f000000000000604482015290519081900360640190fd5b81838162001ee257fe5b049392505050565b6000808311801562001efc5750600082115b62001f395760405162461bcd60e51b815260040180806020018281038252602781526020018062003f8e6027913960400191505060405180910390fd5b670de0b6b3a764000062001f5962001f52828562001e23565b8562001e81565b949350505050565b600062001da6836001600160a01b03841662002070565b600062001da6836001600160a01b038416620020bf565b60008282111562001fe7576040805162461bcd60e51b815260206004820152601e60248201527f536166654d6174683a207375627472616374696f6e206f766572666c6f770000604482015290519081900360640190fd5b50900390565b60009081526001919091016020526040902054151590565b5490565b815460009082106200204d5760405162461bcd60e51b815260040180806020018281038252602281526020018062003c886022913960400191505060405180910390fd5b8260000182815481106200205d57fe5b9060005260206000200154905092915050565b60006200207e838362001fed565b620020b657508154600181810184556000848152602080822090930184905584548482528286019093526040902091909155620005bb565b506000620005bb565b60008181526001830160205260408120548015620021805783546000198083019190810190600090879083908110620020f457fe5b90600052602060002001549050808760000184815481106200211257fe5b6000918252602080832090910192909255828152600189810190925260409020908401905586548790806200214357fe5b60019003818190600052602060002001600090559055866001016000878152602001908152602001600020600090556001945050505050620005bb565b6000915050620005bb565b828054828255906000526020600020908101928215620021c9579160200282015b82811115620021c9578251825591602001919060010190620021ac565b50620021d7929150620021e9565b5090565b611a87806200220183390190565b5b80821115620021d75760008155600101620021ea56fe6080604052600060045560006005556201518060065534801561002157600080fd5b50604051611a87380380611a878339818101604052604081101561004457600080fd5b5080516020909101516001600090815561005c6100db565b600180546001600160a01b0319166001600160a01b038316908117909155604051919250906000907f8be0079c531659141344cd1fd0a4f28419497f9722a3daafe3b4186f6b6457e0908290a350600280546001600160a01b039384166001600160a01b031991821617909155600380549290931691161790556100df565b3390565b611999806100ee6000396000f3fe608060405234801561001057600080fd5b50600436106101ad5760003560e01c80638980f11f116100ee578063cd3daf9d11610097578063e9fad8ee11610071578063e9fad8ee14610382578063ebe2b12b1461038a578063ecd9ba8214610392578063f2fde38b146103ca576101ad565b8063cd3daf9d1461036a578063d1af0c7d14610372578063df136d651461037a576101ad565b8063a694fc3a116100c8578063a694fc3a14610328578063c8f33c9114610345578063cc1a378f1461034d576101ad565b80638980f11f146102ce5780638b876347146102fa5780638da5cb5b14610320576101ad565b80633c6b16ab1161015b578063715018a611610135578063715018a61461029257806372f702f31461029a5780637b0a47ee146102be57806380faa57d146102c6576101ad565b80633c6b16ab146102475780633d18b9121461026457806370a082311461026c576101ad565b80631c1f78eb1161018c5780631c1f78eb146102185780632e1a7d4d14610220578063386a95251461023f576101ad565b80628cc262146101b25780630700037d146101ea57806318160ddd14610210575b600080fd5b6101d8600480360360208110156101c857600080fd5b50356001600160a01b03166103f0565b60408051918252519081900360200190f35b6101d86004803603602081101561020057600080fd5b50356001600160a01b031661046e565b6101d8610480565b6101d8610487565b61023d6004803603602081101561023657600080fd5b50356104a5565b005b6101d8610647565b61023d6004803603602081101561025d57600080fd5b503561064d565b61023d6108c4565b6101d86004803603602081101561028257600080fd5b50356001600160a01b03166109fb565b61023d610a16565b6102a2610ae1565b604080516001600160a01b039092168252519081900360200190f35b6101d8610af0565b6101d8610af6565b61023d600480360360408110156102e457600080fd5b506001600160a01b038135169060200135610b04565b6101d86004803603602081101561031057600080fd5b50356001600160a01b0316610c29565b6102a2610c3b565b61023d6004803603602081101561033e57600080fd5b5035610c4a565b6101d8610ded565b61023d6004803603602081101561036357600080fd5b5035610df3565b6101d8610ee2565b6102a2610f30565b6101d8610f3f565b61023d610f45565b6101d8610f68565b61023d600480360360a08110156103a857600080fd5b5080359060208101359060ff6040820135169060608101359060800135610f6e565b61023d600480360360208110156103e057600080fd5b50356001600160a01b03166111b9565b6001600160a01b0381166000908152600a60209081526040808320546009909252822054610468919061046290670de0b6b3a76400009061045c9061043d90610437610ee2565b906112db565b6001600160a01b0388166000908152600c602052604090205490611338565b90611398565b906113ff565b92915050565b600a6020526000908152604090205481565b600b545b90565b60006104a060065460055461133890919063ffffffff16565b905090565b600260005414156104fd576040805162461bcd60e51b815260206004820152601f60248201527f5265656e7472616e637947756172643a207265656e7472616e742063616c6c00604482015290519081900360640190fd5b60026000553361050b610ee2565b600855610516610af6565b6007556001600160a01b0381161561055d57610531816103f0565b6001600160a01b0382166000908152600a60209081526040808320939093556008546009909152919020555b600082116105b2576040805162461bcd60e51b815260206004820152601160248201527f43616e6e6f742077697468647261772030000000000000000000000000000000604482015290519081900360640190fd5b600b546105bf90836112db565b600b55336000908152600c60205260409020546105dc90836112db565b336000818152600c6020526040902091909155600354610608916001600160a01b039091169084611459565b60408051838152905133917f7084f5476618d8e60b11ef0d7d3f06914655adb8793e28ff7f018d4c76d505d5919081900360200190a250506001600055565b60065481565b6106556114de565b6001600160a01b0316610666610c3b565b6001600160a01b0316146106c1576040805162461bcd60e51b815260206004820181905260248201527f4f776e61626c653a2063616c6c6572206973206e6f7420746865206f776e6572604482015290519081900360640190fd5b60006106cb610ee2565b6008556106d6610af6565b6007556001600160a01b0381161561071d576106f1816103f0565b6001600160a01b0382166000908152600a60209081526040808320939093556008546009909152919020555b600454421061073c57600654610734908390611398565b60055561077f565b60045460009061074c90426112db565b905060006107656005548361133890919063ffffffff16565b6006549091506107799061045c86846113ff565b60055550505b600254604080517f70a0823100000000000000000000000000000000000000000000000000000000815230600482015290516000926001600160a01b0316916370a08231916024808301926020929190829003018186803b1580156107e357600080fd5b505afa1580156107f7573d6000803e3d6000fd5b505050506040513d602081101561080d57600080fd5b5051600654909150610820908290611398565b6005541115610876576040805162461bcd60e51b815260206004820152601860248201527f50726f76696465642072657761726420746f6f20686967680000000000000000604482015290519081900360640190fd5b42600781905560065461088991906113ff565b6004556040805184815290517fde88a922e0d3b88b24e9623efeb464919c6bf9f66857a65e2bfcf2ce87a9433d9181900360200190a1505050565b6002600054141561091c576040805162461bcd60e51b815260206004820152601f60248201527f5265656e7472616e637947756172643a207265656e7472616e742063616c6c00604482015290519081900360640190fd5b60026000553361092a610ee2565b600855610935610af6565b6007556001600160a01b0381161561097c57610950816103f0565b6001600160a01b0382166000908152600a60209081526040808320939093556008546009909152919020555b336000908152600a602052604090205480156109f257336000818152600a60205260408120556002546109bb916001600160a01b039091169083611459565b60408051828152905133917fe2403640ba68fed3a2f88b7557551d1993f84b99bb10ff833f0cf8db0c5e0486919081900360200190a25b50506001600055565b6001600160a01b03166000908152600c602052604090205490565b610a1e6114de565b6001600160a01b0316610a2f610c3b565b6001600160a01b031614610a8a576040805162461bcd60e51b815260206004820181905260248201527f4f776e61626c653a2063616c6c6572206973206e6f7420746865206f776e6572604482015290519081900360640190fd5b6001546040516000916001600160a01b0316907f8be0079c531659141344cd1fd0a4f28419497f9722a3daafe3b4186f6b6457e0908390a36001805473ffffffffffffffffffffffffffffffffffffffff19169055565b6003546001600160a01b031681565b60055481565b60006104a0426004546114e2565b610b0c6114de565b6001600160a01b0316610b1d610c3b565b6001600160a01b031614610b78576040805162461bcd60e51b815260206004820181905260248201527f4f776e61626c653a2063616c6c6572206973206e6f7420746865206f776e6572604482015290519081900360640190fd5b6003546001600160a01b0383811691161415610bc55760405162461bcd60e51b81526004018080602001828103825260218152602001806119436021913960400191505060405180910390fd5b610be1610bd0610c3b565b6001600160a01b0384169083611459565b604080516001600160a01b03841681526020810183905281517f8c1256b8896378cd5044f80c202f9772b9d77dc85c8a6eb51967210b09bfaa28929181900390910190a15050565b60096020526000908152604090205481565b6001546001600160a01b031690565b60026000541415610ca2576040805162461bcd60e51b815260206004820152601f60248201527f5265656e7472616e637947756172643a207265656e7472616e742063616c6c00604482015290519081900360640190fd5b600260005533610cb0610ee2565b600855610cbb610af6565b6007556001600160a01b03811615610d0257610cd6816103f0565b6001600160a01b0382166000908152600a60209081526040808320939093556008546009909152919020555b60008211610d57576040805162461bcd60e51b815260206004820152600e60248201527f43616e6e6f74207374616b652030000000000000000000000000000000000000604482015290519081900360640190fd5b600b54610d6490836113ff565b600b55336000908152600c6020526040902054610d8190836113ff565b336000818152600c6020526040902091909155600354610dae916001600160a01b039091169030856114f8565b60408051838152905133917f9e71bc8eea02a63969f509818f2dafb9254532904319f9dbda79b67bd34a5f3d919081900360200190a250506001600055565b60075481565b610dfb6114de565b6001600160a01b0316610e0c610c3b565b6001600160a01b031614610e67576040805162461bcd60e51b815260206004820181905260248201527f4f776e61626c653a2063616c6c6572206973206e6f7420746865206f776e6572604482015290519081900360640190fd5b6004544211610ea75760405162461bcd60e51b81526004018080602001828103825260588152602001806118546058913960600191505060405180910390fd5b60068190556040805182815290517ffb46ca5a5e06d4540d6387b930a7c978bce0db5f449ec6b3f5d07c6e1d44f2d39181900360200190a150565b6000600b5460001415610ef85750600854610484565b6104a0610f27600b5461045c670de0b6b3a7640000610f21600554610f21600754610437610af6565b90611338565b600854906113ff565b6002546001600160a01b031681565b60085481565b336000908152600c6020526040902054610f5e906104a5565b610f666108c4565b565b60045481565b60026000541415610fc6576040805162461bcd60e51b815260206004820152601f60248201527f5265656e7472616e637947756172643a207265656e7472616e742063616c6c00604482015290519081900360640190fd5b600260005533610fd4610ee2565b600855610fdf610af6565b6007556001600160a01b0381161561102657610ffa816103f0565b6001600160a01b0382166000908152600a60209081526040808320939093556008546009909152919020555b6000861161107b576040805162461bcd60e51b815260206004820152600e60248201527f43616e6e6f74207374616b652030000000000000000000000000000000000000604482015290519081900360640190fd5b600b5461108890876113ff565b600b55336000908152600c60205260409020546110a590876113ff565b336000818152600c60205260408082209390935560035483517fd505accf0000000000000000000000000000000000000000000000000000000081526004810193909352306024840152604483018a90526064830189905260ff8816608484015260a4830187905260c4830186905292516001600160a01b039093169263d505accf9260e480820193929182900301818387803b15801561114557600080fd5b505af1158015611159573d6000803e3d6000fd5b505060035461117692506001600160a01b031690503330896114f8565b60408051878152905133917f9e71bc8eea02a63969f509818f2dafb9254532904319f9dbda79b67bd34a5f3d919081900360200190a25050600160005550505050565b6111c16114de565b6001600160a01b03166111d2610c3b565b6001600160a01b03161461122d576040805162461bcd60e51b815260206004820181905260248201527f4f776e61626c653a2063616c6c6572206973206e6f7420746865206f776e6572604482015290519081900360640190fd5b6001600160a01b0381166112725760405162461bcd60e51b81526004018080602001828103825260268152602001806118ac6026913960400191505060405180910390fd5b6001546040516001600160a01b038084169216907f8be0079c531659141344cd1fd0a4f28419497f9722a3daafe3b4186f6b6457e090600090a36001805473ffffffffffffffffffffffffffffffffffffffff19166001600160a01b0392909216919091179055565b600082821115611332576040805162461bcd60e51b815260206004820152601e60248201527f536166654d6174683a207375627472616374696f6e206f766572666c6f770000604482015290519081900360640190fd5b50900390565b60008261134757506000610468565b8282028284828161135457fe5b04146113915760405162461bcd60e51b81526004018080602001828103825260218152602001806118f86021913960400191505060405180910390fd5b9392505050565b60008082116113ee576040805162461bcd60e51b815260206004820152601a60248201527f536166654d6174683a206469766973696f6e206279207a65726f000000000000604482015290519081900360640190fd5b8183816113f757fe5b049392505050565b600082820183811015611391576040805162461bcd60e51b815260206004820152601b60248201527f536166654d6174683a206164646974696f6e206f766572666c6f770000000000604482015290519081900360640190fd5b604080516001600160a01b038416602482015260448082018490528251808303909101815260649091019091526020810180517bffffffffffffffffffffffffffffffffffffffffffffffffffffffff167fa9059cbb000000000000000000000000000000000000000000000000000000001790526114d9908490611586565b505050565b3390565b60008183106114f15781611391565b5090919050565b604080516001600160a01b0380861660248301528416604482015260648082018490528251808303909101815260849091019091526020810180517bffffffffffffffffffffffffffffffffffffffffffffffffffffffff167f23b872dd00000000000000000000000000000000000000000000000000000000179052611580908590611586565b50505050565b60006115db826040518060400160405280602081526020017f5361666545524332303a206c6f772d6c6576656c2063616c6c206661696c6564815250856001600160a01b03166116379092919063ffffffff16565b8051909150156114d9578080602001905160208110156115fa57600080fd5b50516114d95760405162461bcd60e51b815260040180806020018281038252602a815260200180611919602a913960400191505060405180910390fd5b6060611646848460008561164e565b949350505050565b60608247101561168f5760405162461bcd60e51b81526004018080602001828103825260268152602001806118d26026913960400191505060405180910390fd5b611698856117a9565b6116e9576040805162461bcd60e51b815260206004820152601d60248201527f416464726573733a2063616c6c20746f206e6f6e2d636f6e7472616374000000604482015290519081900360640190fd5b600080866001600160a01b031685876040518082805190602001908083835b602083106117275780518252601f199092019160209182019101611708565b6001836020036101000a03801982511681845116808217855250505050505090500191505060006040518083038185875af1925050503d8060008114611789576040519150601f19603f3d011682016040523d82523d6000602084013e61178e565b606091505b509150915061179e8282866117af565b979650505050505050565b3b151590565b606083156117be575081611391565b8251156117ce5782518084602001fd5b8160405162461bcd60e51b81526004018080602001828103825283818151815260200191508051906020019080838360005b83811015611818578181015183820152602001611800565b50505050905090810190601f1680156118455780820380516001836020036101000a031916815260200191505b509250505060405180910390fdfe50726576696f7573207265776172647320706572696f64206d75737420626520636f6d706c657465206265666f7265206368616e67696e6720746865206475726174696f6e20666f7220746865206e657720706572696f644f776e61626c653a206e6577206f776e657220697320746865207a65726f2061646472657373416464726573733a20696e73756666696369656e742062616c616e636520666f722063616c6c536166654d6174683a206d756c7469706c69636174696f6e206f766572666c6f775361666545524332303a204552433230206f7065726174696f6e20646964206e6f74207375636365656443616e6e6f7420776974686472617720746865207374616b696e6720746f6b656ea2646970667358221220b2da2794a2212fa4d585dba1e264017b0471373a2780496b12ad306a3933e2bf64736f6c63430007060033456e756d657261626c655365743a20696e646578206f7574206f6620626f756e64734c6971756964697479506f6f6c4d616e616765723a3a73657441766178597473506169723a20506f6f6c2063616e6e6f7420626520746865207a65726f20616464726573734f776e61626c653a206e6577206f776e657220697320746865207a65726f20616464726573734c6971756964697479506f6f6c4d616e616765723a3a63616c63756c61746552657475726e733a20417661782f5954532050616972206e6f74207365744c6971756964697479506f6f6c4d616e616765723a3a61646457686974656c6973746564506f6f6c3a204e6f2041564158206f722059545320696e2074686520706169724c6971756964697479506f6f6c4d616e616765723a3a64697374726962757465546f6b656e7353696e676c65506f6f6c3a2050726576696f75732072657475726e73206e6f7420616c6c6f63617465642e2043616c6c2063616c63756c61746552657475726e7328294c6971756964697479506f6f6c4d616e616765723a3a76657374416c6c6f636174696f6e3a204f6c642059545320697320756e616c6c6f63617465642e2043616c6c2064697374726962757465546f6b656e7328292e4c6971756964697479506f6f6c4d616e616765723a3a76657374416c6c6f636174696f6e3a20496e73756666696369656e7420595453207472616e736665727265644c6971756964697479506f6f6c4d616e616765723a3a72656d6f766557686974656c6973746564506f6f6c3a20506f6f6c206e6f742077686974656c6973746564536166654d6174683a206d756c7469706c69636174696f6e206f766572666c6f774c6971756964697479506f6f6c4d616e616765723a3a6765745974734c69717569646974793a204f6e65206f662074686520746f6b656e7320696e207468652070616972206d757374206265205954534c6971756964697479506f6f6c4d616e616765723a3a64697374726962757465546f6b656e7353696e676c65506f6f6c3a20496e646578206f7574206f6620626f756e647359657469537761704c6962726172793a20494e53554646494349454e545f4c49515549444954594c6971756964697479506f6f6c4d616e616765723a3a61646457686974656c6973746564506f6f6c3a20506f6f6c20616c72656164792077686974656c69737465644c6971756964697479506f6f6c4d616e616765723a3a63616c63756c61746552657475726e733a2050726576696f75732072657475726e73206e6f742064697374726962757465642e2043616c6c2064697374726962757465546f6b656e7328294c6971756964697479506f6f6c4d616e616765723a3a76657374416c6c6f636174696f6e3a204e6f2059545320746f20636c61696d2e2054727920616761696e20746f6d6f72726f772e4c6971756964697479506f6f6c4d616e616765723a3a64697374726962757465546f6b656e733a205472616e73666572206661696c65644c6971756964697479506f6f6c4d616e616765723a3a64697374726962757465546f6b656e733a2050726576696f75732072657475726e73206e6f7420616c6c6f63617465642e2043616c6c2063616c63756c61746552657475726e7328294c6971756964697479506f6f6c4d616e616765723a3a61646457686974656c6973746564506f6f6c3a20506f6f6c2063616e6e6f7420626520746865207a65726f20616464726573734c6971756964697479506f6f6c4d616e616765723a3a63616c63756c61746552657475726e733a204e6f2059545320746f20616c6c6f636174652e2043616c6c2076657374416c6c6f636174696f6e28292e4c6971756964697479506f6f6c4d616e616765723a3a676574417661784c69717569646974793a204f6e65206f662074686520746f6b656e7320696e207468652070616972206d7573742062652057415641584c6971756964697479506f6f6c4d616e616765723a3a67657441766178597473526174696f3a204e6f20415641582d595453207061697220736574a264697066735822122001da0f7ed5dfc01091ecd3698a726fa4c1fe1e840b698fdfbdedcf7ef49b56ad64736f6c63430007060033",
          "opcodes": "PUSH1 0x80 PUSH1 0x40 MSTORE PUSH1 0x0 PUSH1 0xB DUP2 SWAP1 SSTORE PUSH1 0xC DUP1 SLOAD PUSH1 0xFF NOT AND SWAP1 SSTORE PUSH1 0xE SSTORE CALLVALUE DUP1 ISZERO PUSH2 0x24 JUMPI PUSH1 0x0 DUP1 REVERT JUMPDEST POP PUSH1 0x40 MLOAD PUSH3 0x439E CODESIZE SUB DUP1 PUSH3 0x439E DUP4 CODECOPY DUP2 DUP2 ADD PUSH1 0x40 MSTORE PUSH1 0x60 DUP2 LT ISZERO PUSH2 0x49 JUMPI PUSH1 0x0 DUP1 REVERT JUMPDEST POP DUP1 MLOAD PUSH1 0x20 DUP3 ADD MLOAD PUSH1 0x40 SWAP1 SWAP3 ADD MLOAD SWAP1 SWAP2 SWAP1 PUSH1 0x0 PUSH2 0x64 PUSH2 0xF4 JUMP JUMPDEST PUSH1 0x0 DUP1 SLOAD PUSH1 0x1 PUSH1 0x1 PUSH1 0xA0 SHL SUB NOT AND PUSH1 0x1 PUSH1 0x1 PUSH1 0xA0 SHL SUB DUP4 AND SWAP1 DUP2 OR DUP3 SSTORE PUSH1 0x40 MLOAD SWAP3 SWAP4 POP SWAP2 PUSH32 0x8BE0079C531659141344CD1FD0A4F28419497F9722A3DAAFE3B4186F6B6457E0 SWAP1 DUP3 SWAP1 LOG3 POP PUSH1 0x1 DUP1 SSTORE PUSH1 0x7 DUP1 SLOAD PUSH1 0x1 PUSH1 0x1 PUSH1 0xA0 SHL SUB SWAP5 DUP6 AND PUSH1 0x1 PUSH1 0x1 PUSH1 0xA0 SHL SUB NOT SWAP2 DUP3 AND OR SWAP1 SWAP2 SSTORE PUSH1 0x8 DUP1 SLOAD SWAP4 DUP6 AND SWAP4 DUP3 AND SWAP4 SWAP1 SWAP4 OR SWAP1 SWAP3 SSTORE PUSH1 0xA DUP1 SLOAD SWAP2 SWAP1 SWAP4 AND SWAP2 AND OR SWAP1 SSTORE PUSH2 0xF8 JUMP JUMPDEST CALLER SWAP1 JUMP JUMPDEST PUSH2 0x4296 DUP1 PUSH3 0x108 PUSH1 0x0 CODECOPY PUSH1 0x0 RETURN INVALID PUSH1 0x80 PUSH1 0x40 MSTORE CALLVALUE DUP1 ISZERO PUSH3 0x11 JUMPI PUSH1 0x0 DUP1 REVERT JUMPDEST POP PUSH1 0x4 CALLDATASIZE LT PUSH3 0x1CC JUMPI PUSH1 0x0 CALLDATALOAD PUSH1 0xE0 SHR DUP1 PUSH4 0x796CD9BA GT PUSH3 0x105 JUMPI DUP1 PUSH4 0x94A4036B GT PUSH3 0xA5 JUMPI DUP1 PUSH4 0xAA8B0670 GT PUSH3 0x7B JUMPI DUP1 PUSH4 0xAA8B0670 EQ PUSH3 0x3FB JUMPI DUP1 PUSH4 0xDB130A49 EQ PUSH3 0x41B JUMPI DUP1 PUSH4 0xDEA96487 EQ PUSH3 0x444 JUMPI DUP1 PUSH4 0xF2FDE38B EQ PUSH3 0x44E JUMPI PUSH3 0x1CC JUMP JUMPDEST DUP1 PUSH4 0x94A4036B EQ PUSH3 0x3BE JUMPI DUP1 PUSH4 0x9AB1B484 EQ PUSH3 0x3C8 JUMPI DUP1 PUSH4 0xA8CB13DF EQ PUSH3 0x3D2 JUMPI PUSH3 0x1CC JUMP JUMPDEST DUP1 PUSH4 0x8DA5CB5B GT PUSH3 0xDB JUMPI DUP1 PUSH4 0x8DA5CB5B EQ PUSH3 0x381 JUMPI DUP1 PUSH4 0x9080DBEE EQ PUSH3 0x38B JUMPI DUP1 PUSH4 0x933733CF EQ PUSH3 0x3B4 JUMPI PUSH3 0x1CC JUMP JUMPDEST DUP1 PUSH4 0x796CD9BA EQ PUSH3 0x309 JUMPI DUP1 PUSH4 0x7E9ED57A EQ PUSH3 0x329 JUMPI DUP1 PUSH4 0x8C31CEFF EQ PUSH3 0x358 JUMPI PUSH3 0x1CC JUMP JUMPDEST DUP1 PUSH4 0x4AD00082 GT PUSH3 0x171 JUMPI DUP1 PUSH4 0x68DFB544 GT PUSH3 0x147 JUMPI DUP1 PUSH4 0x68DFB544 EQ PUSH3 0x2CC JUMPI DUP1 PUSH4 0x7113AA18 EQ PUSH3 0x2D6 JUMPI DUP1 PUSH4 0x715018A6 EQ PUSH3 0x2FF JUMPI PUSH3 0x1CC JUMP JUMPDEST DUP1 PUSH4 0x4AD00082 EQ PUSH3 0x2AE JUMPI DUP1 PUSH4 0x5278F89C EQ PUSH3 0x2B8 JUMPI DUP1 PUSH4 0x52F647CD EQ PUSH3 0x2C2 JUMPI PUSH3 0x1CC JUMP JUMPDEST DUP1 PUSH4 0x2C74CE97 GT PUSH3 0x1A7 JUMPI DUP1 PUSH4 0x2C74CE97 EQ PUSH3 0x22A JUMPI DUP1 PUSH4 0x35C62BC2 EQ PUSH3 0x255 JUMPI DUP1 PUSH4 0x3AF32ABF EQ PUSH3 0x271 JUMPI PUSH3 0x1CC JUMP JUMPDEST DUP1 PUSH4 0x117BE4C2 EQ PUSH3 0x1D1 JUMPI DUP1 PUSH4 0x150895DB EQ PUSH3 0x1F7 JUMPI DUP1 PUSH4 0x16934FC4 EQ PUSH3 0x201 JUMPI JUMPDEST PUSH1 0x0 DUP1 REVERT JUMPDEST PUSH3 0x1DB PUSH3 0x477 JUMP JUMPDEST PUSH1 0x40 DUP1 MLOAD PUSH1 0x1 PUSH1 0x1 PUSH1 0xA0 SHL SUB SWAP1 SWAP3 AND DUP3 MSTORE MLOAD SWAP1 DUP2 SWAP1 SUB PUSH1 0x20 ADD SWAP1 RETURN JUMPDEST PUSH3 0x1DB PUSH3 0x486 JUMP JUMPDEST PUSH3 0x1DB PUSH1 0x4 DUP1 CALLDATASIZE SUB PUSH1 0x20 DUP2 LT ISZERO PUSH3 0x219 JUMPI PUSH1 0x0 DUP1 REVERT JUMPDEST POP CALLDATALOAD PUSH1 0x1 PUSH1 0x1 PUSH1 0xA0 SHL SUB AND PUSH3 0x495 JUMP JUMPDEST PUSH3 0x253 PUSH1 0x4 DUP1 CALLDATASIZE SUB PUSH1 0x20 DUP2 LT ISZERO PUSH3 0x242 JUMPI PUSH1 0x0 DUP1 REVERT JUMPDEST POP CALLDATALOAD PUSH1 0x1 PUSH1 0x1 PUSH1 0xA0 SHL SUB AND PUSH3 0x4B0 JUMP JUMPDEST STOP JUMPDEST PUSH3 0x25F PUSH3 0x592 JUMP JUMPDEST PUSH1 0x40 DUP1 MLOAD SWAP2 DUP3 MSTORE MLOAD SWAP1 DUP2 SWAP1 SUB PUSH1 0x20 ADD SWAP1 RETURN JUMPDEST PUSH3 0x29A PUSH1 0x4 DUP1 CALLDATASIZE SUB PUSH1 0x20 DUP2 LT ISZERO PUSH3 0x289 JUMPI PUSH1 0x0 DUP1 REVERT JUMPDEST POP CALLDATALOAD PUSH1 0x1 PUSH1 0x1 PUSH1 0xA0 SHL SUB AND PUSH3 0x598 JUMP JUMPDEST PUSH1 0x40 DUP1 MLOAD SWAP2 ISZERO ISZERO DUP3 MSTORE MLOAD SWAP1 DUP2 SWAP1 SUB PUSH1 0x20 ADD SWAP1 RETURN JUMPDEST PUSH3 0x253 PUSH3 0x5C1 JUMP JUMPDEST PUSH3 0x253 PUSH3 0x88C JUMP JUMPDEST PUSH3 0x25F PUSH3 0xA6C JUMP JUMPDEST PUSH3 0x25F PUSH3 0xA72 JUMP JUMPDEST PUSH3 0x29A PUSH1 0x4 DUP1 CALLDATASIZE SUB PUSH1 0x20 DUP2 LT ISZERO PUSH3 0x2EE JUMPI PUSH1 0x0 DUP1 REVERT JUMPDEST POP CALLDATALOAD PUSH1 0x1 PUSH1 0x1 PUSH1 0xA0 SHL SUB AND PUSH3 0xC0D JUMP JUMPDEST PUSH3 0x253 PUSH3 0xC1C JUMP JUMPDEST PUSH3 0x253 PUSH1 0x4 DUP1 CALLDATASIZE SUB PUSH1 0x20 DUP2 LT ISZERO PUSH3 0x321 JUMPI PUSH1 0x0 DUP1 REVERT JUMPDEST POP CALLDATALOAD PUSH3 0xCDF JUMP JUMPDEST PUSH3 0x25F PUSH1 0x4 DUP1 CALLDATASIZE SUB PUSH1 0x40 DUP2 LT ISZERO PUSH3 0x341 JUMPI PUSH1 0x0 DUP1 REVERT JUMPDEST POP PUSH1 0x1 PUSH1 0x1 PUSH1 0xA0 SHL SUB DUP2 CALLDATALOAD AND SWAP1 PUSH1 0x20 ADD CALLDATALOAD PUSH3 0xFBF JUMP JUMPDEST PUSH3 0x29A PUSH1 0x4 DUP1 CALLDATASIZE SUB PUSH1 0x20 DUP2 LT ISZERO PUSH3 0x370 JUMPI PUSH1 0x0 DUP1 REVERT JUMPDEST POP CALLDATALOAD PUSH1 0x1 PUSH1 0x1 PUSH1 0xA0 SHL SUB AND PUSH3 0x11E7 JUMP JUMPDEST PUSH3 0x1DB PUSH3 0x11F6 JUMP JUMPDEST PUSH3 0x253 PUSH1 0x4 DUP1 CALLDATASIZE SUB PUSH1 0x20 DUP2 LT ISZERO PUSH3 0x3A3 JUMPI PUSH1 0x0 DUP1 REVERT JUMPDEST POP CALLDATALOAD PUSH1 0x1 PUSH1 0x1 PUSH1 0xA0 SHL SUB AND PUSH3 0x1205 JUMP JUMPDEST PUSH3 0x253 PUSH3 0x1540 JUMP JUMPDEST PUSH3 0x1DB PUSH3 0x1556 JUMP JUMPDEST PUSH3 0x253 PUSH3 0x1565 JUMP JUMPDEST PUSH3 0x253 PUSH1 0x4 DUP1 CALLDATASIZE SUB PUSH1 0x20 DUP2 LT ISZERO PUSH3 0x3EA JUMPI PUSH1 0x0 DUP1 REVERT JUMPDEST POP CALLDATALOAD PUSH1 0x1 PUSH1 0x1 PUSH1 0xA0 SHL SUB AND PUSH3 0x1808 JUMP JUMPDEST PUSH3 0x25F PUSH1 0x4 DUP1 CALLDATASIZE SUB PUSH1 0x20 DUP2 LT ISZERO PUSH3 0x413 JUMPI PUSH1 0x0 DUP1 REVERT JUMPDEST POP CALLDATALOAD PUSH3 0x1A35 JUMP JUMPDEST PUSH3 0x25F PUSH1 0x4 DUP1 CALLDATASIZE SUB PUSH1 0x20 DUP2 LT ISZERO PUSH3 0x433 JUMPI PUSH1 0x0 DUP1 REVERT JUMPDEST POP CALLDATALOAD PUSH1 0x1 PUSH1 0x1 PUSH1 0xA0 SHL SUB AND PUSH3 0x1A57 JUMP JUMPDEST PUSH3 0x1DB PUSH3 0x1C61 JUMP JUMPDEST PUSH3 0x253 PUSH1 0x4 DUP1 CALLDATASIZE SUB PUSH1 0x20 DUP2 LT ISZERO PUSH3 0x466 JUMPI PUSH1 0x0 DUP1 REVERT JUMPDEST POP CALLDATALOAD PUSH1 0x1 PUSH1 0x1 PUSH1 0xA0 SHL SUB AND PUSH3 0x1C70 JUMP JUMPDEST PUSH1 0x7 SLOAD PUSH1 0x1 PUSH1 0x1 PUSH1 0xA0 SHL SUB AND DUP2 JUMP JUMPDEST PUSH1 0xA SLOAD PUSH1 0x1 PUSH1 0x1 PUSH1 0xA0 SHL SUB AND DUP2 JUMP JUMPDEST PUSH1 0x6 PUSH1 0x20 MSTORE PUSH1 0x0 SWAP1 DUP2 MSTORE PUSH1 0x40 SWAP1 KECCAK256 SLOAD PUSH1 0x1 PUSH1 0x1 PUSH1 0xA0 SHL SUB AND DUP2 JUMP JUMPDEST PUSH3 0x4BA PUSH3 0x1D8B JUMP JUMPDEST PUSH1 0x1 PUSH1 0x1 PUSH1 0xA0 SHL SUB AND PUSH3 0x4CD PUSH3 0x11F6 JUMP JUMPDEST PUSH1 0x1 PUSH1 0x1 PUSH1 0xA0 SHL SUB AND EQ PUSH3 0x529 JUMPI PUSH1 0x40 DUP1 MLOAD PUSH3 0x461BCD PUSH1 0xE5 SHL DUP2 MSTORE PUSH1 0x20 PUSH1 0x4 DUP3 ADD DUP2 SWAP1 MSTORE PUSH1 0x24 DUP3 ADD MSTORE PUSH32 0x4F776E61626C653A2063616C6C6572206973206E6F7420746865206F776E6572 PUSH1 0x44 DUP3 ADD MSTORE SWAP1 MLOAD SWAP1 DUP2 SWAP1 SUB PUSH1 0x64 ADD SWAP1 REVERT JUMPDEST PUSH1 0x1 PUSH1 0x1 PUSH1 0xA0 SHL SUB DUP2 AND PUSH3 0x570 JUMPI PUSH1 0x40 MLOAD PUSH3 0x461BCD PUSH1 0xE5 SHL DUP2 MSTORE PUSH1 0x4 ADD DUP1 DUP1 PUSH1 0x20 ADD DUP3 DUP2 SUB DUP3 MSTORE PUSH1 0x45 DUP2 MSTORE PUSH1 0x20 ADD DUP1 PUSH3 0x3CAA PUSH1 0x45 SWAP2 CODECOPY PUSH1 0x60 ADD SWAP2 POP POP PUSH1 0x40 MLOAD DUP1 SWAP2 SUB SWAP1 REVERT JUMPDEST PUSH1 0x9 DUP1 SLOAD PUSH1 0x1 PUSH1 0x1 PUSH1 0xA0 SHL SUB NOT AND PUSH1 0x1 PUSH1 0x1 PUSH1 0xA0 SHL SUB SWAP3 SWAP1 SWAP3 AND SWAP2 SWAP1 SWAP2 OR SWAP1 SSTORE JUMP JUMPDEST PUSH1 0xB SLOAD DUP2 JUMP JUMPDEST PUSH1 0x0 PUSH3 0x5A7 PUSH1 0x2 DUP4 PUSH3 0x1D8F JUMP JUMPDEST DUP1 PUSH3 0x5BB JUMPI POP PUSH3 0x5BB PUSH1 0x4 DUP4 PUSH3 0x1D8F JUMP JUMPDEST SWAP3 SWAP2 POP POP JUMP JUMPDEST PUSH1 0xC SLOAD PUSH1 0xFF AND ISZERO PUSH3 0x605 JUMPI PUSH1 0x40 MLOAD PUSH3 0x461BCD PUSH1 0xE5 SHL DUP2 MSTORE PUSH1 0x4 ADD DUP1 DUP1 PUSH1 0x20 ADD DUP3 DUP2 SUB DUP3 MSTORE PUSH1 0x61 DUP2 MSTORE PUSH1 0x20 ADD DUP1 PUSH3 0x3FF7 PUSH1 0x61 SWAP2 CODECOPY PUSH1 0x80 ADD SWAP2 POP POP PUSH1 0x40 MLOAD DUP1 SWAP2 SUB SWAP1 REVERT JUMPDEST PUSH1 0x0 PUSH1 0xE SLOAD GT PUSH3 0x648 JUMPI PUSH1 0x40 MLOAD PUSH3 0x461BCD PUSH1 0xE5 SHL DUP2 MSTORE PUSH1 0x4 ADD DUP1 DUP1 PUSH1 0x20 ADD DUP3 DUP2 SUB DUP3 MSTORE PUSH1 0x52 DUP2 MSTORE PUSH1 0x20 ADD DUP1 PUSH3 0x4181 PUSH1 0x52 SWAP2 CODECOPY PUSH1 0x60 ADD SWAP2 POP POP PUSH1 0x40 MLOAD DUP1 SWAP2 SUB SWAP1 REVERT JUMPDEST PUSH1 0x0 PUSH3 0x656 PUSH1 0x4 PUSH3 0x1DAD JUMP JUMPDEST GT ISZERO PUSH3 0x6A6 JUMPI PUSH1 0x9 SLOAD PUSH1 0x1 PUSH1 0x1 PUSH1 0xA0 SHL SUB AND PUSH3 0x6A6 JUMPI PUSH1 0x40 MLOAD PUSH3 0x461BCD PUSH1 0xE5 SHL DUP2 MSTORE PUSH1 0x4 ADD DUP1 DUP1 PUSH1 0x20 ADD DUP3 DUP2 SUB DUP3 MSTORE PUSH1 0x3D DUP2 MSTORE PUSH1 0x20 ADD DUP1 PUSH3 0x3D15 PUSH1 0x3D SWAP2 CODECOPY PUSH1 0x40 ADD SWAP2 POP POP PUSH1 0x40 MLOAD DUP1 SWAP2 SUB SWAP1 REVERT JUMPDEST PUSH1 0xB SLOAD PUSH8 0xFFFFFFFFFFFFFFFF DUP2 GT DUP1 ISZERO PUSH3 0x6C0 JUMPI PUSH1 0x0 DUP1 REVERT JUMPDEST POP PUSH1 0x40 MLOAD SWAP1 DUP1 DUP3 MSTORE DUP1 PUSH1 0x20 MUL PUSH1 0x20 ADD DUP3 ADD PUSH1 0x40 MSTORE DUP1 ISZERO PUSH3 0x6EB JUMPI DUP2 PUSH1 0x20 ADD PUSH1 0x20 DUP3 MUL DUP1 CALLDATASIZE DUP4 CALLDATACOPY ADD SWAP1 POP JUMPDEST POP DUP1 MLOAD PUSH3 0x702 SWAP2 PUSH1 0xD SWAP2 PUSH1 0x20 SWAP1 SWAP2 ADD SWAP1 PUSH3 0x218B JUMP JUMPDEST POP PUSH1 0x0 DUP1 JUMPDEST PUSH3 0x713 PUSH1 0x2 PUSH3 0x1DAD JUMP JUMPDEST DUP2 LT ISZERO PUSH3 0x769 JUMPI PUSH1 0x0 PUSH3 0x734 PUSH3 0x72E PUSH1 0x2 DUP5 PUSH3 0x1DBA JUMP JUMPDEST PUSH3 0x1A57 JUMP JUMPDEST SWAP1 POP DUP1 PUSH1 0xD DUP4 DUP2 SLOAD DUP2 LT PUSH3 0x745 JUMPI INVALID JUMPDEST PUSH1 0x0 SWAP2 DUP3 MSTORE PUSH1 0x20 SWAP1 SWAP2 KECCAK256 ADD SSTORE PUSH3 0x75D DUP4 DUP3 PUSH3 0x1DC8 JUMP JUMPDEST SWAP3 POP POP PUSH1 0x1 ADD PUSH3 0x707 JUMP JUMPDEST POP PUSH1 0x0 PUSH3 0x778 PUSH1 0x4 PUSH3 0x1DAD JUMP JUMPDEST GT ISZERO PUSH3 0x803 JUMPI PUSH1 0x0 PUSH3 0x78B PUSH3 0xA72 JUMP JUMPDEST SWAP1 POP PUSH1 0x0 JUMPDEST PUSH3 0x79C PUSH1 0x4 PUSH3 0x1DAD JUMP JUMPDEST DUP2 LT ISZERO PUSH3 0x800 JUMPI PUSH1 0x0 PUSH3 0x7BE PUSH3 0x7B7 PUSH1 0x4 DUP5 PUSH3 0x1DBA JUMP JUMPDEST DUP5 PUSH3 0xFBF JUMP JUMPDEST SWAP1 POP DUP1 PUSH1 0xD PUSH3 0x7CF PUSH1 0x2 PUSH3 0x1DAD JUMP JUMPDEST DUP5 ADD DUP2 SLOAD DUP2 LT PUSH3 0x7DC JUMPI INVALID JUMPDEST PUSH1 0x0 SWAP2 DUP3 MSTORE PUSH1 0x20 SWAP1 SWAP2 KECCAK256 ADD SSTORE PUSH3 0x7F4 DUP5 DUP3 PUSH3 0x1DC8 JUMP JUMPDEST SWAP4 POP POP PUSH1 0x1 ADD PUSH3 0x790 JUMP JUMPDEST POP POP JUMPDEST PUSH1 0x0 DUP1 JUMPDEST PUSH1 0xD SLOAD DUP2 LT ISZERO PUSH3 0x87A JUMPI PUSH1 0x0 PUSH3 0x84F DUP5 PUSH3 0x848 PUSH1 0xE SLOAD PUSH1 0xD DUP7 DUP2 SLOAD DUP2 LT PUSH3 0x82E JUMPI INVALID JUMPDEST SWAP1 PUSH1 0x0 MSTORE PUSH1 0x20 PUSH1 0x0 KECCAK256 ADD SLOAD PUSH3 0x1E23 SWAP1 SWAP2 SWAP1 PUSH4 0xFFFFFFFF AND JUMP JUMPDEST SWAP1 PUSH3 0x1E81 JUMP JUMPDEST SWAP1 POP DUP1 PUSH1 0xD DUP4 DUP2 SLOAD DUP2 LT PUSH3 0x860 JUMPI INVALID JUMPDEST PUSH1 0x0 SWAP2 DUP3 MSTORE PUSH1 0x20 SWAP1 SWAP2 KECCAK256 ADD SSTORE SWAP2 SWAP1 SWAP2 ADD SWAP1 PUSH1 0x1 ADD PUSH3 0x807 JUMP JUMPDEST POP POP PUSH1 0xC DUP1 SLOAD PUSH1 0xFF NOT AND PUSH1 0x1 OR SWAP1 SSTORE POP JUMP JUMPDEST PUSH1 0xE SLOAD ISZERO PUSH3 0x8CD JUMPI PUSH1 0x40 MLOAD PUSH3 0x461BCD PUSH1 0xE5 SHL DUP2 MSTORE PUSH1 0x4 ADD DUP1 DUP1 PUSH1 0x20 ADD DUP3 DUP2 SUB DUP3 MSTORE PUSH1 0x56 DUP2 MSTORE PUSH1 0x20 ADD DUP1 PUSH3 0x3DFF PUSH1 0x56 SWAP2 CODECOPY PUSH1 0x60 ADD SWAP2 POP POP PUSH1 0x40 MLOAD DUP1 SWAP2 SUB SWAP1 REVERT JUMPDEST PUSH1 0xA PUSH1 0x0 SWAP1 SLOAD SWAP1 PUSH2 0x100 EXP SWAP1 DIV PUSH1 0x1 PUSH1 0x1 PUSH1 0xA0 SHL SUB AND PUSH1 0x1 PUSH1 0x1 PUSH1 0xA0 SHL SUB AND PUSH4 0x4E71D92D PUSH1 0x40 MLOAD DUP2 PUSH4 0xFFFFFFFF AND PUSH1 0xE0 SHL DUP2 MSTORE PUSH1 0x4 ADD PUSH1 0x20 PUSH1 0x40 MLOAD DUP1 DUP4 SUB DUP2 PUSH1 0x0 DUP8 DUP1 EXTCODESIZE ISZERO DUP1 ISZERO PUSH3 0x91E JUMPI PUSH1 0x0 DUP1 REVERT JUMPDEST POP GAS CALL ISZERO DUP1 ISZERO PUSH3 0x933 JUMPI RETURNDATASIZE PUSH1 0x0 DUP1 RETURNDATACOPY RETURNDATASIZE PUSH1 0x0 REVERT JUMPDEST POP POP POP POP PUSH1 0x40 MLOAD RETURNDATASIZE PUSH1 0x20 DUP2 LT ISZERO PUSH3 0x94A JUMPI PUSH1 0x0 DUP1 REVERT JUMPDEST POP MLOAD PUSH1 0xE DUP2 SWAP1 SSTORE PUSH3 0x98E JUMPI PUSH1 0x40 MLOAD PUSH3 0x461BCD PUSH1 0xE5 SHL DUP2 MSTORE PUSH1 0x4 ADD DUP1 DUP1 PUSH1 0x20 ADD DUP3 DUP2 SUB DUP3 MSTORE PUSH1 0x4A DUP2 MSTORE PUSH1 0x20 ADD DUP1 PUSH3 0x4058 PUSH1 0x4A SWAP2 CODECOPY PUSH1 0x60 ADD SWAP2 POP POP PUSH1 0x40 MLOAD DUP1 SWAP2 SUB SWAP1 REVERT JUMPDEST PUSH1 0x8 SLOAD PUSH1 0x40 DUP1 MLOAD PUSH32 0x70A0823100000000000000000000000000000000000000000000000000000000 DUP2 MSTORE ADDRESS PUSH1 0x4 DUP3 ADD MSTORE SWAP1 MLOAD PUSH1 0x0 SWAP3 PUSH1 0x1 PUSH1 0x1 PUSH1 0xA0 SHL SUB AND SWAP2 PUSH4 0x70A08231 SWAP2 PUSH1 0x24 DUP1 DUP4 ADD SWAP3 PUSH1 0x20 SWAP3 SWAP2 SWAP1 DUP3 SWAP1 SUB ADD DUP2 DUP7 DUP1 EXTCODESIZE ISZERO DUP1 ISZERO PUSH3 0x9F3 JUMPI PUSH1 0x0 DUP1 REVERT JUMPDEST POP GAS STATICCALL ISZERO DUP1 ISZERO PUSH3 0xA08 JUMPI RETURNDATASIZE PUSH1 0x0 DUP1 RETURNDATACOPY RETURNDATASIZE PUSH1 0x0 REVERT JUMPDEST POP POP POP POP PUSH1 0x40 MLOAD RETURNDATASIZE PUSH1 0x20 DUP2 LT ISZERO PUSH3 0xA1F JUMPI PUSH1 0x0 DUP1 REVERT JUMPDEST POP MLOAD PUSH1 0xE SLOAD SWAP1 SWAP2 POP DUP2 LT ISZERO PUSH3 0xA67 JUMPI PUSH1 0x40 MLOAD PUSH3 0x461BCD PUSH1 0xE5 SHL DUP2 MSTORE PUSH1 0x4 ADD DUP1 DUP1 PUSH1 0x20 ADD DUP3 DUP2 SUB DUP3 MSTORE PUSH1 0x42 DUP2 MSTORE PUSH1 0x20 ADD DUP1 PUSH3 0x3E55 PUSH1 0x42 SWAP2 CODECOPY PUSH1 0x60 ADD SWAP2 POP POP PUSH1 0x40 MLOAD DUP1 SWAP2 SUB SWAP1 REVERT JUMPDEST PUSH1 0xE SSTORE JUMP JUMPDEST PUSH1 0xE SLOAD DUP2 JUMP JUMPDEST PUSH1 0x9 SLOAD PUSH1 0x0 SWAP1 PUSH1 0x1 PUSH1 0x1 PUSH1 0xA0 SHL SUB AND PUSH3 0xABE JUMPI PUSH1 0x40 MLOAD PUSH3 0x461BCD PUSH1 0xE5 SHL DUP2 MSTORE PUSH1 0x4 ADD DUP1 DUP1 PUSH1 0x20 ADD DUP3 DUP2 SUB DUP3 MSTORE PUSH1 0x3B DUP2 MSTORE PUSH1 0x20 ADD DUP1 PUSH3 0x4226 PUSH1 0x3B SWAP2 CODECOPY PUSH1 0x40 ADD SWAP2 POP POP PUSH1 0x40 MLOAD DUP1 SWAP2 SUB SWAP1 REVERT JUMPDEST PUSH1 0x0 DUP1 PUSH1 0x9 PUSH1 0x0 SWAP1 SLOAD SWAP1 PUSH2 0x100 EXP SWAP1 DIV PUSH1 0x1 PUSH1 0x1 PUSH1 0xA0 SHL SUB AND PUSH1 0x1 PUSH1 0x1 PUSH1 0xA0 SHL SUB AND PUSH4 0x902F1AC PUSH1 0x40 MLOAD DUP2 PUSH4 0xFFFFFFFF AND PUSH1 0xE0 SHL DUP2 MSTORE PUSH1 0x4 ADD PUSH1 0x60 PUSH1 0x40 MLOAD DUP1 DUP4 SUB DUP2 DUP7 DUP1 EXTCODESIZE ISZERO DUP1 ISZERO PUSH3 0xB10 JUMPI PUSH1 0x0 DUP1 REVERT JUMPDEST POP GAS STATICCALL ISZERO DUP1 ISZERO PUSH3 0xB25 JUMPI RETURNDATASIZE PUSH1 0x0 DUP1 RETURNDATACOPY RETURNDATASIZE PUSH1 0x0 REVERT JUMPDEST POP POP POP POP PUSH1 0x40 MLOAD RETURNDATASIZE PUSH1 0x60 DUP2 LT ISZERO PUSH3 0xB3C JUMPI PUSH1 0x0 DUP1 REVERT JUMPDEST POP DUP1 MLOAD PUSH1 0x20 SWAP2 DUP3 ADD MLOAD PUSH1 0x7 SLOAD PUSH1 0x9 SLOAD PUSH1 0x40 DUP1 MLOAD PUSH4 0xDFE1681 PUSH1 0xE0 SHL DUP2 MSTORE SWAP1 MLOAD PUSH14 0xFFFFFFFFFFFFFFFFFFFFFFFFFFFF SWAP6 DUP7 AND SWAP9 POP SWAP5 SWAP1 SWAP4 AND SWAP6 POP PUSH1 0x1 PUSH1 0x1 PUSH1 0xA0 SHL SUB SWAP2 DUP3 AND SWAP5 SWAP2 AND SWAP3 PUSH4 0xDFE1681 SWAP3 PUSH1 0x4 DUP1 DUP3 ADD SWAP4 SWAP3 SWAP2 DUP3 SWAP1 SUB ADD DUP2 DUP7 DUP1 EXTCODESIZE ISZERO DUP1 ISZERO PUSH3 0xBA7 JUMPI PUSH1 0x0 DUP1 REVERT JUMPDEST POP GAS STATICCALL ISZERO DUP1 ISZERO PUSH3 0xBBC JUMPI RETURNDATASIZE PUSH1 0x0 DUP1 RETURNDATACOPY RETURNDATASIZE PUSH1 0x0 REVERT JUMPDEST POP POP POP POP PUSH1 0x40 MLOAD RETURNDATASIZE PUSH1 0x20 DUP2 LT ISZERO PUSH3 0xBD3 JUMPI PUSH1 0x0 DUP1 REVERT JUMPDEST POP MLOAD PUSH1 0x1 PUSH1 0x1 PUSH1 0xA0 SHL SUB AND EQ ISZERO PUSH3 0xBF9 JUMPI PUSH3 0xBF1 DUP2 DUP4 PUSH3 0x1EEA JUMP JUMPDEST SWAP3 POP PUSH3 0xC08 JUMP JUMPDEST PUSH3 0xC05 DUP3 DUP3 PUSH3 0x1EEA JUMP JUMPDEST SWAP3 POP JUMPDEST POP POP SWAP1 JUMP JUMPDEST PUSH1 0x0 PUSH3 0x5BB PUSH1 0x4 DUP4 PUSH3 0x1D8F JUMP JUMPDEST PUSH3 0xC26 PUSH3 0x1D8B JUMP JUMPDEST PUSH1 0x1 PUSH1 0x1 PUSH1 0xA0 SHL SUB AND PUSH3 0xC39 PUSH3 0x11F6 JUMP JUMPDEST PUSH1 0x1 PUSH1 0x1 PUSH1 0xA0 SHL SUB AND EQ PUSH3 0xC95 JUMPI PUSH1 0x40 DUP1 MLOAD PUSH3 0x461BCD PUSH1 0xE5 SHL DUP2 MSTORE PUSH1 0x20 PUSH1 0x4 DUP3 ADD DUP2 SWAP1 MSTORE PUSH1 0x24 DUP3 ADD MSTORE PUSH32 0x4F776E61626C653A2063616C6C6572206973206E6F7420746865206F776E6572 PUSH1 0x44 DUP3 ADD MSTORE SWAP1 MLOAD SWAP1 DUP2 SWAP1 SUB PUSH1 0x64 ADD SWAP1 REVERT JUMPDEST PUSH1 0x0 DUP1 SLOAD PUSH1 0x40 MLOAD PUSH1 0x1 PUSH1 0x1 PUSH1 0xA0 SHL SUB SWAP1 SWAP2 AND SWAP1 PUSH32 0x8BE0079C531659141344CD1FD0A4F28419497F9722A3DAAFE3B4186F6B6457E0 SWAP1 DUP4 SWAP1 LOG3 PUSH1 0x0 DUP1 SLOAD PUSH1 0x1 PUSH1 0x1 PUSH1 0xA0 SHL SUB NOT AND SWAP1 SSTORE JUMP JUMPDEST PUSH1 0x2 PUSH1 0x1 SLOAD EQ ISZERO PUSH3 0xD38 JUMPI PUSH1 0x40 DUP1 MLOAD PUSH3 0x461BCD PUSH1 0xE5 SHL DUP2 MSTORE PUSH1 0x20 PUSH1 0x4 DUP3 ADD MSTORE PUSH1 0x1F PUSH1 0x24 DUP3 ADD MSTORE PUSH32 0x5265656E7472616E637947756172643A207265656E7472616E742063616C6C00 PUSH1 0x44 DUP3 ADD MSTORE SWAP1 MLOAD SWAP1 DUP2 SWAP1 SUB PUSH1 0x64 ADD SWAP1 REVERT JUMPDEST PUSH1 0x2 PUSH1 0x1 SSTORE PUSH1 0xC SLOAD PUSH1 0xFF AND PUSH3 0xD80 JUMPI PUSH1 0x40 MLOAD PUSH3 0x461BCD PUSH1 0xE5 SHL DUP2 MSTORE PUSH1 0x4 ADD DUP1 DUP1 PUSH1 0x20 ADD DUP3 DUP2 SUB DUP3 MSTORE PUSH1 0x69 DUP2 MSTORE PUSH1 0x20 ADD DUP1 PUSH3 0x3D96 PUSH1 0x69 SWAP2 CODECOPY PUSH1 0x80 ADD SWAP2 POP POP PUSH1 0x40 MLOAD DUP1 SWAP2 SUB SWAP1 REVERT JUMPDEST PUSH1 0xB SLOAD DUP2 LT PUSH3 0xDC2 JUMPI PUSH1 0x40 MLOAD PUSH3 0x461BCD PUSH1 0xE5 SHL DUP2 MSTORE PUSH1 0x4 ADD DUP1 DUP1 PUSH1 0x20 ADD DUP3 DUP2 SUB DUP3 MSTORE PUSH1 0x45 DUP2 MSTORE PUSH1 0x20 ADD DUP1 PUSH3 0x3F49 PUSH1 0x45 SWAP2 CODECOPY PUSH1 0x60 ADD SWAP2 POP POP PUSH1 0x40 MLOAD DUP1 SWAP2 SUB SWAP1 REVERT JUMPDEST PUSH1 0x0 PUSH3 0xDD0 PUSH1 0x2 PUSH3 0x1DAD JUMP JUMPDEST DUP3 LT ISZERO PUSH3 0xE0E JUMPI PUSH1 0x6 PUSH1 0x0 PUSH3 0xDE9 PUSH1 0x2 DUP6 PUSH3 0x1DBA JUMP JUMPDEST PUSH1 0x1 PUSH1 0x1 PUSH1 0xA0 SHL SUB SWAP1 DUP2 AND DUP3 MSTORE PUSH1 0x20 DUP3 ADD SWAP3 SWAP1 SWAP3 MSTORE PUSH1 0x40 ADD PUSH1 0x0 KECCAK256 SLOAD AND SWAP1 POP PUSH3 0xE4D JUMP JUMPDEST PUSH1 0x6 PUSH1 0x0 PUSH3 0xE2D PUSH3 0xE22 PUSH1 0x2 PUSH3 0x1DAD JUMP JUMPDEST PUSH1 0x4 SWAP1 DUP7 SUB PUSH3 0x1DBA JUMP JUMPDEST PUSH1 0x1 PUSH1 0x1 PUSH1 0xA0 SHL SUB SWAP1 DUP2 AND DUP3 MSTORE PUSH1 0x20 DUP3 ADD SWAP3 SWAP1 SWAP3 MSTORE PUSH1 0x40 ADD PUSH1 0x0 KECCAK256 SLOAD AND SWAP1 POP JUMPDEST PUSH1 0x0 PUSH1 0xD DUP4 DUP2 SLOAD DUP2 LT PUSH3 0xE5D JUMPI INVALID JUMPDEST SWAP1 PUSH1 0x0 MSTORE PUSH1 0x20 PUSH1 0x0 KECCAK256 ADD SLOAD SWAP1 POP PUSH1 0x0 DUP2 GT ISZERO PUSH3 0xFB6 JUMPI PUSH1 0x0 PUSH1 0xD DUP5 DUP2 SLOAD DUP2 LT PUSH3 0xE84 JUMPI INVALID JUMPDEST PUSH1 0x0 SWAP2 DUP3 MSTORE PUSH1 0x20 DUP1 DUP4 KECCAK256 SWAP1 SWAP2 ADD SWAP3 SWAP1 SWAP3 SSTORE PUSH1 0x8 SLOAD PUSH1 0x40 DUP1 MLOAD PUSH4 0xA9059CBB PUSH1 0xE0 SHL DUP2 MSTORE PUSH1 0x1 PUSH1 0x1 PUSH1 0xA0 SHL SUB DUP8 DUP2 AND PUSH1 0x4 DUP4 ADD MSTORE PUSH1 0x24 DUP3 ADD DUP8 SWAP1 MSTORE SWAP2 MLOAD SWAP2 SWAP1 SWAP3 AND SWAP4 PUSH4 0xA9059CBB SWAP4 PUSH1 0x44 DUP1 DUP6 ADD SWAP5 SWAP3 SWAP4 SWAP3 DUP4 SWAP1 SUB ADD SWAP1 DUP3 SWAP1 DUP8 DUP1 EXTCODESIZE ISZERO DUP1 ISZERO PUSH3 0xEEA JUMPI PUSH1 0x0 DUP1 REVERT JUMPDEST POP GAS CALL ISZERO DUP1 ISZERO PUSH3 0xEFF JUMPI RETURNDATASIZE PUSH1 0x0 DUP1 RETURNDATACOPY RETURNDATASIZE PUSH1 0x0 REVERT JUMPDEST POP POP POP POP PUSH1 0x40 MLOAD RETURNDATASIZE PUSH1 0x20 DUP2 LT ISZERO PUSH3 0xF16 JUMPI PUSH1 0x0 DUP1 REVERT JUMPDEST POP MLOAD PUSH3 0xF55 JUMPI PUSH1 0x40 MLOAD PUSH3 0x461BCD PUSH1 0xE5 SHL DUP2 MSTORE PUSH1 0x4 ADD DUP1 DUP1 PUSH1 0x20 ADD DUP3 DUP2 SUB DUP3 MSTORE PUSH1 0x37 DUP2 MSTORE PUSH1 0x20 ADD DUP1 PUSH3 0x40A2 PUSH1 0x37 SWAP2 CODECOPY PUSH1 0x40 ADD SWAP2 POP POP PUSH1 0x40 MLOAD DUP1 SWAP2 SUB SWAP1 REVERT JUMPDEST DUP2 PUSH1 0x1 PUSH1 0x1 PUSH1 0xA0 SHL SUB AND PUSH4 0x3C6B16AB DUP3 PUSH1 0x40 MLOAD DUP3 PUSH4 0xFFFFFFFF AND PUSH1 0xE0 SHL DUP2 MSTORE PUSH1 0x4 ADD DUP1 DUP3 DUP2 MSTORE PUSH1 0x20 ADD SWAP2 POP POP PUSH1 0x0 PUSH1 0x40 MLOAD DUP1 DUP4 SUB DUP2 PUSH1 0x0 DUP8 DUP1 EXTCODESIZE ISZERO DUP1 ISZERO PUSH3 0xF9C JUMPI PUSH1 0x0 DUP1 REVERT JUMPDEST POP GAS CALL ISZERO DUP1 ISZERO PUSH3 0xFB1 JUMPI RETURNDATASIZE PUSH1 0x0 DUP1 RETURNDATACOPY RETURNDATASIZE PUSH1 0x0 REVERT JUMPDEST POP POP POP POP JUMPDEST POP POP PUSH1 0x1 DUP1 SSTORE POP JUMP JUMPDEST PUSH1 0x0 DUP1 PUSH1 0x0 DUP5 PUSH1 0x1 PUSH1 0x1 PUSH1 0xA0 SHL SUB AND PUSH4 0x902F1AC PUSH1 0x40 MLOAD DUP2 PUSH4 0xFFFFFFFF AND PUSH1 0xE0 SHL DUP2 MSTORE PUSH1 0x4 ADD PUSH1 0x60 PUSH1 0x40 MLOAD DUP1 DUP4 SUB DUP2 DUP7 DUP1 EXTCODESIZE ISZERO DUP1 ISZERO PUSH3 0xFFE JUMPI PUSH1 0x0 DUP1 REVERT JUMPDEST POP GAS STATICCALL ISZERO DUP1 ISZERO PUSH3 0x1013 JUMPI RETURNDATASIZE PUSH1 0x0 DUP1 RETURNDATACOPY RETURNDATASIZE PUSH1 0x0 REVERT JUMPDEST POP POP POP POP PUSH1 0x40 MLOAD RETURNDATASIZE PUSH1 0x60 DUP2 LT ISZERO PUSH3 0x102A JUMPI PUSH1 0x0 DUP1 REVERT JUMPDEST POP DUP1 MLOAD PUSH1 0x20 SWAP2 DUP3 ADD MLOAD PUSH1 0x8 SLOAD PUSH1 0x40 DUP1 MLOAD PUSH4 0xDFE1681 PUSH1 0xE0 SHL DUP2 MSTORE SWAP1 MLOAD PUSH14 0xFFFFFFFFFFFFFFFFFFFFFFFFFFFF SWAP5 DUP6 AND SWAP8 POP SWAP4 SWAP1 SWAP3 AND SWAP5 POP PUSH1 0x0 SWAP4 PUSH1 0x1 PUSH1 0x1 PUSH1 0xA0 SHL SUB SWAP2 DUP3 AND SWAP4 SWAP2 DUP11 AND SWAP3 PUSH4 0xDFE1681 SWAP3 PUSH1 0x4 DUP1 DUP4 ADD SWAP4 SWAP3 DUP3 SWAP1 SUB ADD DUP2 DUP7 DUP1 EXTCODESIZE ISZERO DUP1 ISZERO PUSH3 0x1095 JUMPI PUSH1 0x0 DUP1 REVERT JUMPDEST POP GAS STATICCALL ISZERO DUP1 ISZERO PUSH3 0x10AA JUMPI RETURNDATASIZE PUSH1 0x0 DUP1 RETURNDATACOPY RETURNDATASIZE PUSH1 0x0 REVERT JUMPDEST POP POP POP POP PUSH1 0x40 MLOAD RETURNDATASIZE PUSH1 0x20 DUP2 LT ISZERO PUSH3 0x10C1 JUMPI PUSH1 0x0 DUP1 REVERT JUMPDEST POP MLOAD PUSH1 0x1 PUSH1 0x1 PUSH1 0xA0 SHL SUB AND EQ ISZERO PUSH3 0x10E7 JUMPI PUSH3 0x10DF DUP2 DUP5 PUSH3 0x1DC8 JUMP JUMPDEST SWAP1 POP PUSH3 0x11B3 JUMP JUMPDEST PUSH1 0x8 SLOAD PUSH1 0x40 DUP1 MLOAD PUSH4 0xD21220A7 PUSH1 0xE0 SHL DUP2 MSTORE SWAP1 MLOAD PUSH1 0x1 PUSH1 0x1 PUSH1 0xA0 SHL SUB SWAP3 DUP4 AND SWAP3 DUP10 AND SWAP2 PUSH4 0xD21220A7 SWAP2 PUSH1 0x4 DUP1 DUP4 ADD SWAP3 PUSH1 0x20 SWAP3 SWAP2 SWAP1 DUP3 SWAP1 SUB ADD DUP2 DUP7 DUP1 EXTCODESIZE ISZERO DUP1 ISZERO PUSH3 0x112F JUMPI PUSH1 0x0 DUP1 REVERT JUMPDEST POP GAS STATICCALL ISZERO DUP1 ISZERO PUSH3 0x1144 JUMPI RETURNDATASIZE PUSH1 0x0 DUP1 RETURNDATACOPY RETURNDATASIZE PUSH1 0x0 REVERT JUMPDEST POP POP POP POP PUSH1 0x40 MLOAD RETURNDATASIZE PUSH1 0x20 DUP2 LT ISZERO PUSH3 0x115B JUMPI PUSH1 0x0 DUP1 REVERT JUMPDEST POP MLOAD PUSH1 0x1 PUSH1 0x1 PUSH1 0xA0 SHL SUB AND EQ PUSH3 0x11A4 JUMPI PUSH1 0x40 MLOAD PUSH3 0x461BCD PUSH1 0xE5 SHL DUP2 MSTORE PUSH1 0x4 ADD DUP1 DUP1 PUSH1 0x20 ADD DUP3 DUP2 SUB DUP3 MSTORE PUSH1 0x50 DUP2 MSTORE PUSH1 0x20 ADD DUP1 PUSH3 0x3EF9 PUSH1 0x50 SWAP2 CODECOPY PUSH1 0x60 ADD SWAP2 POP POP PUSH1 0x40 MLOAD DUP1 SWAP2 SUB SWAP1 REVERT JUMPDEST PUSH3 0x11B0 DUP2 DUP4 PUSH3 0x1DC8 JUMP JUMPDEST SWAP1 POP JUMPDEST PUSH8 0xDE0B6B3A7640000 PUSH3 0x11CD DUP2 PUSH3 0x848 DUP5 DUP10 PUSH3 0x1E23 JUMP JUMPDEST SWAP2 POP PUSH3 0x11DC DUP3 PUSH1 0x2 PUSH3 0x1E23 JUMP JUMPDEST SWAP8 SWAP7 POP POP POP POP POP POP POP JUMP JUMPDEST PUSH1 0x0 PUSH3 0x5BB PUSH1 0x2 DUP4 PUSH3 0x1D8F JUMP JUMPDEST PUSH1 0x0 SLOAD PUSH1 0x1 PUSH1 0x1 PUSH1 0xA0 SHL SUB AND SWAP1 JUMP JUMPDEST PUSH3 0x120F PUSH3 0x1D8B JUMP JUMPDEST PUSH1 0x1 PUSH1 0x1 PUSH1 0xA0 SHL SUB AND PUSH3 0x1222 PUSH3 0x11F6 JUMP JUMPDEST PUSH1 0x1 PUSH1 0x1 PUSH1 0xA0 SHL SUB AND EQ PUSH3 0x127E JUMPI PUSH1 0x40 DUP1 MLOAD PUSH3 0x461BCD PUSH1 0xE5 SHL DUP2 MSTORE PUSH1 0x20 PUSH1 0x4 DUP3 ADD DUP2 SWAP1 MSTORE PUSH1 0x24 DUP3 ADD MSTORE PUSH32 0x4F776E61626C653A2063616C6C6572206973206E6F7420746865206F776E6572 PUSH1 0x44 DUP3 ADD MSTORE SWAP1 MLOAD SWAP1 DUP2 SWAP1 SUB PUSH1 0x64 ADD SWAP1 REVERT JUMPDEST PUSH1 0x1 PUSH1 0x1 PUSH1 0xA0 SHL SUB DUP2 AND PUSH3 0x12C5 JUMPI PUSH1 0x40 MLOAD PUSH3 0x461BCD PUSH1 0xE5 SHL DUP2 MSTORE PUSH1 0x4 ADD DUP1 DUP1 PUSH1 0x20 ADD DUP3 DUP2 SUB DUP3 MSTORE PUSH1 0x49 DUP2 MSTORE PUSH1 0x20 ADD DUP1 PUSH3 0x4138 PUSH1 0x49 SWAP2 CODECOPY PUSH1 0x60 ADD SWAP2 POP POP PUSH1 0x40 MLOAD DUP1 SWAP2 SUB SWAP1 REVERT JUMPDEST PUSH3 0x12D0 DUP2 PUSH3 0x598 JUMP JUMPDEST ISZERO PUSH3 0x130E JUMPI PUSH1 0x40 MLOAD PUSH3 0x461BCD PUSH1 0xE5 SHL DUP2 MSTORE PUSH1 0x4 ADD DUP1 DUP1 PUSH1 0x20 ADD DUP3 DUP2 SUB DUP3 MSTORE PUSH1 0x42 DUP2 MSTORE PUSH1 0x20 ADD DUP1 PUSH3 0x3FB5 PUSH1 0x42 SWAP2 CODECOPY PUSH1 0x60 ADD SWAP2 POP POP PUSH1 0x40 MLOAD DUP1 SWAP2 SUB SWAP1 REVERT JUMPDEST PUSH1 0x0 DUP2 PUSH1 0x1 PUSH1 0x1 PUSH1 0xA0 SHL SUB AND PUSH4 0xDFE1681 PUSH1 0x40 MLOAD DUP2 PUSH4 0xFFFFFFFF AND PUSH1 0xE0 SHL DUP2 MSTORE PUSH1 0x4 ADD PUSH1 0x20 PUSH1 0x40 MLOAD DUP1 DUP4 SUB DUP2 DUP7 DUP1 EXTCODESIZE ISZERO DUP1 ISZERO PUSH3 0x134A JUMPI PUSH1 0x0 DUP1 REVERT JUMPDEST POP GAS STATICCALL ISZERO DUP1 ISZERO PUSH3 0x135F JUMPI RETURNDATASIZE PUSH1 0x0 DUP1 RETURNDATACOPY RETURNDATASIZE PUSH1 0x0 REVERT JUMPDEST POP POP POP POP PUSH1 0x40 MLOAD RETURNDATASIZE PUSH1 0x20 DUP2 LT ISZERO PUSH3 0x1376 JUMPI PUSH1 0x0 DUP1 REVERT JUMPDEST POP MLOAD PUSH1 0x40 DUP1 MLOAD PUSH4 0xD21220A7 PUSH1 0xE0 SHL DUP2 MSTORE SWAP1 MLOAD SWAP2 SWAP3 POP PUSH1 0x0 SWAP2 PUSH1 0x1 PUSH1 0x1 PUSH1 0xA0 SHL SUB DUP6 AND SWAP2 PUSH4 0xD21220A7 SWAP2 PUSH1 0x4 DUP1 DUP4 ADD SWAP3 PUSH1 0x20 SWAP3 SWAP2 SWAP1 DUP3 SWAP1 SUB ADD DUP2 DUP7 DUP1 EXTCODESIZE ISZERO DUP1 ISZERO PUSH3 0x13BF JUMPI PUSH1 0x0 DUP1 REVERT JUMPDEST POP GAS STATICCALL ISZERO DUP1 ISZERO PUSH3 0x13D4 JUMPI RETURNDATASIZE PUSH1 0x0 DUP1 RETURNDATACOPY RETURNDATASIZE PUSH1 0x0 REVERT JUMPDEST POP POP POP POP PUSH1 0x40 MLOAD RETURNDATASIZE PUSH1 0x20 DUP2 LT ISZERO PUSH3 0x13EB JUMPI PUSH1 0x0 DUP1 REVERT JUMPDEST POP MLOAD PUSH1 0x8 SLOAD PUSH1 0x40 MLOAD SWAP2 SWAP3 POP PUSH1 0x0 SWAP2 PUSH1 0x1 PUSH1 0x1 PUSH1 0xA0 SHL SUB SWAP1 SWAP2 AND SWAP1 DUP6 SWAP1 PUSH3 0x1412 SWAP1 PUSH3 0x21DB JUMP JUMPDEST PUSH1 0x1 PUSH1 0x1 PUSH1 0xA0 SHL SUB SWAP3 DUP4 AND DUP2 MSTORE SWAP2 AND PUSH1 0x20 DUP3 ADD MSTORE PUSH1 0x40 DUP1 MLOAD SWAP2 DUP3 SWAP1 SUB ADD SWAP1 PUSH1 0x0 CREATE DUP1 ISZERO DUP1 ISZERO PUSH3 0x1446 JUMPI RETURNDATASIZE PUSH1 0x0 DUP1 RETURNDATACOPY RETURNDATASIZE PUSH1 0x0 REVERT JUMPDEST POP PUSH1 0x1 PUSH1 0x1 PUSH1 0xA0 SHL SUB DUP6 DUP2 AND PUSH1 0x0 SWAP1 DUP2 MSTORE PUSH1 0x6 PUSH1 0x20 MSTORE PUSH1 0x40 SWAP1 KECCAK256 DUP1 SLOAD PUSH1 0x1 PUSH1 0x1 PUSH1 0xA0 SHL SUB NOT AND DUP4 DUP4 AND OR SWAP1 SSTORE PUSH1 0x7 SLOAD SWAP2 SWAP3 POP SWAP1 DUP2 AND SWAP1 DUP5 AND EQ DUP1 PUSH3 0x1498 JUMPI POP PUSH1 0x7 SLOAD PUSH1 0x1 PUSH1 0x1 PUSH1 0xA0 SHL SUB DUP4 DUP2 AND SWAP2 AND EQ JUMPDEST ISZERO PUSH3 0x14B2 JUMPI PUSH3 0x14AB PUSH1 0x2 DUP6 PUSH3 0x1F61 JUMP JUMPDEST POP PUSH3 0x1527 JUMP JUMPDEST PUSH1 0x8 SLOAD PUSH1 0x1 PUSH1 0x1 PUSH1 0xA0 SHL SUB DUP5 DUP2 AND SWAP2 AND EQ DUP1 PUSH3 0x14DC JUMPI POP PUSH1 0x8 SLOAD PUSH1 0x1 PUSH1 0x1 PUSH1 0xA0 SHL SUB DUP4 DUP2 AND SWAP2 AND EQ JUMPDEST ISZERO PUSH3 0x14EF JUMPI PUSH3 0x14AB PUSH1 0x4 DUP6 PUSH3 0x1F61 JUMP JUMPDEST PUSH1 0x40 MLOAD PUSH3 0x461BCD PUSH1 0xE5 SHL DUP2 MSTORE PUSH1 0x4 ADD DUP1 DUP1 PUSH1 0x20 ADD DUP3 DUP2 SUB DUP3 MSTORE PUSH1 0x44 DUP2 MSTORE PUSH1 0x20 ADD DUP1 PUSH3 0x3D52 PUSH1 0x44 SWAP2 CODECOPY PUSH1 0x60 ADD SWAP2 POP POP PUSH1 0x40 MLOAD DUP1 SWAP2 SUB SWAP1 REVERT JUMPDEST PUSH1 0xB SLOAD PUSH3 0x1537 SWAP1 PUSH1 0x1 PUSH3 0x1DC8 JUMP JUMPDEST PUSH1 0xB SSTORE POP POP POP POP JUMP JUMPDEST PUSH3 0x154A PUSH3 0x5C1 JUMP JUMPDEST PUSH3 0x1554 PUSH3 0x1565 JUMP JUMPDEST JUMP JUMPDEST PUSH1 0x8 SLOAD PUSH1 0x1 PUSH1 0x1 PUSH1 0xA0 SHL SUB AND DUP2 JUMP JUMPDEST PUSH1 0x2 PUSH1 0x1 SLOAD EQ ISZERO PUSH3 0x15BE JUMPI PUSH1 0x40 DUP1 MLOAD PUSH3 0x461BCD PUSH1 0xE5 SHL DUP2 MSTORE PUSH1 0x20 PUSH1 0x4 DUP3 ADD MSTORE PUSH1 0x1F PUSH1 0x24 DUP3 ADD MSTORE PUSH32 0x5265656E7472616E637947756172643A207265656E7472616E742063616C6C00 PUSH1 0x44 DUP3 ADD MSTORE SWAP1 MLOAD SWAP1 DUP2 SWAP1 SUB PUSH1 0x64 ADD SWAP1 REVERT JUMPDEST PUSH1 0x2 PUSH1 0x1 SSTORE PUSH1 0xC SLOAD PUSH1 0xFF AND PUSH3 0x1606 JUMPI PUSH1 0x40 MLOAD PUSH3 0x461BCD PUSH1 0xE5 SHL DUP2 MSTORE PUSH1 0x4 ADD DUP1 DUP1 PUSH1 0x20 ADD DUP3 DUP2 SUB DUP3 MSTORE PUSH1 0x5F DUP2 MSTORE PUSH1 0x20 ADD DUP1 PUSH3 0x40D9 PUSH1 0x5F SWAP2 CODECOPY PUSH1 0x60 ADD SWAP2 POP POP PUSH1 0x40 MLOAD DUP1 SWAP2 SUB SWAP1 REVERT JUMPDEST PUSH1 0xC DUP1 SLOAD PUSH1 0xFF NOT AND SWAP1 SSTORE PUSH1 0x0 DUP1 DUP1 JUMPDEST PUSH1 0xD SLOAD DUP2 LT ISZERO PUSH3 0x17FA JUMPI PUSH3 0x162C PUSH1 0x2 PUSH3 0x1DAD JUMP JUMPDEST DUP2 LT ISZERO PUSH3 0x166A JUMPI PUSH1 0x6 PUSH1 0x0 PUSH3 0x1645 PUSH1 0x2 DUP5 PUSH3 0x1DBA JUMP JUMPDEST PUSH1 0x1 PUSH1 0x1 PUSH1 0xA0 SHL SUB SWAP1 DUP2 AND DUP3 MSTORE PUSH1 0x20 DUP3 ADD SWAP3 SWAP1 SWAP3 MSTORE PUSH1 0x40 ADD PUSH1 0x0 KECCAK256 SLOAD AND SWAP3 POP PUSH3 0x16A9 JUMP JUMPDEST PUSH1 0x6 PUSH1 0x0 PUSH3 0x1689 PUSH3 0x167E PUSH1 0x2 PUSH3 0x1DAD JUMP JUMPDEST PUSH1 0x4 SWAP1 DUP6 SUB PUSH3 0x1DBA JUMP JUMPDEST PUSH1 0x1 PUSH1 0x1 PUSH1 0xA0 SHL SUB SWAP1 DUP2 AND DUP3 MSTORE PUSH1 0x20 DUP3 ADD SWAP3 SWAP1 SWAP3 MSTORE PUSH1 0x40 ADD PUSH1 0x0 KECCAK256 SLOAD AND SWAP3 POP JUMPDEST PUSH1 0xD DUP2 DUP2 SLOAD DUP2 LT PUSH3 0x16B7 JUMPI INVALID JUMPDEST SWAP1 PUSH1 0x0 MSTORE PUSH1 0x20 PUSH1 0x0 KECCAK256 ADD SLOAD SWAP2 POP PUSH1 0x0 DUP3 GT ISZERO PUSH3 0x17F1 JUMPI PUSH1 0x8 SLOAD PUSH1 0x40 DUP1 MLOAD PUSH4 0xA9059CBB PUSH1 0xE0 SHL DUP2 MSTORE PUSH1 0x1 PUSH1 0x1 PUSH1 0xA0 SHL SUB DUP7 DUP2 AND PUSH1 0x4 DUP4 ADD MSTORE PUSH1 0x24 DUP3 ADD DUP7 SWAP1 MSTORE SWAP2 MLOAD SWAP2 SWAP1 SWAP3 AND SWAP2 PUSH4 0xA9059CBB SWAP2 PUSH1 0x44 DUP1 DUP4 ADD SWAP3 PUSH1 0x20 SWAP3 SWAP2 SWAP1 DUP3 SWAP1 SUB ADD DUP2 PUSH1 0x0 DUP8 DUP1 EXTCODESIZE ISZERO DUP1 ISZERO PUSH3 0x1725 JUMPI PUSH1 0x0 DUP1 REVERT JUMPDEST POP GAS CALL ISZERO DUP1 ISZERO PUSH3 0x173A JUMPI RETURNDATASIZE PUSH1 0x0 DUP1 RETURNDATACOPY RETURNDATASIZE PUSH1 0x0 REVERT JUMPDEST POP POP POP POP PUSH1 0x40 MLOAD RETURNDATASIZE PUSH1 0x20 DUP2 LT ISZERO PUSH3 0x1751 JUMPI PUSH1 0x0 DUP1 REVERT JUMPDEST POP MLOAD PUSH3 0x1790 JUMPI PUSH1 0x40 MLOAD PUSH3 0x461BCD PUSH1 0xE5 SHL DUP2 MSTORE PUSH1 0x4 ADD DUP1 DUP1 PUSH1 0x20 ADD DUP3 DUP2 SUB DUP3 MSTORE PUSH1 0x37 DUP2 MSTORE PUSH1 0x20 ADD DUP1 PUSH3 0x40A2 PUSH1 0x37 SWAP2 CODECOPY PUSH1 0x40 ADD SWAP2 POP POP PUSH1 0x40 MLOAD DUP1 SWAP2 SUB SWAP1 REVERT JUMPDEST DUP3 PUSH1 0x1 PUSH1 0x1 PUSH1 0xA0 SHL SUB AND PUSH4 0x3C6B16AB DUP4 PUSH1 0x40 MLOAD DUP3 PUSH4 0xFFFFFFFF AND PUSH1 0xE0 SHL DUP2 MSTORE PUSH1 0x4 ADD DUP1 DUP3 DUP2 MSTORE PUSH1 0x20 ADD SWAP2 POP POP PUSH1 0x0 PUSH1 0x40 MLOAD DUP1 DUP4 SUB DUP2 PUSH1 0x0 DUP8 DUP1 EXTCODESIZE ISZERO DUP1 ISZERO PUSH3 0x17D7 JUMPI PUSH1 0x0 DUP1 REVERT JUMPDEST POP GAS CALL ISZERO DUP1 ISZERO PUSH3 0x17EC JUMPI RETURNDATASIZE PUSH1 0x0 DUP1 RETURNDATACOPY RETURNDATASIZE PUSH1 0x0 REVERT JUMPDEST POP POP POP POP JUMPDEST PUSH1 0x1 ADD PUSH3 0x1615 JUMP JUMPDEST POP POP PUSH1 0x0 PUSH1 0xE SSTORE POP PUSH1 0x1 DUP1 SSTORE JUMP JUMPDEST PUSH3 0x1812 PUSH3 0x1D8B JUMP JUMPDEST PUSH1 0x1 PUSH1 0x1 PUSH1 0xA0 SHL SUB AND PUSH3 0x1825 PUSH3 0x11F6 JUMP JUMPDEST PUSH1 0x1 PUSH1 0x1 PUSH1 0xA0 SHL SUB AND EQ PUSH3 0x1881 JUMPI PUSH1 0x40 DUP1 MLOAD PUSH3 0x461BCD PUSH1 0xE5 SHL DUP2 MSTORE PUSH1 0x20 PUSH1 0x4 DUP3 ADD DUP2 SWAP1 MSTORE PUSH1 0x24 DUP3 ADD MSTORE PUSH32 0x4F776E61626C653A2063616C6C6572206973206E6F7420746865206F776E6572 PUSH1 0x44 DUP3 ADD MSTORE SWAP1 MLOAD SWAP1 DUP2 SWAP1 SUB PUSH1 0x64 ADD SWAP1 REVERT JUMPDEST PUSH3 0x188C DUP2 PUSH3 0x598 JUMP JUMPDEST PUSH3 0x18C9 JUMPI PUSH1 0x40 MLOAD PUSH3 0x461BCD PUSH1 0xE5 SHL DUP2 MSTORE PUSH1 0x4 ADD DUP1 DUP1 PUSH1 0x20 ADD DUP3 DUP2 SUB DUP3 MSTORE PUSH1 0x41 DUP2 MSTORE PUSH1 0x20 ADD DUP1 PUSH3 0x3E97 PUSH1 0x41 SWAP2 CODECOPY PUSH1 0x60 ADD SWAP2 POP POP PUSH1 0x40 MLOAD DUP1 SWAP2 SUB SWAP1 REVERT JUMPDEST PUSH1 0x0 DUP2 PUSH1 0x1 PUSH1 0x1 PUSH1 0xA0 SHL SUB AND PUSH4 0xDFE1681 PUSH1 0x40 MLOAD DUP2 PUSH4 0xFFFFFFFF AND PUSH1 0xE0 SHL DUP2 MSTORE PUSH1 0x4 ADD PUSH1 0x20 PUSH1 0x40 MLOAD DUP1 DUP4 SUB DUP2 DUP7 DUP1 EXTCODESIZE ISZERO DUP1 ISZERO PUSH3 0x1905 JUMPI PUSH1 0x0 DUP1 REVERT JUMPDEST POP GAS STATICCALL ISZERO DUP1 ISZERO PUSH3 0x191A JUMPI RETURNDATASIZE PUSH1 0x0 DUP1 RETURNDATACOPY RETURNDATASIZE PUSH1 0x0 REVERT JUMPDEST POP POP POP POP PUSH1 0x40 MLOAD RETURNDATASIZE PUSH1 0x20 DUP2 LT ISZERO PUSH3 0x1931 JUMPI PUSH1 0x0 DUP1 REVERT JUMPDEST POP MLOAD PUSH1 0x40 DUP1 MLOAD PUSH4 0xD21220A7 PUSH1 0xE0 SHL DUP2 MSTORE SWAP1 MLOAD SWAP2 SWAP3 POP PUSH1 0x0 SWAP2 PUSH1 0x1 PUSH1 0x1 PUSH1 0xA0 SHL SUB DUP6 AND SWAP2 PUSH4 0xD21220A7 SWAP2 PUSH1 0x4 DUP1 DUP4 ADD SWAP3 PUSH1 0x20 SWAP3 SWAP2 SWAP1 DUP3 SWAP1 SUB ADD DUP2 DUP7 DUP1 EXTCODESIZE ISZERO DUP1 ISZERO PUSH3 0x197A JUMPI PUSH1 0x0 DUP1 REVERT JUMPDEST POP GAS STATICCALL ISZERO DUP1 ISZERO PUSH3 0x198F JUMPI RETURNDATASIZE PUSH1 0x0 DUP1 RETURNDATACOPY RETURNDATASIZE PUSH1 0x0 REVERT JUMPDEST POP POP POP POP PUSH1 0x40 MLOAD RETURNDATASIZE PUSH1 0x20 DUP2 LT ISZERO PUSH3 0x19A6 JUMPI PUSH1 0x0 DUP1 REVERT JUMPDEST POP MLOAD PUSH1 0x1 PUSH1 0x1 PUSH1 0xA0 SHL SUB DUP1 DUP6 AND PUSH1 0x0 SWAP1 DUP2 MSTORE PUSH1 0x6 PUSH1 0x20 MSTORE PUSH1 0x40 SWAP1 KECCAK256 DUP1 SLOAD PUSH1 0x1 PUSH1 0x1 PUSH1 0xA0 SHL SUB NOT AND SWAP1 SSTORE PUSH1 0x7 SLOAD SWAP2 SWAP3 POP DUP4 DUP2 AND SWAP2 AND EQ DUP1 PUSH3 0x19F4 JUMPI POP PUSH1 0x7 SLOAD PUSH1 0x1 PUSH1 0x1 PUSH1 0xA0 SHL SUB DUP3 DUP2 AND SWAP2 AND EQ JUMPDEST ISZERO PUSH3 0x1A0E JUMPI PUSH3 0x1A07 PUSH1 0x2 DUP5 PUSH3 0x1F78 JUMP JUMPDEST POP PUSH3 0x1A1D JUMP JUMPDEST PUSH3 0x1A1B PUSH1 0x4 DUP5 PUSH3 0x1F78 JUMP JUMPDEST POP JUMPDEST PUSH1 0xB SLOAD PUSH3 0x1A2D SWAP1 PUSH1 0x1 PUSH3 0x1F8F JUMP JUMPDEST PUSH1 0xB SSTORE POP POP POP JUMP JUMPDEST PUSH1 0xD DUP2 DUP2 SLOAD DUP2 LT PUSH3 0x1A46 JUMPI PUSH1 0x0 DUP1 REVERT JUMPDEST PUSH1 0x0 SWAP2 DUP3 MSTORE PUSH1 0x20 SWAP1 SWAP2 KECCAK256 ADD SLOAD SWAP1 POP DUP2 JUMP JUMPDEST PUSH1 0x0 DUP1 PUSH1 0x0 DUP4 PUSH1 0x1 PUSH1 0x1 PUSH1 0xA0 SHL SUB AND PUSH4 0x902F1AC PUSH1 0x40 MLOAD DUP2 PUSH4 0xFFFFFFFF AND PUSH1 0xE0 SHL DUP2 MSTORE PUSH1 0x4 ADD PUSH1 0x60 PUSH1 0x40 MLOAD DUP1 DUP4 SUB DUP2 DUP7 DUP1 EXTCODESIZE ISZERO DUP1 ISZERO PUSH3 0x1A96 JUMPI PUSH1 0x0 DUP1 REVERT JUMPDEST POP GAS STATICCALL ISZERO DUP1 ISZERO PUSH3 0x1AAB JUMPI RETURNDATASIZE PUSH1 0x0 DUP1 RETURNDATACOPY RETURNDATASIZE PUSH1 0x0 REVERT JUMPDEST POP POP POP POP PUSH1 0x40 MLOAD RETURNDATASIZE PUSH1 0x60 DUP2 LT ISZERO PUSH3 0x1AC2 JUMPI PUSH1 0x0 DUP1 REVERT JUMPDEST POP DUP1 MLOAD PUSH1 0x20 SWAP2 DUP3 ADD MLOAD PUSH1 0x7 SLOAD PUSH1 0x40 DUP1 MLOAD PUSH4 0xDFE1681 PUSH1 0xE0 SHL DUP2 MSTORE SWAP1 MLOAD PUSH14 0xFFFFFFFFFFFFFFFFFFFFFFFFFFFF SWAP5 DUP6 AND SWAP8 POP SWAP4 SWAP1 SWAP3 AND SWAP5 POP PUSH1 0x0 SWAP4 PUSH1 0x1 PUSH1 0x1 PUSH1 0xA0 SHL SUB SWAP2 DUP3 AND SWAP4 SWAP2 DUP10 AND SWAP3 PUSH4 0xDFE1681 SWAP3 PUSH1 0x4 DUP1 DUP4 ADD SWAP4 SWAP3 DUP3 SWAP1 SUB ADD DUP2 DUP7 DUP1 EXTCODESIZE ISZERO DUP1 ISZERO PUSH3 0x1B2D JUMPI PUSH1 0x0 DUP1 REVERT JUMPDEST POP GAS STATICCALL ISZERO DUP1 ISZERO PUSH3 0x1B42 JUMPI RETURNDATASIZE PUSH1 0x0 DUP1 RETURNDATACOPY RETURNDATASIZE PUSH1 0x0 REVERT JUMPDEST POP POP POP POP PUSH1 0x40 MLOAD RETURNDATASIZE PUSH1 0x20 DUP2 LT ISZERO PUSH3 0x1B59 JUMPI PUSH1 0x0 DUP1 REVERT JUMPDEST POP MLOAD PUSH1 0x1 PUSH1 0x1 PUSH1 0xA0 SHL SUB AND EQ ISZERO PUSH3 0x1B7F JUMPI PUSH3 0x1B77 DUP2 DUP5 PUSH3 0x1DC8 JUMP JUMPDEST SWAP1 POP PUSH3 0x1C4B JUMP JUMPDEST PUSH1 0x7 SLOAD PUSH1 0x40 DUP1 MLOAD PUSH4 0xD21220A7 PUSH1 0xE0 SHL DUP2 MSTORE SWAP1 MLOAD PUSH1 0x1 PUSH1 0x1 PUSH1 0xA0 SHL SUB SWAP3 DUP4 AND SWAP3 DUP9 AND SWAP2 PUSH4 0xD21220A7 SWAP2 PUSH1 0x4 DUP1 DUP4 ADD SWAP3 PUSH1 0x20 SWAP3 SWAP2 SWAP1 DUP3 SWAP1 SUB ADD DUP2 DUP7 DUP1 EXTCODESIZE ISZERO DUP1 ISZERO PUSH3 0x1BC7 JUMPI PUSH1 0x0 DUP1 REVERT JUMPDEST POP GAS STATICCALL ISZERO DUP1 ISZERO PUSH3 0x1BDC JUMPI RETURNDATASIZE PUSH1 0x0 DUP1 RETURNDATACOPY RETURNDATASIZE PUSH1 0x0 REVERT JUMPDEST POP POP POP POP PUSH1 0x40 MLOAD RETURNDATASIZE PUSH1 0x20 DUP2 LT ISZERO PUSH3 0x1BF3 JUMPI PUSH1 0x0 DUP1 REVERT JUMPDEST POP MLOAD PUSH1 0x1 PUSH1 0x1 PUSH1 0xA0 SHL SUB AND EQ PUSH3 0x1C3C JUMPI PUSH1 0x40 MLOAD PUSH3 0x461BCD PUSH1 0xE5 SHL DUP2 MSTORE PUSH1 0x4 ADD DUP1 DUP1 PUSH1 0x20 ADD DUP3 DUP2 SUB DUP3 MSTORE PUSH1 0x53 DUP2 MSTORE PUSH1 0x20 ADD DUP1 PUSH3 0x41D3 PUSH1 0x53 SWAP2 CODECOPY PUSH1 0x60 ADD SWAP2 POP POP PUSH1 0x40 MLOAD DUP1 SWAP2 SUB SWAP1 REVERT JUMPDEST PUSH3 0x1C48 DUP2 DUP4 PUSH3 0x1DC8 JUMP JUMPDEST SWAP1 POP JUMPDEST PUSH3 0x1C58 DUP2 PUSH1 0x2 PUSH3 0x1E23 JUMP JUMPDEST SWAP6 SWAP5 POP POP POP POP POP JUMP JUMPDEST PUSH1 0x9 SLOAD PUSH1 0x1 PUSH1 0x1 PUSH1 0xA0 SHL SUB AND DUP2 JUMP JUMPDEST PUSH3 0x1C7A PUSH3 0x1D8B JUMP JUMPDEST PUSH1 0x1 PUSH1 0x1 PUSH1 0xA0 SHL SUB AND PUSH3 0x1C8D PUSH3 0x11F6 JUMP JUMPDEST PUSH1 0x1 PUSH1 0x1 PUSH1 0xA0 SHL SUB AND EQ PUSH3 0x1CE9 JUMPI PUSH1 0x40 DUP1 MLOAD PUSH3 0x461BCD PUSH1 0xE5 SHL DUP2 MSTORE PUSH1 0x20 PUSH1 0x4 DUP3 ADD DUP2 SWAP1 MSTORE PUSH1 0x24 DUP3 ADD MSTORE PUSH32 0x4F776E61626C653A2063616C6C6572206973206E6F7420746865206F776E6572 PUSH1 0x44 DUP3 ADD MSTORE SWAP1 MLOAD SWAP1 DUP2 SWAP1 SUB PUSH1 0x64 ADD SWAP1 REVERT JUMPDEST PUSH1 0x1 PUSH1 0x1 PUSH1 0xA0 SHL SUB DUP2 AND PUSH3 0x1D30 JUMPI PUSH1 0x40 MLOAD PUSH3 0x461BCD PUSH1 0xE5 SHL DUP2 MSTORE PUSH1 0x4 ADD DUP1 DUP1 PUSH1 0x20 ADD DUP3 DUP2 SUB DUP3 MSTORE PUSH1 0x26 DUP2 MSTORE PUSH1 0x20 ADD DUP1 PUSH3 0x3CEF PUSH1 0x26 SWAP2 CODECOPY PUSH1 0x40 ADD SWAP2 POP POP PUSH1 0x40 MLOAD DUP1 SWAP2 SUB SWAP1 REVERT JUMPDEST PUSH1 0x0 DUP1 SLOAD PUSH1 0x40 MLOAD PUSH1 0x1 PUSH1 0x1 PUSH1 0xA0 SHL SUB DUP1 DUP6 AND SWAP4 SWAP3 AND SWAP2 PUSH32 0x8BE0079C531659141344CD1FD0A4F28419497F9722A3DAAFE3B4186F6B6457E0 SWAP2 LOG3 PUSH1 0x0 DUP1 SLOAD PUSH1 0x1 PUSH1 0x1 PUSH1 0xA0 SHL SUB NOT AND PUSH1 0x1 PUSH1 0x1 PUSH1 0xA0 SHL SUB SWAP3 SWAP1 SWAP3 AND SWAP2 SWAP1 SWAP2 OR SWAP1 SSTORE JUMP JUMPDEST CALLER SWAP1 JUMP JUMPDEST PUSH1 0x0 PUSH3 0x1DA6 DUP4 PUSH1 0x1 PUSH1 0x1 PUSH1 0xA0 SHL SUB DUP5 AND PUSH3 0x1FED JUMP JUMPDEST SWAP4 SWAP3 POP POP POP JUMP JUMPDEST PUSH1 0x0 PUSH3 0x5BB DUP3 PUSH3 0x2005 JUMP JUMPDEST PUSH1 0x0 PUSH3 0x1DA6 DUP4 DUP4 PUSH3 0x2009 JUMP JUMPDEST PUSH1 0x0 DUP3 DUP3 ADD DUP4 DUP2 LT ISZERO PUSH3 0x1DA6 JUMPI PUSH1 0x40 DUP1 MLOAD PUSH3 0x461BCD PUSH1 0xE5 SHL DUP2 MSTORE PUSH1 0x20 PUSH1 0x4 DUP3 ADD MSTORE PUSH1 0x1B PUSH1 0x24 DUP3 ADD MSTORE PUSH32 0x536166654D6174683A206164646974696F6E206F766572666C6F770000000000 PUSH1 0x44 DUP3 ADD MSTORE SWAP1 MLOAD SWAP1 DUP2 SWAP1 SUB PUSH1 0x64 ADD SWAP1 REVERT JUMPDEST PUSH1 0x0 DUP3 PUSH3 0x1E34 JUMPI POP PUSH1 0x0 PUSH3 0x5BB JUMP JUMPDEST DUP3 DUP3 MUL DUP3 DUP5 DUP3 DUP2 PUSH3 0x1E42 JUMPI INVALID JUMPDEST DIV EQ PUSH3 0x1DA6 JUMPI PUSH1 0x40 MLOAD PUSH3 0x461BCD PUSH1 0xE5 SHL DUP2 MSTORE PUSH1 0x4 ADD DUP1 DUP1 PUSH1 0x20 ADD DUP3 DUP2 SUB DUP3 MSTORE PUSH1 0x21 DUP2 MSTORE PUSH1 0x20 ADD DUP1 PUSH3 0x3ED8 PUSH1 0x21 SWAP2 CODECOPY PUSH1 0x40 ADD SWAP2 POP POP PUSH1 0x40 MLOAD DUP1 SWAP2 SUB SWAP1 REVERT JUMPDEST PUSH1 0x0 DUP1 DUP3 GT PUSH3 0x1ED8 JUMPI PUSH1 0x40 DUP1 MLOAD PUSH3 0x461BCD PUSH1 0xE5 SHL DUP2 MSTORE PUSH1 0x20 PUSH1 0x4 DUP3 ADD MSTORE PUSH1 0x1A PUSH1 0x24 DUP3 ADD MSTORE PUSH32 0x536166654D6174683A206469766973696F6E206279207A65726F000000000000 PUSH1 0x44 DUP3 ADD MSTORE SWAP1 MLOAD SWAP1 DUP2 SWAP1 SUB PUSH1 0x64 ADD SWAP1 REVERT JUMPDEST DUP2 DUP4 DUP2 PUSH3 0x1EE2 JUMPI INVALID JUMPDEST DIV SWAP4 SWAP3 POP POP POP JUMP JUMPDEST PUSH1 0x0 DUP1 DUP4 GT DUP1 ISZERO PUSH3 0x1EFC JUMPI POP PUSH1 0x0 DUP3 GT JUMPDEST PUSH3 0x1F39 JUMPI PUSH1 0x40 MLOAD PUSH3 0x461BCD PUSH1 0xE5 SHL DUP2 MSTORE PUSH1 0x4 ADD DUP1 DUP1 PUSH1 0x20 ADD DUP3 DUP2 SUB DUP3 MSTORE PUSH1 0x27 DUP2 MSTORE PUSH1 0x20 ADD DUP1 PUSH3 0x3F8E PUSH1 0x27 SWAP2 CODECOPY PUSH1 0x40 ADD SWAP2 POP POP PUSH1 0x40 MLOAD DUP1 SWAP2 SUB SWAP1 REVERT JUMPDEST PUSH8 0xDE0B6B3A7640000 PUSH3 0x1F59 PUSH3 0x1F52 DUP3 DUP6 PUSH3 0x1E23 JUMP JUMPDEST DUP6 PUSH3 0x1E81 JUMP JUMPDEST SWAP5 SWAP4 POP POP POP POP JUMP JUMPDEST PUSH1 0x0 PUSH3 0x1DA6 DUP4 PUSH1 0x1 PUSH1 0x1 PUSH1 0xA0 SHL SUB DUP5 AND PUSH3 0x2070 JUMP JUMPDEST PUSH1 0x0 PUSH3 0x1DA6 DUP4 PUSH1 0x1 PUSH1 0x1 PUSH1 0xA0 SHL SUB DUP5 AND PUSH3 0x20BF JUMP JUMPDEST PUSH1 0x0 DUP3 DUP3 GT ISZERO PUSH3 0x1FE7 JUMPI PUSH1 0x40 DUP1 MLOAD PUSH3 0x461BCD PUSH1 0xE5 SHL DUP2 MSTORE PUSH1 0x20 PUSH1 0x4 DUP3 ADD MSTORE PUSH1 0x1E PUSH1 0x24 DUP3 ADD MSTORE PUSH32 0x536166654D6174683A207375627472616374696F6E206F766572666C6F770000 PUSH1 0x44 DUP3 ADD MSTORE SWAP1 MLOAD SWAP1 DUP2 SWAP1 SUB PUSH1 0x64 ADD SWAP1 REVERT JUMPDEST POP SWAP1 SUB SWAP1 JUMP JUMPDEST PUSH1 0x0 SWAP1 DUP2 MSTORE PUSH1 0x1 SWAP2 SWAP1 SWAP2 ADD PUSH1 0x20 MSTORE PUSH1 0x40 SWAP1 KECCAK256 SLOAD ISZERO ISZERO SWAP1 JUMP JUMPDEST SLOAD SWAP1 JUMP JUMPDEST DUP2 SLOAD PUSH1 0x0 SWAP1 DUP3 LT PUSH3 0x204D JUMPI PUSH1 0x40 MLOAD PUSH3 0x461BCD PUSH1 0xE5 SHL DUP2 MSTORE PUSH1 0x4 ADD DUP1 DUP1 PUSH1 0x20 ADD DUP3 DUP2 SUB DUP3 MSTORE PUSH1 0x22 DUP2 MSTORE PUSH1 0x20 ADD DUP1 PUSH3 0x3C88 PUSH1 0x22 SWAP2 CODECOPY PUSH1 0x40 ADD SWAP2 POP POP PUSH1 0x40 MLOAD DUP1 SWAP2 SUB SWAP1 REVERT JUMPDEST DUP3 PUSH1 0x0 ADD DUP3 DUP2 SLOAD DUP2 LT PUSH3 0x205D JUMPI INVALID JUMPDEST SWAP1 PUSH1 0x0 MSTORE PUSH1 0x20 PUSH1 0x0 KECCAK256 ADD SLOAD SWAP1 POP SWAP3 SWAP2 POP POP JUMP JUMPDEST PUSH1 0x0 PUSH3 0x207E DUP4 DUP4 PUSH3 0x1FED JUMP JUMPDEST PUSH3 0x20B6 JUMPI POP DUP2 SLOAD PUSH1 0x1 DUP2 DUP2 ADD DUP5 SSTORE PUSH1 0x0 DUP5 DUP2 MSTORE PUSH1 0x20 DUP1 DUP3 KECCAK256 SWAP1 SWAP4 ADD DUP5 SWAP1 SSTORE DUP5 SLOAD DUP5 DUP3 MSTORE DUP3 DUP7 ADD SWAP1 SWAP4 MSTORE PUSH1 0x40 SWAP1 KECCAK256 SWAP2 SWAP1 SWAP2 SSTORE PUSH3 0x5BB JUMP JUMPDEST POP PUSH1 0x0 PUSH3 0x5BB JUMP JUMPDEST PUSH1 0x0 DUP2 DUP2 MSTORE PUSH1 0x1 DUP4 ADD PUSH1 0x20 MSTORE PUSH1 0x40 DUP2 KECCAK256 SLOAD DUP1 ISZERO PUSH3 0x2180 JUMPI DUP4 SLOAD PUSH1 0x0 NOT DUP1 DUP4 ADD SWAP2 SWAP1 DUP2 ADD SWAP1 PUSH1 0x0 SWAP1 DUP8 SWAP1 DUP4 SWAP1 DUP2 LT PUSH3 0x20F4 JUMPI INVALID JUMPDEST SWAP1 PUSH1 0x0 MSTORE PUSH1 0x20 PUSH1 0x0 KECCAK256 ADD SLOAD SWAP1 POP DUP1 DUP8 PUSH1 0x0 ADD DUP5 DUP2 SLOAD DUP2 LT PUSH3 0x2112 JUMPI INVALID JUMPDEST PUSH1 0x0 SWAP2 DUP3 MSTORE PUSH1 0x20 DUP1 DUP4 KECCAK256 SWAP1 SWAP2 ADD SWAP3 SWAP1 SWAP3 SSTORE DUP3 DUP2 MSTORE PUSH1 0x1 DUP10 DUP2 ADD SWAP1 SWAP3 MSTORE PUSH1 0x40 SWAP1 KECCAK256 SWAP1 DUP5 ADD SWAP1 SSTORE DUP7 SLOAD DUP8 SWAP1 DUP1 PUSH3 0x2143 JUMPI INVALID JUMPDEST PUSH1 0x1 SWAP1 SUB DUP2 DUP2 SWAP1 PUSH1 0x0 MSTORE PUSH1 0x20 PUSH1 0x0 KECCAK256 ADD PUSH1 0x0 SWAP1 SSTORE SWAP1 SSTORE DUP7 PUSH1 0x1 ADD PUSH1 0x0 DUP8 DUP2 MSTORE PUSH1 0x20 ADD SWAP1 DUP2 MSTORE PUSH1 0x20 ADD PUSH1 0x0 KECCAK256 PUSH1 0x0 SWAP1 SSTORE PUSH1 0x1 SWAP5 POP POP POP POP POP PUSH3 0x5BB JUMP JUMPDEST PUSH1 0x0 SWAP2 POP POP PUSH3 0x5BB JUMP JUMPDEST DUP3 DUP1 SLOAD DUP3 DUP3 SSTORE SWAP1 PUSH1 0x0 MSTORE PUSH1 0x20 PUSH1 0x0 KECCAK256 SWAP1 DUP2 ADD SWAP3 DUP3 ISZERO PUSH3 0x21C9 JUMPI SWAP2 PUSH1 0x20 MUL DUP3 ADD JUMPDEST DUP3 DUP2 GT ISZERO PUSH3 0x21C9 JUMPI DUP3 MLOAD DUP3 SSTORE SWAP2 PUSH1 0x20 ADD SWAP2 SWAP1 PUSH1 0x1 ADD SWAP1 PUSH3 0x21AC JUMP JUMPDEST POP PUSH3 0x21D7 SWAP3 SWAP2 POP PUSH3 0x21E9 JUMP JUMPDEST POP SWAP1 JUMP JUMPDEST PUSH2 0x1A87 DUP1 PUSH3 0x2201 DUP4 CODECOPY ADD SWAP1 JUMP JUMPDEST JUMPDEST DUP1 DUP3 GT ISZERO PUSH3 0x21D7 JUMPI PUSH1 0x0 DUP2 SSTORE PUSH1 0x1 ADD PUSH3 0x21EA JUMP INVALID PUSH1 0x80 PUSH1 0x40 MSTORE PUSH1 0x0 PUSH1 0x4 SSTORE PUSH1 0x0 PUSH1 0x5 SSTORE PUSH3 0x15180 PUSH1 0x6 SSTORE CALLVALUE DUP1 ISZERO PUSH2 0x21 JUMPI PUSH1 0x0 DUP1 REVERT JUMPDEST POP PUSH1 0x40 MLOAD PUSH2 0x1A87 CODESIZE SUB DUP1 PUSH2 0x1A87 DUP4 CODECOPY DUP2 DUP2 ADD PUSH1 0x40 MSTORE PUSH1 0x40 DUP2 LT ISZERO PUSH2 0x44 JUMPI PUSH1 0x0 DUP1 REVERT JUMPDEST POP DUP1 MLOAD PUSH1 0x20 SWAP1 SWAP2 ADD MLOAD PUSH1 0x1 PUSH1 0x0 SWAP1 DUP2 SSTORE PUSH2 0x5C PUSH2 0xDB JUMP JUMPDEST PUSH1 0x1 DUP1 SLOAD PUSH1 0x1 PUSH1 0x1 PUSH1 0xA0 SHL SUB NOT AND PUSH1 0x1 PUSH1 0x1 PUSH1 0xA0 SHL SUB DUP4 AND SWAP1 DUP2 OR SWAP1 SWAP2 SSTORE PUSH1 0x40 MLOAD SWAP2 SWAP3 POP SWAP1 PUSH1 0x0 SWAP1 PUSH32 0x8BE0079C531659141344CD1FD0A4F28419497F9722A3DAAFE3B4186F6B6457E0 SWAP1 DUP3 SWAP1 LOG3 POP PUSH1 0x2 DUP1 SLOAD PUSH1 0x1 PUSH1 0x1 PUSH1 0xA0 SHL SUB SWAP4 DUP5 AND PUSH1 0x1 PUSH1 0x1 PUSH1 0xA0 SHL SUB NOT SWAP2 DUP3 AND OR SWAP1 SWAP2 SSTORE PUSH1 0x3 DUP1 SLOAD SWAP3 SWAP1 SWAP4 AND SWAP2 AND OR SWAP1 SSTORE PUSH2 0xDF JUMP JUMPDEST CALLER SWAP1 JUMP JUMPDEST PUSH2 0x1999 DUP1 PUSH2 0xEE PUSH1 0x0 CODECOPY PUSH1 0x0 RETURN INVALID PUSH1 0x80 PUSH1 0x40 MSTORE CALLVALUE DUP1 ISZERO PUSH2 0x10 JUMPI PUSH1 0x0 DUP1 REVERT JUMPDEST POP PUSH1 0x4 CALLDATASIZE LT PUSH2 0x1AD JUMPI PUSH1 0x0 CALLDATALOAD PUSH1 0xE0 SHR DUP1 PUSH4 0x8980F11F GT PUSH2 0xEE JUMPI DUP1 PUSH4 0xCD3DAF9D GT PUSH2 0x97 JUMPI DUP1 PUSH4 0xE9FAD8EE GT PUSH2 0x71 JUMPI DUP1 PUSH4 0xE9FAD8EE EQ PUSH2 0x382 JUMPI DUP1 PUSH4 0xEBE2B12B EQ PUSH2 0x38A JUMPI DUP1 PUSH4 0xECD9BA82 EQ PUSH2 0x392 JUMPI DUP1 PUSH4 0xF2FDE38B EQ PUSH2 0x3CA JUMPI PUSH2 0x1AD JUMP JUMPDEST DUP1 PUSH4 0xCD3DAF9D EQ PUSH2 0x36A JUMPI DUP1 PUSH4 0xD1AF0C7D EQ PUSH2 0x372 JUMPI DUP1 PUSH4 0xDF136D65 EQ PUSH2 0x37A JUMPI PUSH2 0x1AD JUMP JUMPDEST DUP1 PUSH4 0xA694FC3A GT PUSH2 0xC8 JUMPI DUP1 PUSH4 0xA694FC3A EQ PUSH2 0x328 JUMPI DUP1 PUSH4 0xC8F33C91 EQ PUSH2 0x345 JUMPI DUP1 PUSH4 0xCC1A378F EQ PUSH2 0x34D JUMPI PUSH2 0x1AD JUMP JUMPDEST DUP1 PUSH4 0x8980F11F EQ PUSH2 0x2CE JUMPI DUP1 PUSH4 0x8B876347 EQ PUSH2 0x2FA JUMPI DUP1 PUSH4 0x8DA5CB5B EQ PUSH2 0x320 JUMPI PUSH2 0x1AD JUMP JUMPDEST DUP1 PUSH4 0x3C6B16AB GT PUSH2 0x15B JUMPI DUP1 PUSH4 0x715018A6 GT PUSH2 0x135 JUMPI DUP1 PUSH4 0x715018A6 EQ PUSH2 0x292 JUMPI DUP1 PUSH4 0x72F702F3 EQ PUSH2 0x29A JUMPI DUP1 PUSH4 0x7B0A47EE EQ PUSH2 0x2BE JUMPI DUP1 PUSH4 0x80FAA57D EQ PUSH2 0x2C6 JUMPI PUSH2 0x1AD JUMP JUMPDEST DUP1 PUSH4 0x3C6B16AB EQ PUSH2 0x247 JUMPI DUP1 PUSH4 0x3D18B912 EQ PUSH2 0x264 JUMPI DUP1 PUSH4 0x70A08231 EQ PUSH2 0x26C JUMPI PUSH2 0x1AD JUMP JUMPDEST DUP1 PUSH4 0x1C1F78EB GT PUSH2 0x18C JUMPI DUP1 PUSH4 0x1C1F78EB EQ PUSH2 0x218 JUMPI DUP1 PUSH4 0x2E1A7D4D EQ PUSH2 0x220 JUMPI DUP1 PUSH4 0x386A9525 EQ PUSH2 0x23F JUMPI PUSH2 0x1AD JUMP JUMPDEST DUP1 PUSH3 0x8CC262 EQ PUSH2 0x1B2 JUMPI DUP1 PUSH4 0x700037D EQ PUSH2 0x1EA JUMPI DUP1 PUSH4 0x18160DDD EQ PUSH2 0x210 JUMPI JUMPDEST PUSH1 0x0 DUP1 REVERT JUMPDEST PUSH2 0x1D8 PUSH1 0x4 DUP1 CALLDATASIZE SUB PUSH1 0x20 DUP2 LT ISZERO PUSH2 0x1C8 JUMPI PUSH1 0x0 DUP1 REVERT JUMPDEST POP CALLDATALOAD PUSH1 0x1 PUSH1 0x1 PUSH1 0xA0 SHL SUB AND PUSH2 0x3F0 JUMP JUMPDEST PUSH1 0x40 DUP1 MLOAD SWAP2 DUP3 MSTORE MLOAD SWAP1 DUP2 SWAP1 SUB PUSH1 0x20 ADD SWAP1 RETURN JUMPDEST PUSH2 0x1D8 PUSH1 0x4 DUP1 CALLDATASIZE SUB PUSH1 0x20 DUP2 LT ISZERO PUSH2 0x200 JUMPI PUSH1 0x0 DUP1 REVERT JUMPDEST POP CALLDATALOAD PUSH1 0x1 PUSH1 0x1 PUSH1 0xA0 SHL SUB AND PUSH2 0x46E JUMP JUMPDEST PUSH2 0x1D8 PUSH2 0x480 JUMP JUMPDEST PUSH2 0x1D8 PUSH2 0x487 JUMP JUMPDEST PUSH2 0x23D PUSH1 0x4 DUP1 CALLDATASIZE SUB PUSH1 0x20 DUP2 LT ISZERO PUSH2 0x236 JUMPI PUSH1 0x0 DUP1 REVERT JUMPDEST POP CALLDATALOAD PUSH2 0x4A5 JUMP JUMPDEST STOP JUMPDEST PUSH2 0x1D8 PUSH2 0x647 JUMP JUMPDEST PUSH2 0x23D PUSH1 0x4 DUP1 CALLDATASIZE SUB PUSH1 0x20 DUP2 LT ISZERO PUSH2 0x25D JUMPI PUSH1 0x0 DUP1 REVERT JUMPDEST POP CALLDATALOAD PUSH2 0x64D JUMP JUMPDEST PUSH2 0x23D PUSH2 0x8C4 JUMP JUMPDEST PUSH2 0x1D8 PUSH1 0x4 DUP1 CALLDATASIZE SUB PUSH1 0x20 DUP2 LT ISZERO PUSH2 0x282 JUMPI PUSH1 0x0 DUP1 REVERT JUMPDEST POP CALLDATALOAD PUSH1 0x1 PUSH1 0x1 PUSH1 0xA0 SHL SUB AND PUSH2 0x9FB JUMP JUMPDEST PUSH2 0x23D PUSH2 0xA16 JUMP JUMPDEST PUSH2 0x2A2 PUSH2 0xAE1 JUMP JUMPDEST PUSH1 0x40 DUP1 MLOAD PUSH1 0x1 PUSH1 0x1 PUSH1 0xA0 SHL SUB SWAP1 SWAP3 AND DUP3 MSTORE MLOAD SWAP1 DUP2 SWAP1 SUB PUSH1 0x20 ADD SWAP1 RETURN JUMPDEST PUSH2 0x1D8 PUSH2 0xAF0 JUMP JUMPDEST PUSH2 0x1D8 PUSH2 0xAF6 JUMP JUMPDEST PUSH2 0x23D PUSH1 0x4 DUP1 CALLDATASIZE SUB PUSH1 0x40 DUP2 LT ISZERO PUSH2 0x2E4 JUMPI PUSH1 0x0 DUP1 REVERT JUMPDEST POP PUSH1 0x1 PUSH1 0x1 PUSH1 0xA0 SHL SUB DUP2 CALLDATALOAD AND SWAP1 PUSH1 0x20 ADD CALLDATALOAD PUSH2 0xB04 JUMP JUMPDEST PUSH2 0x1D8 PUSH1 0x4 DUP1 CALLDATASIZE SUB PUSH1 0x20 DUP2 LT ISZERO PUSH2 0x310 JUMPI PUSH1 0x0 DUP1 REVERT JUMPDEST POP CALLDATALOAD PUSH1 0x1 PUSH1 0x1 PUSH1 0xA0 SHL SUB AND PUSH2 0xC29 JUMP JUMPDEST PUSH2 0x2A2 PUSH2 0xC3B JUMP JUMPDEST PUSH2 0x23D PUSH1 0x4 DUP1 CALLDATASIZE SUB PUSH1 0x20 DUP2 LT ISZERO PUSH2 0x33E JUMPI PUSH1 0x0 DUP1 REVERT JUMPDEST POP CALLDATALOAD PUSH2 0xC4A JUMP JUMPDEST PUSH2 0x1D8 PUSH2 0xDED JUMP JUMPDEST PUSH2 0x23D PUSH1 0x4 DUP1 CALLDATASIZE SUB PUSH1 0x20 DUP2 LT ISZERO PUSH2 0x363 JUMPI PUSH1 0x0 DUP1 REVERT JUMPDEST POP CALLDATALOAD PUSH2 0xDF3 JUMP JUMPDEST PUSH2 0x1D8 PUSH2 0xEE2 JUMP JUMPDEST PUSH2 0x2A2 PUSH2 0xF30 JUMP JUMPDEST PUSH2 0x1D8 PUSH2 0xF3F JUMP JUMPDEST PUSH2 0x23D PUSH2 0xF45 JUMP JUMPDEST PUSH2 0x1D8 PUSH2 0xF68 JUMP JUMPDEST PUSH2 0x23D PUSH1 0x4 DUP1 CALLDATASIZE SUB PUSH1 0xA0 DUP2 LT ISZERO PUSH2 0x3A8 JUMPI PUSH1 0x0 DUP1 REVERT JUMPDEST POP DUP1 CALLDATALOAD SWAP1 PUSH1 0x20 DUP2 ADD CALLDATALOAD SWAP1 PUSH1 0xFF PUSH1 0x40 DUP3 ADD CALLDATALOAD AND SWAP1 PUSH1 0x60 DUP2 ADD CALLDATALOAD SWAP1 PUSH1 0x80 ADD CALLDATALOAD PUSH2 0xF6E JUMP JUMPDEST PUSH2 0x23D PUSH1 0x4 DUP1 CALLDATASIZE SUB PUSH1 0x20 DUP2 LT ISZERO PUSH2 0x3E0 JUMPI PUSH1 0x0 DUP1 REVERT JUMPDEST POP CALLDATALOAD PUSH1 0x1 PUSH1 0x1 PUSH1 0xA0 SHL SUB AND PUSH2 0x11B9 JUMP JUMPDEST PUSH1 0x1 PUSH1 0x1 PUSH1 0xA0 SHL SUB DUP2 AND PUSH1 0x0 SWAP1 DUP2 MSTORE PUSH1 0xA PUSH1 0x20 SWAP1 DUP2 MSTORE PUSH1 0x40 DUP1 DUP4 KECCAK256 SLOAD PUSH1 0x9 SWAP1 SWAP3 MSTORE DUP3 KECCAK256 SLOAD PUSH2 0x468 SWAP2 SWAP1 PUSH2 0x462 SWAP1 PUSH8 0xDE0B6B3A7640000 SWAP1 PUSH2 0x45C SWAP1 PUSH2 0x43D SWAP1 PUSH2 0x437 PUSH2 0xEE2 JUMP JUMPDEST SWAP1 PUSH2 0x12DB JUMP JUMPDEST PUSH1 0x1 PUSH1 0x1 PUSH1 0xA0 SHL SUB DUP9 AND PUSH1 0x0 SWAP1 DUP2 MSTORE PUSH1 0xC PUSH1 0x20 MSTORE PUSH1 0x40 SWAP1 KECCAK256 SLOAD SWAP1 PUSH2 0x1338 JUMP JUMPDEST SWAP1 PUSH2 0x1398 JUMP JUMPDEST SWAP1 PUSH2 0x13FF JUMP JUMPDEST SWAP3 SWAP2 POP POP JUMP JUMPDEST PUSH1 0xA PUSH1 0x20 MSTORE PUSH1 0x0 SWAP1 DUP2 MSTORE PUSH1 0x40 SWAP1 KECCAK256 SLOAD DUP2 JUMP JUMPDEST PUSH1 0xB SLOAD JUMPDEST SWAP1 JUMP JUMPDEST PUSH1 0x0 PUSH2 0x4A0 PUSH1 0x6 SLOAD PUSH1 0x5 SLOAD PUSH2 0x1338 SWAP1 SWAP2 SWAP1 PUSH4 0xFFFFFFFF AND JUMP JUMPDEST SWAP1 POP SWAP1 JUMP JUMPDEST PUSH1 0x2 PUSH1 0x0 SLOAD EQ ISZERO PUSH2 0x4FD JUMPI PUSH1 0x40 DUP1 MLOAD PUSH3 0x461BCD PUSH1 0xE5 SHL DUP2 MSTORE PUSH1 0x20 PUSH1 0x4 DUP3 ADD MSTORE PUSH1 0x1F PUSH1 0x24 DUP3 ADD MSTORE PUSH32 0x5265656E7472616E637947756172643A207265656E7472616E742063616C6C00 PUSH1 0x44 DUP3 ADD MSTORE SWAP1 MLOAD SWAP1 DUP2 SWAP1 SUB PUSH1 0x64 ADD SWAP1 REVERT JUMPDEST PUSH1 0x2 PUSH1 0x0 SSTORE CALLER PUSH2 0x50B PUSH2 0xEE2 JUMP JUMPDEST PUSH1 0x8 SSTORE PUSH2 0x516 PUSH2 0xAF6 JUMP JUMPDEST PUSH1 0x7 SSTORE PUSH1 0x1 PUSH1 0x1 PUSH1 0xA0 SHL SUB DUP2 AND ISZERO PUSH2 0x55D JUMPI PUSH2 0x531 DUP2 PUSH2 0x3F0 JUMP JUMPDEST PUSH1 0x1 PUSH1 0x1 PUSH1 0xA0 SHL SUB DUP3 AND PUSH1 0x0 SWAP1 DUP2 MSTORE PUSH1 0xA PUSH1 0x20 SWAP1 DUP2 MSTORE PUSH1 0x40 DUP1 DUP4 KECCAK256 SWAP4 SWAP1 SWAP4 SSTORE PUSH1 0x8 SLOAD PUSH1 0x9 SWAP1 SWAP2 MSTORE SWAP2 SWAP1 KECCAK256 SSTORE JUMPDEST PUSH1 0x0 DUP3 GT PUSH2 0x5B2 JUMPI PUSH1 0x40 DUP1 MLOAD PUSH3 0x461BCD PUSH1 0xE5 SHL DUP2 MSTORE PUSH1 0x20 PUSH1 0x4 DUP3 ADD MSTORE PUSH1 0x11 PUSH1 0x24 DUP3 ADD MSTORE PUSH32 0x43616E6E6F742077697468647261772030000000000000000000000000000000 PUSH1 0x44 DUP3 ADD MSTORE SWAP1 MLOAD SWAP1 DUP2 SWAP1 SUB PUSH1 0x64 ADD SWAP1 REVERT JUMPDEST PUSH1 0xB SLOAD PUSH2 0x5BF SWAP1 DUP4 PUSH2 0x12DB JUMP JUMPDEST PUSH1 0xB SSTORE CALLER PUSH1 0x0 SWAP1 DUP2 MSTORE PUSH1 0xC PUSH1 0x20 MSTORE PUSH1 0x40 SWAP1 KECCAK256 SLOAD PUSH2 0x5DC SWAP1 DUP4 PUSH2 0x12DB JUMP JUMPDEST CALLER PUSH1 0x0 DUP2 DUP2 MSTORE PUSH1 0xC PUSH1 0x20 MSTORE PUSH1 0x40 SWAP1 KECCAK256 SWAP2 SWAP1 SWAP2 SSTORE PUSH1 0x3 SLOAD PUSH2 0x608 SWAP2 PUSH1 0x1 PUSH1 0x1 PUSH1 0xA0 SHL SUB SWAP1 SWAP2 AND SWAP1 DUP5 PUSH2 0x1459 JUMP JUMPDEST PUSH1 0x40 DUP1 MLOAD DUP4 DUP2 MSTORE SWAP1 MLOAD CALLER SWAP2 PUSH32 0x7084F5476618D8E60B11EF0D7D3F06914655ADB8793E28FF7F018D4C76D505D5 SWAP2 SWAP1 DUP2 SWAP1 SUB PUSH1 0x20 ADD SWAP1 LOG2 POP POP PUSH1 0x1 PUSH1 0x0 SSTORE JUMP JUMPDEST PUSH1 0x6 SLOAD DUP2 JUMP JUMPDEST PUSH2 0x655 PUSH2 0x14DE JUMP JUMPDEST PUSH1 0x1 PUSH1 0x1 PUSH1 0xA0 SHL SUB AND PUSH2 0x666 PUSH2 0xC3B JUMP JUMPDEST PUSH1 0x1 PUSH1 0x1 PUSH1 0xA0 SHL SUB AND EQ PUSH2 0x6C1 JUMPI PUSH1 0x40 DUP1 MLOAD PUSH3 0x461BCD PUSH1 0xE5 SHL DUP2 MSTORE PUSH1 0x20 PUSH1 0x4 DUP3 ADD DUP2 SWAP1 MSTORE PUSH1 0x24 DUP3 ADD MSTORE PUSH32 0x4F776E61626C653A2063616C6C6572206973206E6F7420746865206F776E6572 PUSH1 0x44 DUP3 ADD MSTORE SWAP1 MLOAD SWAP1 DUP2 SWAP1 SUB PUSH1 0x64 ADD SWAP1 REVERT JUMPDEST PUSH1 0x0 PUSH2 0x6CB PUSH2 0xEE2 JUMP JUMPDEST PUSH1 0x8 SSTORE PUSH2 0x6D6 PUSH2 0xAF6 JUMP JUMPDEST PUSH1 0x7 SSTORE PUSH1 0x1 PUSH1 0x1 PUSH1 0xA0 SHL SUB DUP2 AND ISZERO PUSH2 0x71D JUMPI PUSH2 0x6F1 DUP2 PUSH2 0x3F0 JUMP JUMPDEST PUSH1 0x1 PUSH1 0x1 PUSH1 0xA0 SHL SUB DUP3 AND PUSH1 0x0 SWAP1 DUP2 MSTORE PUSH1 0xA PUSH1 0x20 SWAP1 DUP2 MSTORE PUSH1 0x40 DUP1 DUP4 KECCAK256 SWAP4 SWAP1 SWAP4 SSTORE PUSH1 0x8 SLOAD PUSH1 0x9 SWAP1 SWAP2 MSTORE SWAP2 SWAP1 KECCAK256 SSTORE JUMPDEST PUSH1 0x4 SLOAD TIMESTAMP LT PUSH2 0x73C JUMPI PUSH1 0x6 SLOAD PUSH2 0x734 SWAP1 DUP4 SWAP1 PUSH2 0x1398 JUMP JUMPDEST PUSH1 0x5 SSTORE PUSH2 0x77F JUMP JUMPDEST PUSH1 0x4 SLOAD PUSH1 0x0 SWAP1 PUSH2 0x74C SWAP1 TIMESTAMP PUSH2 0x12DB JUMP JUMPDEST SWAP1 POP PUSH1 0x0 PUSH2 0x765 PUSH1 0x5 SLOAD DUP4 PUSH2 0x1338 SWAP1 SWAP2 SWAP1 PUSH4 0xFFFFFFFF AND JUMP JUMPDEST PUSH1 0x6 SLOAD SWAP1 SWAP2 POP PUSH2 0x779 SWAP1 PUSH2 0x45C DUP7 DUP5 PUSH2 0x13FF JUMP JUMPDEST PUSH1 0x5 SSTORE POP POP JUMPDEST PUSH1 0x2 SLOAD PUSH1 0x40 DUP1 MLOAD PUSH32 0x70A0823100000000000000000000000000000000000000000000000000000000 DUP2 MSTORE ADDRESS PUSH1 0x4 DUP3 ADD MSTORE SWAP1 MLOAD PUSH1 0x0 SWAP3 PUSH1 0x1 PUSH1 0x1 PUSH1 0xA0 SHL SUB AND SWAP2 PUSH4 0x70A08231 SWAP2 PUSH1 0x24 DUP1 DUP4 ADD SWAP3 PUSH1 0x20 SWAP3 SWAP2 SWAP1 DUP3 SWAP1 SUB ADD DUP2 DUP7 DUP1 EXTCODESIZE ISZERO DUP1 ISZERO PUSH2 0x7E3 JUMPI PUSH1 0x0 DUP1 REVERT JUMPDEST POP GAS STATICCALL ISZERO DUP1 ISZERO PUSH2 0x7F7 JUMPI RETURNDATASIZE PUSH1 0x0 DUP1 RETURNDATACOPY RETURNDATASIZE PUSH1 0x0 REVERT JUMPDEST POP POP POP POP PUSH1 0x40 MLOAD RETURNDATASIZE PUSH1 0x20 DUP2 LT ISZERO PUSH2 0x80D JUMPI PUSH1 0x0 DUP1 REVERT JUMPDEST POP MLOAD PUSH1 0x6 SLOAD SWAP1 SWAP2 POP PUSH2 0x820 SWAP1 DUP3 SWAP1 PUSH2 0x1398 JUMP JUMPDEST PUSH1 0x5 SLOAD GT ISZERO PUSH2 0x876 JUMPI PUSH1 0x40 DUP1 MLOAD PUSH3 0x461BCD PUSH1 0xE5 SHL DUP2 MSTORE PUSH1 0x20 PUSH1 0x4 DUP3 ADD MSTORE PUSH1 0x18 PUSH1 0x24 DUP3 ADD MSTORE PUSH32 0x50726F76696465642072657761726420746F6F20686967680000000000000000 PUSH1 0x44 DUP3 ADD MSTORE SWAP1 MLOAD SWAP1 DUP2 SWAP1 SUB PUSH1 0x64 ADD SWAP1 REVERT JUMPDEST TIMESTAMP PUSH1 0x7 DUP2 SWAP1 SSTORE PUSH1 0x6 SLOAD PUSH2 0x889 SWAP2 SWAP1 PUSH2 0x13FF JUMP JUMPDEST PUSH1 0x4 SSTORE PUSH1 0x40 DUP1 MLOAD DUP5 DUP2 MSTORE SWAP1 MLOAD PUSH32 0xDE88A922E0D3B88B24E9623EFEB464919C6BF9F66857A65E2BFCF2CE87A9433D SWAP2 DUP2 SWAP1 SUB PUSH1 0x20 ADD SWAP1 LOG1 POP POP POP JUMP JUMPDEST PUSH1 0x2 PUSH1 0x0 SLOAD EQ ISZERO PUSH2 0x91C JUMPI PUSH1 0x40 DUP1 MLOAD PUSH3 0x461BCD PUSH1 0xE5 SHL DUP2 MSTORE PUSH1 0x20 PUSH1 0x4 DUP3 ADD MSTORE PUSH1 0x1F PUSH1 0x24 DUP3 ADD MSTORE PUSH32 0x5265656E7472616E637947756172643A207265656E7472616E742063616C6C00 PUSH1 0x44 DUP3 ADD MSTORE SWAP1 MLOAD SWAP1 DUP2 SWAP1 SUB PUSH1 0x64 ADD SWAP1 REVERT JUMPDEST PUSH1 0x2 PUSH1 0x0 SSTORE CALLER PUSH2 0x92A PUSH2 0xEE2 JUMP JUMPDEST PUSH1 0x8 SSTORE PUSH2 0x935 PUSH2 0xAF6 JUMP JUMPDEST PUSH1 0x7 SSTORE PUSH1 0x1 PUSH1 0x1 PUSH1 0xA0 SHL SUB DUP2 AND ISZERO PUSH2 0x97C JUMPI PUSH2 0x950 DUP2 PUSH2 0x3F0 JUMP JUMPDEST PUSH1 0x1 PUSH1 0x1 PUSH1 0xA0 SHL SUB DUP3 AND PUSH1 0x0 SWAP1 DUP2 MSTORE PUSH1 0xA PUSH1 0x20 SWAP1 DUP2 MSTORE PUSH1 0x40 DUP1 DUP4 KECCAK256 SWAP4 SWAP1 SWAP4 SSTORE PUSH1 0x8 SLOAD PUSH1 0x9 SWAP1 SWAP2 MSTORE SWAP2 SWAP1 KECCAK256 SSTORE JUMPDEST CALLER PUSH1 0x0 SWAP1 DUP2 MSTORE PUSH1 0xA PUSH1 0x20 MSTORE PUSH1 0x40 SWAP1 KECCAK256 SLOAD DUP1 ISZERO PUSH2 0x9F2 JUMPI CALLER PUSH1 0x0 DUP2 DUP2 MSTORE PUSH1 0xA PUSH1 0x20 MSTORE PUSH1 0x40 DUP2 KECCAK256 SSTORE PUSH1 0x2 SLOAD PUSH2 0x9BB SWAP2 PUSH1 0x1 PUSH1 0x1 PUSH1 0xA0 SHL SUB SWAP1 SWAP2 AND SWAP1 DUP4 PUSH2 0x1459 JUMP JUMPDEST PUSH1 0x40 DUP1 MLOAD DUP3 DUP2 MSTORE SWAP1 MLOAD CALLER SWAP2 PUSH32 0xE2403640BA68FED3A2F88B7557551D1993F84B99BB10FF833F0CF8DB0C5E0486 SWAP2 SWAP1 DUP2 SWAP1 SUB PUSH1 0x20 ADD SWAP1 LOG2 JUMPDEST POP POP PUSH1 0x1 PUSH1 0x0 SSTORE JUMP JUMPDEST PUSH1 0x1 PUSH1 0x1 PUSH1 0xA0 SHL SUB AND PUSH1 0x0 SWAP1 DUP2 MSTORE PUSH1 0xC PUSH1 0x20 MSTORE PUSH1 0x40 SWAP1 KECCAK256 SLOAD SWAP1 JUMP JUMPDEST PUSH2 0xA1E PUSH2 0x14DE JUMP JUMPDEST PUSH1 0x1 PUSH1 0x1 PUSH1 0xA0 SHL SUB AND PUSH2 0xA2F PUSH2 0xC3B JUMP JUMPDEST PUSH1 0x1 PUSH1 0x1 PUSH1 0xA0 SHL SUB AND EQ PUSH2 0xA8A JUMPI PUSH1 0x40 DUP1 MLOAD PUSH3 0x461BCD PUSH1 0xE5 SHL DUP2 MSTORE PUSH1 0x20 PUSH1 0x4 DUP3 ADD DUP2 SWAP1 MSTORE PUSH1 0x24 DUP3 ADD MSTORE PUSH32 0x4F776E61626C653A2063616C6C6572206973206E6F7420746865206F776E6572 PUSH1 0x44 DUP3 ADD MSTORE SWAP1 MLOAD SWAP1 DUP2 SWAP1 SUB PUSH1 0x64 ADD SWAP1 REVERT JUMPDEST PUSH1 0x1 SLOAD PUSH1 0x40 MLOAD PUSH1 0x0 SWAP2 PUSH1 0x1 PUSH1 0x1 PUSH1 0xA0 SHL SUB AND SWAP1 PUSH32 0x8BE0079C531659141344CD1FD0A4F28419497F9722A3DAAFE3B4186F6B6457E0 SWAP1 DUP4 SWAP1 LOG3 PUSH1 0x1 DUP1 SLOAD PUSH20 0xFFFFFFFFFFFFFFFFFFFFFFFFFFFFFFFFFFFFFFFF NOT AND SWAP1 SSTORE JUMP JUMPDEST PUSH1 0x3 SLOAD PUSH1 0x1 PUSH1 0x1 PUSH1 0xA0 SHL SUB AND DUP2 JUMP JUMPDEST PUSH1 0x5 SLOAD DUP2 JUMP JUMPDEST PUSH1 0x0 PUSH2 0x4A0 TIMESTAMP PUSH1 0x4 SLOAD PUSH2 0x14E2 JUMP JUMPDEST PUSH2 0xB0C PUSH2 0x14DE JUMP JUMPDEST PUSH1 0x1 PUSH1 0x1 PUSH1 0xA0 SHL SUB AND PUSH2 0xB1D PUSH2 0xC3B JUMP JUMPDEST PUSH1 0x1 PUSH1 0x1 PUSH1 0xA0 SHL SUB AND EQ PUSH2 0xB78 JUMPI PUSH1 0x40 DUP1 MLOAD PUSH3 0x461BCD PUSH1 0xE5 SHL DUP2 MSTORE PUSH1 0x20 PUSH1 0x4 DUP3 ADD DUP2 SWAP1 MSTORE PUSH1 0x24 DUP3 ADD MSTORE PUSH32 0x4F776E61626C653A2063616C6C6572206973206E6F7420746865206F776E6572 PUSH1 0x44 DUP3 ADD MSTORE SWAP1 MLOAD SWAP1 DUP2 SWAP1 SUB PUSH1 0x64 ADD SWAP1 REVERT JUMPDEST PUSH1 0x3 SLOAD PUSH1 0x1 PUSH1 0x1 PUSH1 0xA0 SHL SUB DUP4 DUP2 AND SWAP2 AND EQ ISZERO PUSH2 0xBC5 JUMPI PUSH1 0x40 MLOAD PUSH3 0x461BCD PUSH1 0xE5 SHL DUP2 MSTORE PUSH1 0x4 ADD DUP1 DUP1 PUSH1 0x20 ADD DUP3 DUP2 SUB DUP3 MSTORE PUSH1 0x21 DUP2 MSTORE PUSH1 0x20 ADD DUP1 PUSH2 0x1943 PUSH1 0x21 SWAP2 CODECOPY PUSH1 0x40 ADD SWAP2 POP POP PUSH1 0x40 MLOAD DUP1 SWAP2 SUB SWAP1 REVERT JUMPDEST PUSH2 0xBE1 PUSH2 0xBD0 PUSH2 0xC3B JUMP JUMPDEST PUSH1 0x1 PUSH1 0x1 PUSH1 0xA0 SHL SUB DUP5 AND SWAP1 DUP4 PUSH2 0x1459 JUMP JUMPDEST PUSH1 0x40 DUP1 MLOAD PUSH1 0x1 PUSH1 0x1 PUSH1 0xA0 SHL SUB DUP5 AND DUP2 MSTORE PUSH1 0x20 DUP2 ADD DUP4 SWAP1 MSTORE DUP2 MLOAD PUSH32 0x8C1256B8896378CD5044F80C202F9772B9D77DC85C8A6EB51967210B09BFAA28 SWAP3 SWAP2 DUP2 SWAP1 SUB SWAP1 SWAP2 ADD SWAP1 LOG1 POP POP JUMP JUMPDEST PUSH1 0x9 PUSH1 0x20 MSTORE PUSH1 0x0 SWAP1 DUP2 MSTORE PUSH1 0x40 SWAP1 KECCAK256 SLOAD DUP2 JUMP JUMPDEST PUSH1 0x1 SLOAD PUSH1 0x1 PUSH1 0x1 PUSH1 0xA0 SHL SUB AND SWAP1 JUMP JUMPDEST PUSH1 0x2 PUSH1 0x0 SLOAD EQ ISZERO PUSH2 0xCA2 JUMPI PUSH1 0x40 DUP1 MLOAD PUSH3 0x461BCD PUSH1 0xE5 SHL DUP2 MSTORE PUSH1 0x20 PUSH1 0x4 DUP3 ADD MSTORE PUSH1 0x1F PUSH1 0x24 DUP3 ADD MSTORE PUSH32 0x5265656E7472616E637947756172643A207265656E7472616E742063616C6C00 PUSH1 0x44 DUP3 ADD MSTORE SWAP1 MLOAD SWAP1 DUP2 SWAP1 SUB PUSH1 0x64 ADD SWAP1 REVERT JUMPDEST PUSH1 0x2 PUSH1 0x0 SSTORE CALLER PUSH2 0xCB0 PUSH2 0xEE2 JUMP JUMPDEST PUSH1 0x8 SSTORE PUSH2 0xCBB PUSH2 0xAF6 JUMP JUMPDEST PUSH1 0x7 SSTORE PUSH1 0x1 PUSH1 0x1 PUSH1 0xA0 SHL SUB DUP2 AND ISZERO PUSH2 0xD02 JUMPI PUSH2 0xCD6 DUP2 PUSH2 0x3F0 JUMP JUMPDEST PUSH1 0x1 PUSH1 0x1 PUSH1 0xA0 SHL SUB DUP3 AND PUSH1 0x0 SWAP1 DUP2 MSTORE PUSH1 0xA PUSH1 0x20 SWAP1 DUP2 MSTORE PUSH1 0x40 DUP1 DUP4 KECCAK256 SWAP4 SWAP1 SWAP4 SSTORE PUSH1 0x8 SLOAD PUSH1 0x9 SWAP1 SWAP2 MSTORE SWAP2 SWAP1 KECCAK256 SSTORE JUMPDEST PUSH1 0x0 DUP3 GT PUSH2 0xD57 JUMPI PUSH1 0x40 DUP1 MLOAD PUSH3 0x461BCD PUSH1 0xE5 SHL DUP2 MSTORE PUSH1 0x20 PUSH1 0x4 DUP3 ADD MSTORE PUSH1 0xE PUSH1 0x24 DUP3 ADD MSTORE PUSH32 0x43616E6E6F74207374616B652030000000000000000000000000000000000000 PUSH1 0x44 DUP3 ADD MSTORE SWAP1 MLOAD SWAP1 DUP2 SWAP1 SUB PUSH1 0x64 ADD SWAP1 REVERT JUMPDEST PUSH1 0xB SLOAD PUSH2 0xD64 SWAP1 DUP4 PUSH2 0x13FF JUMP JUMPDEST PUSH1 0xB SSTORE CALLER PUSH1 0x0 SWAP1 DUP2 MSTORE PUSH1 0xC PUSH1 0x20 MSTORE PUSH1 0x40 SWAP1 KECCAK256 SLOAD PUSH2 0xD81 SWAP1 DUP4 PUSH2 0x13FF JUMP JUMPDEST CALLER PUSH1 0x0 DUP2 DUP2 MSTORE PUSH1 0xC PUSH1 0x20 MSTORE PUSH1 0x40 SWAP1 KECCAK256 SWAP2 SWAP1 SWAP2 SSTORE PUSH1 0x3 SLOAD PUSH2 0xDAE SWAP2 PUSH1 0x1 PUSH1 0x1 PUSH1 0xA0 SHL SUB SWAP1 SWAP2 AND SWAP1 ADDRESS DUP6 PUSH2 0x14F8 JUMP JUMPDEST PUSH1 0x40 DUP1 MLOAD DUP4 DUP2 MSTORE SWAP1 MLOAD CALLER SWAP2 PUSH32 0x9E71BC8EEA02A63969F509818F2DAFB9254532904319F9DBDA79B67BD34A5F3D SWAP2 SWAP1 DUP2 SWAP1 SUB PUSH1 0x20 ADD SWAP1 LOG2 POP POP PUSH1 0x1 PUSH1 0x0 SSTORE JUMP JUMPDEST PUSH1 0x7 SLOAD DUP2 JUMP JUMPDEST PUSH2 0xDFB PUSH2 0x14DE JUMP JUMPDEST PUSH1 0x1 PUSH1 0x1 PUSH1 0xA0 SHL SUB AND PUSH2 0xE0C PUSH2 0xC3B JUMP JUMPDEST PUSH1 0x1 PUSH1 0x1 PUSH1 0xA0 SHL SUB AND EQ PUSH2 0xE67 JUMPI PUSH1 0x40 DUP1 MLOAD PUSH3 0x461BCD PUSH1 0xE5 SHL DUP2 MSTORE PUSH1 0x20 PUSH1 0x4 DUP3 ADD DUP2 SWAP1 MSTORE PUSH1 0x24 DUP3 ADD MSTORE PUSH32 0x4F776E61626C653A2063616C6C6572206973206E6F7420746865206F776E6572 PUSH1 0x44 DUP3 ADD MSTORE SWAP1 MLOAD SWAP1 DUP2 SWAP1 SUB PUSH1 0x64 ADD SWAP1 REVERT JUMPDEST PUSH1 0x4 SLOAD TIMESTAMP GT PUSH2 0xEA7 JUMPI PUSH1 0x40 MLOAD PUSH3 0x461BCD PUSH1 0xE5 SHL DUP2 MSTORE PUSH1 0x4 ADD DUP1 DUP1 PUSH1 0x20 ADD DUP3 DUP2 SUB DUP3 MSTORE PUSH1 0x58 DUP2 MSTORE PUSH1 0x20 ADD DUP1 PUSH2 0x1854 PUSH1 0x58 SWAP2 CODECOPY PUSH1 0x60 ADD SWAP2 POP POP PUSH1 0x40 MLOAD DUP1 SWAP2 SUB SWAP1 REVERT JUMPDEST PUSH1 0x6 DUP2 SWAP1 SSTORE PUSH1 0x40 DUP1 MLOAD DUP3 DUP2 MSTORE SWAP1 MLOAD PUSH32 0xFB46CA5A5E06D4540D6387B930A7C978BCE0DB5F449EC6B3F5D07C6E1D44F2D3 SWAP2 DUP2 SWAP1 SUB PUSH1 0x20 ADD SWAP1 LOG1 POP JUMP JUMPDEST PUSH1 0x0 PUSH1 0xB SLOAD PUSH1 0x0 EQ ISZERO PUSH2 0xEF8 JUMPI POP PUSH1 0x8 SLOAD PUSH2 0x484 JUMP JUMPDEST PUSH2 0x4A0 PUSH2 0xF27 PUSH1 0xB SLOAD PUSH2 0x45C PUSH8 0xDE0B6B3A7640000 PUSH2 0xF21 PUSH1 0x5 SLOAD PUSH2 0xF21 PUSH1 0x7 SLOAD PUSH2 0x437 PUSH2 0xAF6 JUMP JUMPDEST SWAP1 PUSH2 0x1338 JUMP JUMPDEST PUSH1 0x8 SLOAD SWAP1 PUSH2 0x13FF JUMP JUMPDEST PUSH1 0x2 SLOAD PUSH1 0x1 PUSH1 0x1 PUSH1 0xA0 SHL SUB AND DUP2 JUMP JUMPDEST PUSH1 0x8 SLOAD DUP2 JUMP JUMPDEST CALLER PUSH1 0x0 SWAP1 DUP2 MSTORE PUSH1 0xC PUSH1 0x20 MSTORE PUSH1 0x40 SWAP1 KECCAK256 SLOAD PUSH2 0xF5E SWAP1 PUSH2 0x4A5 JUMP JUMPDEST PUSH2 0xF66 PUSH2 0x8C4 JUMP JUMPDEST JUMP JUMPDEST PUSH1 0x4 SLOAD DUP2 JUMP JUMPDEST PUSH1 0x2 PUSH1 0x0 SLOAD EQ ISZERO PUSH2 0xFC6 JUMPI PUSH1 0x40 DUP1 MLOAD PUSH3 0x461BCD PUSH1 0xE5 SHL DUP2 MSTORE PUSH1 0x20 PUSH1 0x4 DUP3 ADD MSTORE PUSH1 0x1F PUSH1 0x24 DUP3 ADD MSTORE PUSH32 0x5265656E7472616E637947756172643A207265656E7472616E742063616C6C00 PUSH1 0x44 DUP3 ADD MSTORE SWAP1 MLOAD SWAP1 DUP2 SWAP1 SUB PUSH1 0x64 ADD SWAP1 REVERT JUMPDEST PUSH1 0x2 PUSH1 0x0 SSTORE CALLER PUSH2 0xFD4 PUSH2 0xEE2 JUMP JUMPDEST PUSH1 0x8 SSTORE PUSH2 0xFDF PUSH2 0xAF6 JUMP JUMPDEST PUSH1 0x7 SSTORE PUSH1 0x1 PUSH1 0x1 PUSH1 0xA0 SHL SUB DUP2 AND ISZERO PUSH2 0x1026 JUMPI PUSH2 0xFFA DUP2 PUSH2 0x3F0 JUMP JUMPDEST PUSH1 0x1 PUSH1 0x1 PUSH1 0xA0 SHL SUB DUP3 AND PUSH1 0x0 SWAP1 DUP2 MSTORE PUSH1 0xA PUSH1 0x20 SWAP1 DUP2 MSTORE PUSH1 0x40 DUP1 DUP4 KECCAK256 SWAP4 SWAP1 SWAP4 SSTORE PUSH1 0x8 SLOAD PUSH1 0x9 SWAP1 SWAP2 MSTORE SWAP2 SWAP1 KECCAK256 SSTORE JUMPDEST PUSH1 0x0 DUP7 GT PUSH2 0x107B JUMPI PUSH1 0x40 DUP1 MLOAD PUSH3 0x461BCD PUSH1 0xE5 SHL DUP2 MSTORE PUSH1 0x20 PUSH1 0x4 DUP3 ADD MSTORE PUSH1 0xE PUSH1 0x24 DUP3 ADD MSTORE PUSH32 0x43616E6E6F74207374616B652030000000000000000000000000000000000000 PUSH1 0x44 DUP3 ADD MSTORE SWAP1 MLOAD SWAP1 DUP2 SWAP1 SUB PUSH1 0x64 ADD SWAP1 REVERT JUMPDEST PUSH1 0xB SLOAD PUSH2 0x1088 SWAP1 DUP8 PUSH2 0x13FF JUMP JUMPDEST PUSH1 0xB SSTORE CALLER PUSH1 0x0 SWAP1 DUP2 MSTORE PUSH1 0xC PUSH1 0x20 MSTORE PUSH1 0x40 SWAP1 KECCAK256 SLOAD PUSH2 0x10A5 SWAP1 DUP8 PUSH2 0x13FF JUMP JUMPDEST CALLER PUSH1 0x0 DUP2 DUP2 MSTORE PUSH1 0xC PUSH1 0x20 MSTORE PUSH1 0x40 DUP1 DUP3 KECCAK256 SWAP4 SWAP1 SWAP4 SSTORE PUSH1 0x3 SLOAD DUP4 MLOAD PUSH32 0xD505ACCF00000000000000000000000000000000000000000000000000000000 DUP2 MSTORE PUSH1 0x4 DUP2 ADD SWAP4 SWAP1 SWAP4 MSTORE ADDRESS PUSH1 0x24 DUP5 ADD MSTORE PUSH1 0x44 DUP4 ADD DUP11 SWAP1 MSTORE PUSH1 0x64 DUP4 ADD DUP10 SWAP1 MSTORE PUSH1 0xFF DUP9 AND PUSH1 0x84 DUP5 ADD MSTORE PUSH1 0xA4 DUP4 ADD DUP8 SWAP1 MSTORE PUSH1 0xC4 DUP4 ADD DUP7 SWAP1 MSTORE SWAP3 MLOAD PUSH1 0x1 PUSH1 0x1 PUSH1 0xA0 SHL SUB SWAP1 SWAP4 AND SWAP3 PUSH4 0xD505ACCF SWAP3 PUSH1 0xE4 DUP1 DUP3 ADD SWAP4 SWAP3 SWAP2 DUP3 SWAP1 SUB ADD DUP2 DUP4 DUP8 DUP1 EXTCODESIZE ISZERO DUP1 ISZERO PUSH2 0x1145 JUMPI PUSH1 0x0 DUP1 REVERT JUMPDEST POP GAS CALL ISZERO DUP1 ISZERO PUSH2 0x1159 JUMPI RETURNDATASIZE PUSH1 0x0 DUP1 RETURNDATACOPY RETURNDATASIZE PUSH1 0x0 REVERT JUMPDEST POP POP PUSH1 0x3 SLOAD PUSH2 0x1176 SWAP3 POP PUSH1 0x1 PUSH1 0x1 PUSH1 0xA0 SHL SUB AND SWAP1 POP CALLER ADDRESS DUP10 PUSH2 0x14F8 JUMP JUMPDEST PUSH1 0x40 DUP1 MLOAD DUP8 DUP2 MSTORE SWAP1 MLOAD CALLER SWAP2 PUSH32 0x9E71BC8EEA02A63969F509818F2DAFB9254532904319F9DBDA79B67BD34A5F3D SWAP2 SWAP1 DUP2 SWAP1 SUB PUSH1 0x20 ADD SWAP1 LOG2 POP POP PUSH1 0x1 PUSH1 0x0 SSTORE POP POP POP POP JUMP JUMPDEST PUSH2 0x11C1 PUSH2 0x14DE JUMP JUMPDEST PUSH1 0x1 PUSH1 0x1 PUSH1 0xA0 SHL SUB AND PUSH2 0x11D2 PUSH2 0xC3B JUMP JUMPDEST PUSH1 0x1 PUSH1 0x1 PUSH1 0xA0 SHL SUB AND EQ PUSH2 0x122D JUMPI PUSH1 0x40 DUP1 MLOAD PUSH3 0x461BCD PUSH1 0xE5 SHL DUP2 MSTORE PUSH1 0x20 PUSH1 0x4 DUP3 ADD DUP2 SWAP1 MSTORE PUSH1 0x24 DUP3 ADD MSTORE PUSH32 0x4F776E61626C653A2063616C6C6572206973206E6F7420746865206F776E6572 PUSH1 0x44 DUP3 ADD MSTORE SWAP1 MLOAD SWAP1 DUP2 SWAP1 SUB PUSH1 0x64 ADD SWAP1 REVERT JUMPDEST PUSH1 0x1 PUSH1 0x1 PUSH1 0xA0 SHL SUB DUP2 AND PUSH2 0x1272 JUMPI PUSH1 0x40 MLOAD PUSH3 0x461BCD PUSH1 0xE5 SHL DUP2 MSTORE PUSH1 0x4 ADD DUP1 DUP1 PUSH1 0x20 ADD DUP3 DUP2 SUB DUP3 MSTORE PUSH1 0x26 DUP2 MSTORE PUSH1 0x20 ADD DUP1 PUSH2 0x18AC PUSH1 0x26 SWAP2 CODECOPY PUSH1 0x40 ADD SWAP2 POP POP PUSH1 0x40 MLOAD DUP1 SWAP2 SUB SWAP1 REVERT JUMPDEST PUSH1 0x1 SLOAD PUSH1 0x40 MLOAD PUSH1 0x1 PUSH1 0x1 PUSH1 0xA0 SHL SUB DUP1 DUP5 AND SWAP3 AND SWAP1 PUSH32 0x8BE0079C531659141344CD1FD0A4F28419497F9722A3DAAFE3B4186F6B6457E0 SWAP1 PUSH1 0x0 SWAP1 LOG3 PUSH1 0x1 DUP1 SLOAD PUSH20 0xFFFFFFFFFFFFFFFFFFFFFFFFFFFFFFFFFFFFFFFF NOT AND PUSH1 0x1 PUSH1 0x1 PUSH1 0xA0 SHL SUB SWAP3 SWAP1 SWAP3 AND SWAP2 SWAP1 SWAP2 OR SWAP1 SSTORE JUMP JUMPDEST PUSH1 0x0 DUP3 DUP3 GT ISZERO PUSH2 0x1332 JUMPI PUSH1 0x40 DUP1 MLOAD PUSH3 0x461BCD PUSH1 0xE5 SHL DUP2 MSTORE PUSH1 0x20 PUSH1 0x4 DUP3 ADD MSTORE PUSH1 0x1E PUSH1 0x24 DUP3 ADD MSTORE PUSH32 0x536166654D6174683A207375627472616374696F6E206F766572666C6F770000 PUSH1 0x44 DUP3 ADD MSTORE SWAP1 MLOAD SWAP1 DUP2 SWAP1 SUB PUSH1 0x64 ADD SWAP1 REVERT JUMPDEST POP SWAP1 SUB SWAP1 JUMP JUMPDEST PUSH1 0x0 DUP3 PUSH2 0x1347 JUMPI POP PUSH1 0x0 PUSH2 0x468 JUMP JUMPDEST DUP3 DUP3 MUL DUP3 DUP5 DUP3 DUP2 PUSH2 0x1354 JUMPI INVALID JUMPDEST DIV EQ PUSH2 0x1391 JUMPI PUSH1 0x40 MLOAD PUSH3 0x461BCD PUSH1 0xE5 SHL DUP2 MSTORE PUSH1 0x4 ADD DUP1 DUP1 PUSH1 0x20 ADD DUP3 DUP2 SUB DUP3 MSTORE PUSH1 0x21 DUP2 MSTORE PUSH1 0x20 ADD DUP1 PUSH2 0x18F8 PUSH1 0x21 SWAP2 CODECOPY PUSH1 0x40 ADD SWAP2 POP POP PUSH1 0x40 MLOAD DUP1 SWAP2 SUB SWAP1 REVERT JUMPDEST SWAP4 SWAP3 POP POP POP JUMP JUMPDEST PUSH1 0x0 DUP1 DUP3 GT PUSH2 0x13EE JUMPI PUSH1 0x40 DUP1 MLOAD PUSH3 0x461BCD PUSH1 0xE5 SHL DUP2 MSTORE PUSH1 0x20 PUSH1 0x4 DUP3 ADD MSTORE PUSH1 0x1A PUSH1 0x24 DUP3 ADD MSTORE PUSH32 0x536166654D6174683A206469766973696F6E206279207A65726F000000000000 PUSH1 0x44 DUP3 ADD MSTORE SWAP1 MLOAD SWAP1 DUP2 SWAP1 SUB PUSH1 0x64 ADD SWAP1 REVERT JUMPDEST DUP2 DUP4 DUP2 PUSH2 0x13F7 JUMPI INVALID JUMPDEST DIV SWAP4 SWAP3 POP POP POP JUMP JUMPDEST PUSH1 0x0 DUP3 DUP3 ADD DUP4 DUP2 LT ISZERO PUSH2 0x1391 JUMPI PUSH1 0x40 DUP1 MLOAD PUSH3 0x461BCD PUSH1 0xE5 SHL DUP2 MSTORE PUSH1 0x20 PUSH1 0x4 DUP3 ADD MSTORE PUSH1 0x1B PUSH1 0x24 DUP3 ADD MSTORE PUSH32 0x536166654D6174683A206164646974696F6E206F766572666C6F770000000000 PUSH1 0x44 DUP3 ADD MSTORE SWAP1 MLOAD SWAP1 DUP2 SWAP1 SUB PUSH1 0x64 ADD SWAP1 REVERT JUMPDEST PUSH1 0x40 DUP1 MLOAD PUSH1 0x1 PUSH1 0x1 PUSH1 0xA0 SHL SUB DUP5 AND PUSH1 0x24 DUP3 ADD MSTORE PUSH1 0x44 DUP1 DUP3 ADD DUP5 SWAP1 MSTORE DUP3 MLOAD DUP1 DUP4 SUB SWAP1 SWAP2 ADD DUP2 MSTORE PUSH1 0x64 SWAP1 SWAP2 ADD SWAP1 SWAP2 MSTORE PUSH1 0x20 DUP2 ADD DUP1 MLOAD PUSH28 0xFFFFFFFFFFFFFFFFFFFFFFFFFFFFFFFFFFFFFFFFFFFFFFFFFFFFFFFF AND PUSH32 0xA9059CBB00000000000000000000000000000000000000000000000000000000 OR SWAP1 MSTORE PUSH2 0x14D9 SWAP1 DUP5 SWAP1 PUSH2 0x1586 JUMP JUMPDEST POP POP POP JUMP JUMPDEST CALLER SWAP1 JUMP JUMPDEST PUSH1 0x0 DUP2 DUP4 LT PUSH2 0x14F1 JUMPI DUP2 PUSH2 0x1391 JUMP JUMPDEST POP SWAP1 SWAP2 SWAP1 POP JUMP JUMPDEST PUSH1 0x40 DUP1 MLOAD PUSH1 0x1 PUSH1 0x1 PUSH1 0xA0 SHL SUB DUP1 DUP7 AND PUSH1 0x24 DUP4 ADD MSTORE DUP5 AND PUSH1 0x44 DUP3 ADD MSTORE PUSH1 0x64 DUP1 DUP3 ADD DUP5 SWAP1 MSTORE DUP3 MLOAD DUP1 DUP4 SUB SWAP1 SWAP2 ADD DUP2 MSTORE PUSH1 0x84 SWAP1 SWAP2 ADD SWAP1 SWAP2 MSTORE PUSH1 0x20 DUP2 ADD DUP1 MLOAD PUSH28 0xFFFFFFFFFFFFFFFFFFFFFFFFFFFFFFFFFFFFFFFFFFFFFFFFFFFFFFFF AND PUSH32 0x23B872DD00000000000000000000000000000000000000000000000000000000 OR SWAP1 MSTORE PUSH2 0x1580 SWAP1 DUP6 SWAP1 PUSH2 0x1586 JUMP JUMPDEST POP POP POP POP JUMP JUMPDEST PUSH1 0x0 PUSH2 0x15DB DUP3 PUSH1 0x40 MLOAD DUP1 PUSH1 0x40 ADD PUSH1 0x40 MSTORE DUP1 PUSH1 0x20 DUP2 MSTORE PUSH1 0x20 ADD PUSH32 0x5361666545524332303A206C6F772D6C6576656C2063616C6C206661696C6564 DUP2 MSTORE POP DUP6 PUSH1 0x1 PUSH1 0x1 PUSH1 0xA0 SHL SUB AND PUSH2 0x1637 SWAP1 SWAP3 SWAP2 SWAP1 PUSH4 0xFFFFFFFF AND JUMP JUMPDEST DUP1 MLOAD SWAP1 SWAP2 POP ISZERO PUSH2 0x14D9 JUMPI DUP1 DUP1 PUSH1 0x20 ADD SWAP1 MLOAD PUSH1 0x20 DUP2 LT ISZERO PUSH2 0x15FA JUMPI PUSH1 0x0 DUP1 REVERT JUMPDEST POP MLOAD PUSH2 0x14D9 JUMPI PUSH1 0x40 MLOAD PUSH3 0x461BCD PUSH1 0xE5 SHL DUP2 MSTORE PUSH1 0x4 ADD DUP1 DUP1 PUSH1 0x20 ADD DUP3 DUP2 SUB DUP3 MSTORE PUSH1 0x2A DUP2 MSTORE PUSH1 0x20 ADD DUP1 PUSH2 0x1919 PUSH1 0x2A SWAP2 CODECOPY PUSH1 0x40 ADD SWAP2 POP POP PUSH1 0x40 MLOAD DUP1 SWAP2 SUB SWAP1 REVERT JUMPDEST PUSH1 0x60 PUSH2 0x1646 DUP5 DUP5 PUSH1 0x0 DUP6 PUSH2 0x164E JUMP JUMPDEST SWAP5 SWAP4 POP POP POP POP JUMP JUMPDEST PUSH1 0x60 DUP3 SELFBALANCE LT ISZERO PUSH2 0x168F JUMPI PUSH1 0x40 MLOAD PUSH3 0x461BCD PUSH1 0xE5 SHL DUP2 MSTORE PUSH1 0x4 ADD DUP1 DUP1 PUSH1 0x20 ADD DUP3 DUP2 SUB DUP3 MSTORE PUSH1 0x26 DUP2 MSTORE PUSH1 0x20 ADD DUP1 PUSH2 0x18D2 PUSH1 0x26 SWAP2 CODECOPY PUSH1 0x40 ADD SWAP2 POP POP PUSH1 0x40 MLOAD DUP1 SWAP2 SUB SWAP1 REVERT JUMPDEST PUSH2 0x1698 DUP6 PUSH2 0x17A9 JUMP JUMPDEST PUSH2 0x16E9 JUMPI PUSH1 0x40 DUP1 MLOAD PUSH3 0x461BCD PUSH1 0xE5 SHL DUP2 MSTORE PUSH1 0x20 PUSH1 0x4 DUP3 ADD MSTORE PUSH1 0x1D PUSH1 0x24 DUP3 ADD MSTORE PUSH32 0x416464726573733A2063616C6C20746F206E6F6E2D636F6E7472616374000000 PUSH1 0x44 DUP3 ADD MSTORE SWAP1 MLOAD SWAP1 DUP2 SWAP1 SUB PUSH1 0x64 ADD SWAP1 REVERT JUMPDEST PUSH1 0x0 DUP1 DUP7 PUSH1 0x1 PUSH1 0x1 PUSH1 0xA0 SHL SUB AND DUP6 DUP8 PUSH1 0x40 MLOAD DUP1 DUP3 DUP1 MLOAD SWAP1 PUSH1 0x20 ADD SWAP1 DUP1 DUP4 DUP4 JUMPDEST PUSH1 0x20 DUP4 LT PUSH2 0x1727 JUMPI DUP1 MLOAD DUP3 MSTORE PUSH1 0x1F NOT SWAP1 SWAP3 ADD SWAP2 PUSH1 0x20 SWAP2 DUP3 ADD SWAP2 ADD PUSH2 0x1708 JUMP JUMPDEST PUSH1 0x1 DUP4 PUSH1 0x20 SUB PUSH2 0x100 EXP SUB DUP1 NOT DUP3 MLOAD AND DUP2 DUP5 MLOAD AND DUP1 DUP3 OR DUP6 MSTORE POP POP POP POP POP POP SWAP1 POP ADD SWAP2 POP POP PUSH1 0x0 PUSH1 0x40 MLOAD DUP1 DUP4 SUB DUP2 DUP6 DUP8 GAS CALL SWAP3 POP POP POP RETURNDATASIZE DUP1 PUSH1 0x0 DUP2 EQ PUSH2 0x1789 JUMPI PUSH1 0x40 MLOAD SWAP2 POP PUSH1 0x1F NOT PUSH1 0x3F RETURNDATASIZE ADD AND DUP3 ADD PUSH1 0x40 MSTORE RETURNDATASIZE DUP3 MSTORE RETURNDATASIZE PUSH1 0x0 PUSH1 0x20 DUP5 ADD RETURNDATACOPY PUSH2 0x178E JUMP JUMPDEST PUSH1 0x60 SWAP2 POP JUMPDEST POP SWAP2 POP SWAP2 POP PUSH2 0x179E DUP3 DUP3 DUP7 PUSH2 0x17AF JUMP JUMPDEST SWAP8 SWAP7 POP POP POP POP POP POP POP JUMP JUMPDEST EXTCODESIZE ISZERO ISZERO SWAP1 JUMP JUMPDEST PUSH1 0x60 DUP4 ISZERO PUSH2 0x17BE JUMPI POP DUP2 PUSH2 0x1391 JUMP JUMPDEST DUP3 MLOAD ISZERO PUSH2 0x17CE JUMPI DUP3 MLOAD DUP1 DUP5 PUSH1 0x20 ADD REVERT JUMPDEST DUP2 PUSH1 0x40 MLOAD PUSH3 0x461BCD PUSH1 0xE5 SHL DUP2 MSTORE PUSH1 0x4 ADD DUP1 DUP1 PUSH1 0x20 ADD DUP3 DUP2 SUB DUP3 MSTORE DUP4 DUP2 DUP2 MLOAD DUP2 MSTORE PUSH1 0x20 ADD SWAP2 POP DUP1 MLOAD SWAP1 PUSH1 0x20 ADD SWAP1 DUP1 DUP4 DUP4 PUSH1 0x0 JUMPDEST DUP4 DUP2 LT ISZERO PUSH2 0x1818 JUMPI DUP2 DUP2 ADD MLOAD DUP4 DUP3 ADD MSTORE PUSH1 0x20 ADD PUSH2 0x1800 JUMP JUMPDEST POP POP POP POP SWAP1 POP SWAP1 DUP2 ADD SWAP1 PUSH1 0x1F AND DUP1 ISZERO PUSH2 0x1845 JUMPI DUP1 DUP3 SUB DUP1 MLOAD PUSH1 0x1 DUP4 PUSH1 0x20 SUB PUSH2 0x100 EXP SUB NOT AND DUP2 MSTORE PUSH1 0x20 ADD SWAP2 POP JUMPDEST POP SWAP3 POP POP POP PUSH1 0x40 MLOAD DUP1 SWAP2 SUB SWAP1 REVERT INVALID POP PUSH19 0x6576696F757320726577617264732070657269 PUSH16 0x64206D75737420626520636F6D706C65 PUSH21 0x65206265666F7265206368616E67696E6720746865 KECCAK256 PUSH5 0x7572617469 PUSH16 0x6E20666F7220746865206E6577207065 PUSH19 0x696F644F776E61626C653A206E6577206F776E PUSH6 0x722069732074 PUSH9 0x65207A65726F206164 PUSH5 0x7265737341 PUSH5 0x6472657373 GASPRICE KECCAK256 PUSH10 0x6E73756666696369656E PUSH21 0x2062616C616E636520666F722063616C6C53616665 0x4D PUSH2 0x7468 GASPRICE KECCAK256 PUSH14 0x756C7469706C69636174696F6E20 PUSH16 0x766572666C6F77536166654552433230 GASPRICE KECCAK256 GASLIMIT MSTORE NUMBER ORIGIN ADDRESS KECCAK256 PUSH16 0x7065726174696F6E20646964206E6F74 KECCAK256 PUSH20 0x75636365656443616E6E6F742077697468647261 PUSH24 0x20746865207374616B696E6720746F6B656EA26469706673 PC 0x22 SLT KECCAK256 0xB2 0xDA 0x27 SWAP5 LOG2 0x21 0x2F LOG4 0xD5 DUP6 0xDB LOG1 0xE2 PUSH5 0x17B047137 GASPRICE 0x27 DUP1 0x49 PUSH12 0x12AD306A3933E2BF64736F6C PUSH4 0x43000706 STOP CALLER GASLIMIT PUSH15 0x756D657261626C655365743A20696E PUSH5 0x6578206F75 PUSH21 0x206F6620626F756E64734C6971756964697479506F PUSH16 0x6C4D616E616765723A3A736574417661 PUSH25 0x597473506169723A20506F6F6C2063616E6E6F742062652074 PUSH9 0x65207A65726F206164 PUSH5 0x726573734F PUSH24 0x6E61626C653A206E6577206F776E65722069732074686520 PUSH27 0x65726F20616464726573734C6971756964697479506F6F6C4D616E PUSH2 0x6765 PUSH19 0x3A3A63616C63756C61746552657475726E733A KECCAK256 COINBASE PUSH23 0x61782F5954532050616972206E6F74207365744C697175 PUSH10 0x64697479506F6F6C4D61 PUSH15 0x616765723A3A61646457686974656C PUSH10 0x73746564506F6F6C3A20 0x4E PUSH16 0x2041564158206F722059545320696E20 PUSH21 0x686520706169724C6971756964697479506F6F6C4D PUSH2 0x6E61 PUSH8 0x65723A3A64697374 PUSH19 0x6962757465546F6B656E7353696E676C65506F PUSH16 0x6C3A2050726576696F75732072657475 PUSH19 0x6E73206E6F7420616C6C6F63617465642E2043 PUSH2 0x6C6C KECCAK256 PUSH4 0x616C6375 PUSH13 0x61746552657475726E7328294C PUSH10 0x71756964697479506F6F PUSH13 0x4D616E616765723A3A76657374 COINBASE PUSH13 0x6C6F636174696F6E3A204F6C64 KECCAK256 MSIZE SLOAD MSTORE8 KECCAK256 PUSH10 0x7320756E616C6C6F6361 PUSH21 0x65642E2043616C6C2064697374726962757465546F PUSH12 0x656E7328292E4C6971756964 PUSH10 0x7479506F6F6C4D616E61 PUSH8 0x65723A3A76657374 COINBASE PUSH13 0x6C6F636174696F6E3A20496E73 PUSH22 0x6666696369656E7420595453207472616E7366657272 PUSH6 0x644C69717569 PUSH5 0x697479506F PUSH16 0x6C4D616E616765723A3A72656D6F7665 JUMPI PUSH9 0x6974656C6973746564 POP PUSH16 0x6F6C3A20506F6F6C206E6F7420776869 PUSH21 0x656C6973746564536166654D6174683A206D756C74 PUSH10 0x706C69636174696F6E20 PUSH16 0x766572666C6F774C6971756964697479 POP PUSH16 0x6F6C4D616E616765723A3A6765745974 PUSH20 0x4C69717569646974793A204F6E65206F66207468 PUSH6 0x20746F6B656E PUSH20 0x20696E207468652070616972206D757374206265 KECCAK256 MSIZE SLOAD MSTORE8 0x4C PUSH10 0x71756964697479506F6F PUSH13 0x4D616E616765723A3A64697374 PUSH19 0x6962757465546F6B656E7353696E676C65506F PUSH16 0x6C3A20496E646578206F7574206F6620 PUSH3 0x6F756E PUSH5 0x7359657469 MSTORE8 PUSH24 0x61704C6962726172793A20494E53554646494349454E545F 0x4C 0x49 MLOAD SSTORE 0x49 DIFFICULTY 0x49 SLOAD MSIZE 0x4C PUSH10 0x71756964697479506F6F PUSH13 0x4D616E616765723A3A61646457 PUSH9 0x6974656C6973746564 POP PUSH16 0x6F6C3A20506F6F6C20616C7265616479 KECCAK256 PUSH24 0x686974656C69737465644C6971756964697479506F6F6C4D PUSH2 0x6E61 PUSH8 0x65723A3A63616C63 PUSH22 0x6C61746552657475726E733A2050726576696F757320 PUSH19 0x657475726E73206E6F74206469737472696275 PUSH21 0x65642E2043616C6C2064697374726962757465546F PUSH12 0x656E7328294C697175696469 PUSH21 0x79506F6F6C4D616E616765723A3A76657374416C6C PUSH16 0x636174696F6E3A204E6F205954532074 PUSH16 0x20636C61696D2E205472792061676169 PUSH15 0x20746F6D6F72726F772E4C69717569 PUSH5 0x697479506F PUSH16 0x6C4D616E616765723A3A646973747269 PUSH3 0x757465 SLOAD PUSH16 0x6B656E733A205472616E736665722066 PUSH2 0x696C PUSH6 0x644C69717569 PUSH5 0x697479506F PUSH16 0x6C4D616E616765723A3A646973747269 PUSH3 0x757465 SLOAD PUSH16 0x6B656E733A2050726576696F75732072 PUSH6 0x7475726E7320 PUSH15 0x6F7420616C6C6F63617465642E2043 PUSH2 0x6C6C KECCAK256 PUSH4 0x616C6375 PUSH13 0x61746552657475726E7328294C PUSH10 0x71756964697479506F6F PUSH13 0x4D616E616765723A3A61646457 PUSH9 0x6974656C6973746564 POP PUSH16 0x6F6C3A20506F6F6C2063616E6E6F7420 PUSH3 0x652074 PUSH9 0x65207A65726F206164 PUSH5 0x726573734C PUSH10 0x71756964697479506F6F PUSH13 0x4D616E616765723A3A63616C63 PUSH22 0x6C61746552657475726E733A204E6F2059545320746F KECCAK256 PUSH2 0x6C6C PUSH16 0x636174652E2043616C6C207665737441 PUSH13 0x6C6F636174696F6E28292E4C69 PUSH18 0x756964697479506F6F6C4D616E616765723A GASPRICE PUSH8 0x6574417661784C69 PUSH18 0x7569646974793A204F6E65206F6620746865 KECCAK256 PUSH21 0x6F6B656E7320696E207468652070616972206D7573 PUSH21 0x2062652057415641584C6971756964697479506F6F PUSH13 0x4D616E616765723A3A67657441 PUSH23 0x6178597473526174696F3A204E6F20415641582D595453 KECCAK256 PUSH17 0x61697220736574A2646970667358221220 ADD 0xDA 0xF PUSH31 0xD5DFC01091ECD3698A726FA4C1FE1E840B698FDFBDEDCF7EF49B56AD64736F PUSH13 0x63430007060033000000000000 "
        },
        "methodIdentifiers": {
          "addWhitelistedPool(address)": "9080dbee",
          "avaxYtsPair()": "dea96487",
          "calculateAndDistribute()": "933733cf",
          "calculateReturns()": "4ad00082",
          "distributeTokens()": "9ab1b484",
          "distributeTokensSinglePool(uint256)": "796cd9ba",
          "distribution(uint256)": "aa8b0670",
          "getAvaxLiquidity(address)": "db130a49",
          "getAvaxYtsRatio()": "68dfb544",
          "getYtsLiquidity(address,uint256)": "7e9ed57a",
          "isAvaxPair(address)": "8c31ceff",
          "isWhitelisted(address)": "3af32abf",
          "isYtsPair(address)": "7113aa18",
          "numPools()": "35c62bc2",
          "owner()": "8da5cb5b",
          "removeWhitelistedPool(address)": "a8cb13df",
          "renounceOwnership()": "715018a6",
          "setAvaxYtsPair(address)": "2c74ce97",
          "stakes(address)": "16934fc4",
          "transferOwnership(address)": "f2fde38b",
          "treasuryVester()": "150895db",
          "unallocatedYts()": "52f647cd",
          "vestAllocation()": "5278f89c",
          "wavax()": "117be4c2",
          "yts()": "94a4036b"
        }
      }
    }
  }
}