{
  "_format": "hh-sol-artifact-1",
  "contractName": "TreasuryVester",
  "sourceName": "contracts/TreasuryVester.sol",
  "abi": [
    {
      "inputs": [
        {
          "internalType": "address",
          "name": "yts_",
          "type": "address"
        },
        {
          "internalType": "uint256",
          "name": "vestingAmount_",
          "type": "uint256"
        },
        {
          "internalType": "uint256",
          "name": "halvingPeriod_",
          "type": "uint256"
        },
        {
          "internalType": "uint256",
          "name": "vestingCliff_",
          "type": "uint256"
        },
        {
          "internalType": "uint256",
          "name": "startingBalance_",
          "type": "uint256"
        }
      ],
      "stateMutability": "nonpayable",
      "type": "constructor"
    },
    {
      "anonymous": false,
      "inputs": [
        {
          "indexed": true,
          "internalType": "address",
          "name": "previousOwner",
          "type": "address"
        },
        {
          "indexed": true,
          "internalType": "address",
          "name": "newOwner",
          "type": "address"
        }
      ],
      "name": "OwnershipTransferred",
      "type": "event"
    },
    {
      "anonymous": false,
      "inputs": [
        {
          "indexed": false,
          "internalType": "uint256",
          "name": "amount",
          "type": "uint256"
        },
        {
          "indexed": false,
          "internalType": "address",
          "name": "recipient",
          "type": "address"
        }
      ],
      "name": "TokensVested",
      "type": "event"
    },
    {
      "anonymous": false,
      "inputs": [],
      "name": "VestingEnabled",
      "type": "event"
    },
    {
      "inputs": [],
      "name": "claim",
      "outputs": [
        {
          "internalType": "uint256",
          "name": "",
          "type": "uint256"
        }
      ],
      "stateMutability": "nonpayable",
      "type": "function"
    },
    {
      "inputs": [],
      "name": "halvingPeriod",
      "outputs": [
        {
          "internalType": "uint256",
          "name": "",
          "type": "uint256"
        }
      ],
      "stateMutability": "view",
      "type": "function"
    },
    {
      "inputs": [],
      "name": "lastUpdate",
      "outputs": [
        {
          "internalType": "uint256",
          "name": "",
          "type": "uint256"
        }
      ],
      "stateMutability": "view",
      "type": "function"
    },
    {
      "inputs": [],
      "name": "nextSlash",
      "outputs": [
        {
          "internalType": "uint256",
          "name": "",
          "type": "uint256"
        }
      ],
      "stateMutability": "view",
      "type": "function"
    },
    {
      "inputs": [],
      "name": "owner",
      "outputs": [
        {
          "internalType": "address",
          "name": "",
          "type": "address"
        }
      ],
      "stateMutability": "view",
      "type": "function"
    },
    {
      "inputs": [],
      "name": "recipient",
      "outputs": [
        {
          "internalType": "address",
          "name": "",
          "type": "address"
        }
      ],
      "stateMutability": "view",
      "type": "function"
    },
    {
      "inputs": [],
      "name": "renounceOwnership",
      "outputs": [],
      "stateMutability": "nonpayable",
      "type": "function"
    },
    {
      "inputs": [
        {
          "internalType": "address",
          "name": "recipient_",
          "type": "address"
        }
      ],
      "name": "setRecipient",
      "outputs": [],
      "stateMutability": "nonpayable",
      "type": "function"
    },
    {
      "inputs": [],
      "name": "startVesting",
      "outputs": [],
      "stateMutability": "nonpayable",
      "type": "function"
    },
    {
      "inputs": [],
      "name": "startingBalance",
      "outputs": [
        {
          "internalType": "uint256",
          "name": "",
          "type": "uint256"
        }
      ],
      "stateMutability": "view",
      "type": "function"
    },
    {
      "inputs": [
        {
          "internalType": "address",
          "name": "newOwner",
          "type": "address"
        }
      ],
      "name": "transferOwnership",
      "outputs": [],
      "stateMutability": "nonpayable",
      "type": "function"
    },
    {
      "inputs": [],
      "name": "vestingAmount",
      "outputs": [
        {
          "internalType": "uint256",
          "name": "",
          "type": "uint256"
        }
      ],
      "stateMutability": "view",
      "type": "function"
    },
    {
      "inputs": [],
      "name": "vestingCliff",
      "outputs": [
        {
          "internalType": "uint256",
          "name": "",
          "type": "uint256"
        }
      ],
      "stateMutability": "view",
      "type": "function"
    },
    {
      "inputs": [],
      "name": "vestingEnabled",
      "outputs": [
        {
          "internalType": "bool",
          "name": "",
          "type": "bool"
        }
      ],
      "stateMutability": "view",
      "type": "function"
    },
    {
      "inputs": [],
      "name": "yts",
      "outputs": [
        {
          "internalType": "address",
          "name": "",
          "type": "address"
        }
      ],
      "stateMutability": "view",
      "type": "function"
    }
  ],
  "bytecode": "0x608060405234801561001057600080fd5b50604051611013380380611013833981810160405260a081101561003357600080fd5b50805160208201516040830151606084015160809094015192939192909190600061005c61016e565b600080546001600160a01b0319166001600160a01b0383169081178255604051929350917f8be0079c531659141344cd1fd0a4f28419497f9722a3daafe3b4186f6b6457e0908290a35060018055808411156100e95760405162461bcd60e51b8152600401808060200182810382526034815260200180610fdf6034913960400191505060405180910390fd5b60018310156101295760405162461bcd60e51b8152600401808060200182810382526033815260200180610fac6033913960400191505060405180910390fd5b600280546001600160a01b0319166001600160a01b0396909616959095179094556004929092556006819055600591909155600a919091556000600955600755610172565b3390565b610e2b806101816000396000f3fe608060405234801561001057600080fd5b50600436106100f45760003560e01c80637f87bbd611610097578063c046371111610066578063c0463711146101b3578063deb36e32146101bb578063f2fde38b146101c3578063f3640e74146101e9576100f4565b80637f87bbd61461017f5780638da5cb5b1461019b57806394a4036b146101a357806394bd2d3b146101ab576100f4565b80634e71d92d116100d35780634e71d92d146101435780635a3e251f1461014b57806366d003ac14610153578063715018a614610177576100f4565b8062728f76146100f957806328485cfb146101135780633bbed4a01461011b575b600080fd5b6101016101f1565b60408051918252519081900360200190f35b6101016101f7565b6101416004803603602081101561013157600080fd5b50356001600160a01b03166101fd565b005b6101016102a0565b610101610479565b61015b61047f565b604080516001600160a01b039092168252519081900360200190f35b61014161048e565b610187610559565b604080519115158252519081900360200190f35b61015b610562565b61015b610571565b610101610580565b610101610586565b61014161058c565b610141600480360360208110156101d957600080fd5b50356001600160a01b0316610791565b6101016108b2565b60045481565b60075481565b6102056108b8565b6001600160a01b0316610216610562565b6001600160a01b031614610271576040805162461bcd60e51b815260206004820181905260248201527f4f776e61626c653a2063616c6c6572206973206e6f7420746865206f776e6572604482015290519081900360640190fd5b6003805473ffffffffffffffffffffffffffffffffffffffff19166001600160a01b0392909216919091179055565b6000600260015414156102fa576040805162461bcd60e51b815260206004820152601f60248201527f5265656e7472616e637947756172643a207265656e7472616e742063616c6c00604482015290519081900360640190fd5b600260015560085460ff166103405760405162461bcd60e51b815260040180806020018281038252602a815260200180610cc3602a913960400191505060405180910390fd5b6003546001600160a01b031633146103895760405162461bcd60e51b815260040180806020018281038252602f815260200180610c94602f913960400191505060405180910390fd5b600554600954014210156103ce5760405162461bcd60e51b8152600401808060200182810382526023815260200180610d776023913960400191505060405180910390fd5b6007546103ee576006546000190160075560045460029004600455610400565b6007546103fc9060016108bc565b6007555b42600955600454600354604080519283526001600160a01b03909116602083015280517f277d5afb43bf7105f031c47c411e874903f073633432bbe9f5b50c848a0349e19281900390910190a160035460045460025461046e926001600160a01b0391821692911690610919565b506004546001805590565b60065481565b6003546001600160a01b031681565b6104966108b8565b6001600160a01b03166104a7610562565b6001600160a01b031614610502576040805162461bcd60e51b815260206004820181905260248201527f4f776e61626c653a2063616c6c6572206973206e6f7420746865206f776e6572604482015290519081900360640190fd5b600080546040516001600160a01b03909116907f8be0079c531659141344cd1fd0a4f28419497f9722a3daafe3b4186f6b6457e0908390a36000805473ffffffffffffffffffffffffffffffffffffffff19169055565b60085460ff1681565b6000546001600160a01b031690565b6002546001600160a01b031681565b600a5481565b60095481565b6105946108b8565b6001600160a01b03166105a5610562565b6001600160a01b031614610600576040805162461bcd60e51b815260206004820181905260248201527f4f776e61626c653a2063616c6c6572206973206e6f7420746865206f776e6572604482015290519081900360640190fd5b60085460ff16156106425760405162461bcd60e51b8152600401808060200182810382526035815260200180610ced6035913960400191505060405180910390fd5b600a54600254604080517f70a0823100000000000000000000000000000000000000000000000000000000815230600482015290516001600160a01b03909216916370a0823191602480820192602092909190829003018186803b1580156106a957600080fd5b505afa1580156106bd573d6000803e3d6000fd5b505050506040513d60208110156106d357600080fd5b505110156107125760405162461bcd60e51b8152600401808060200182810382526032815260200180610dc46032913960400191505060405180910390fd5b6003546001600160a01b03166107595760405162461bcd60e51b815260040180806020018281038252602f815260200180610d48602f913960400191505060405180910390fd5b6008805460ff191660011790556040517ff78a71daf05bb8e3a2ef9c526b1bb785285cdb83a6130cd12a3bbd5c99c15fa390600090a1565b6107996108b8565b6001600160a01b03166107aa610562565b6001600160a01b031614610805576040805162461bcd60e51b815260206004820181905260248201527f4f776e61626c653a2063616c6c6572206973206e6f7420746865206f776e6572604482015290519081900360640190fd5b6001600160a01b03811661084a5760405162461bcd60e51b8152600401808060200182810382526026815260200180610c6e6026913960400191505060405180910390fd5b600080546040516001600160a01b03808516939216917f8be0079c531659141344cd1fd0a4f28419497f9722a3daafe3b4186f6b6457e091a36000805473ffffffffffffffffffffffffffffffffffffffff19166001600160a01b0392909216919091179055565b60055481565b3390565b600082821115610913576040805162461bcd60e51b815260206004820152601e60248201527f536166654d6174683a207375627472616374696f6e206f766572666c6f770000604482015290519081900360640190fd5b50900390565b604080516001600160a01b038416602482015260448082018490528251808303909101815260649091019091526020810180517bffffffffffffffffffffffffffffffffffffffffffffffffffffffff167fa9059cbb0000000000000000000000000000000000000000000000000000000017905261099990849061099e565b505050565b60006109f3826040518060400160405280602081526020017f5361666545524332303a206c6f772d6c6576656c2063616c6c206661696c6564815250856001600160a01b0316610a4f9092919063ffffffff16565b80519091501561099957808060200190516020811015610a1257600080fd5b50516109995760405162461bcd60e51b815260040180806020018281038252602a815260200180610d9a602a913960400191505060405180910390fd5b6060610a5e8484600085610a68565b90505b9392505050565b606082471015610aa95760405162461bcd60e51b8152600401808060200182810382526026815260200180610d226026913960400191505060405180910390fd5b610ab285610bc3565b610b03576040805162461bcd60e51b815260206004820152601d60248201527f416464726573733a2063616c6c20746f206e6f6e2d636f6e7472616374000000604482015290519081900360640190fd5b600080866001600160a01b031685876040518082805190602001908083835b60208310610b415780518252601f199092019160209182019101610b22565b6001836020036101000a03801982511681845116808217855250505050505090500191505060006040518083038185875af1925050503d8060008114610ba3576040519150601f19603f3d011682016040523d82523d6000602084013e610ba8565b606091505b5091509150610bb8828286610bc9565b979650505050505050565b3b151590565b60608315610bd8575081610a61565b825115610be85782518084602001fd5b8160405162461bcd60e51b81526004018080602001828103825283818151815260200191508051906020019080838360005b83811015610c32578181015183820152602001610c1a565b50505050905090810190601f168015610c5f5780820380516001836020036101000a031916815260200191505b509250505060405180910390fdfe4f776e61626c653a206e6577206f776e657220697320746865207a65726f206164647265737354726561737572795665737465723a3a636c61696d3a206f6e6c7920726563697069656e742063616e20636c61696d54726561737572795665737465723a3a636c61696d3a2076657374696e67206e6f7420656e61626c656454726561737572795665737465723a3a737461727456657374696e673a2076657374696e6720616c72656164792073746172746564416464726573733a20696e73756666696369656e742062616c616e636520666f722063616c6c54726561737572795665737465723a3a737461727456657374696e673a20726563697069656e74206e6f742073657454726561737572795665737465723a3a636c61696d3a206e6f742074696d65207965745361666545524332303a204552433230206f7065726174696f6e20646964206e6f74207375636365656454726561737572795665737465723a3a737461727456657374696e673a20696e636f72726563742059545320737570706c79a2646970667358221220aff2d43324748399fe065172b1659aa6354e9e89636c50cc85fbb6d589bb705064736f6c6343000706003354726561737572795665737465723a3a636f6e7374727563746f723a20496e76616c69642068616c76696e6720706572696f6454726561737572795665737465723a3a636f6e7374727563746f723a2056657374696e6720616d6f756e7420746f6f2068696768",
  "linkReferences": {},
  "deployedLinkReferences": {}
}