{
  "_format": "hh-sol-artifact-1",
  "contractName": "LiquidityPoolManager",
  "sourceName": "contracts/LiquidityPoolManager.sol",
  "abi": [
    {
      "inputs": [
        {
          "internalType": "address",
          "name": "wavax_",
          "type": "address"
        },
        {
          "internalType": "address",
          "name": "yts_",
          "type": "address"
        },
        {
          "internalType": "address",
          "name": "treasuryVester_",
          "type": "address"
        }
      ],
      "stateMutability": "nonpayable",
      "type": "constructor"
    },
    {
      "anonymous": false,
      "inputs": [
        {
          "indexed": true,
          "internalType": "address",
          "name": "previousOwner",
          "type": "address"
        },
        {
          "indexed": true,
          "internalType": "address",
          "name": "newOwner",
          "type": "address"
        }
      ],
      "name": "OwnershipTransferred",
      "type": "event"
    },
    {
      "inputs": [
        {
          "internalType": "address",
          "name": "pair",
          "type": "address"
        }
      ],
      "name": "addWhitelistedPool",
      "outputs": [],
      "stateMutability": "nonpayable",
      "type": "function"
    },
    {
      "inputs": [],
      "name": "avaxYtsPair",
      "outputs": [
        {
          "internalType": "address",
          "name": "",
          "type": "address"
        }
      ],
      "stateMutability": "view",
      "type": "function"
    },
    {
      "inputs": [],
      "name": "calculateAndDistribute",
      "outputs": [],
      "stateMutability": "nonpayable",
      "type": "function"
    },
    {
      "inputs": [],
      "name": "calculateReturns",
      "outputs": [],
      "stateMutability": "nonpayable",
      "type": "function"
    },
    {
      "inputs": [],
      "name": "distributeTokens",
      "outputs": [],
      "stateMutability": "nonpayable",
      "type": "function"
    },
    {
      "inputs": [
        {
          "internalType": "uint256",
          "name": "pairIndex",
          "type": "uint256"
        }
      ],
      "name": "distributeTokensSinglePool",
      "outputs": [],
      "stateMutability": "nonpayable",
      "type": "function"
    },
    {
      "inputs": [
        {
          "internalType": "uint256",
          "name": "",
          "type": "uint256"
        }
      ],
      "name": "distribution",
      "outputs": [
        {
          "internalType": "uint256",
          "name": "",
          "type": "uint256"
        }
      ],
      "stateMutability": "view",
      "type": "function"
    },
    {
      "inputs": [
        {
          "internalType": "address",
          "name": "pair",
          "type": "address"
        }
      ],
      "name": "getAvaxLiquidity",
      "outputs": [
        {
          "internalType": "uint256",
          "name": "",
          "type": "uint256"
        }
      ],
      "stateMutability": "view",
      "type": "function"
    },
    {
      "inputs": [],
      "name": "getAvaxYtsRatio",
      "outputs": [
        {
          "internalType": "uint256",
          "name": "conversionFactor",
          "type": "uint256"
        }
      ],
      "stateMutability": "view",
      "type": "function"
    },
    {
      "inputs": [
        {
          "internalType": "address",
          "name": "pair",
          "type": "address"
        },
        {
          "internalType": "uint256",
          "name": "conversionFactor",
          "type": "uint256"
        }
      ],
      "name": "getYtsLiquidity",
      "outputs": [
        {
          "internalType": "uint256",
          "name": "",
          "type": "uint256"
        }
      ],
      "stateMutability": "view",
      "type": "function"
    },
    {
      "inputs": [
        {
          "internalType": "address",
          "name": "pair",
          "type": "address"
        }
      ],
      "name": "isAvaxPair",
      "outputs": [
        {
          "internalType": "bool",
          "name": "",
          "type": "bool"
        }
      ],
      "stateMutability": "view",
      "type": "function"
    },
    {
      "inputs": [
        {
          "internalType": "address",
          "name": "pair",
          "type": "address"
        }
      ],
      "name": "isWhitelisted",
      "outputs": [
        {
          "internalType": "bool",
          "name": "",
          "type": "bool"
        }
      ],
      "stateMutability": "view",
      "type": "function"
    },
    {
      "inputs": [
        {
          "internalType": "address",
          "name": "pair",
          "type": "address"
        }
      ],
      "name": "isYtsPair",
      "outputs": [
        {
          "internalType": "bool",
          "name": "",
          "type": "bool"
        }
      ],
      "stateMutability": "view",
      "type": "function"
    },
    {
      "inputs": [],
      "name": "manualVestAllocation",
      "outputs": [],
      "stateMutability": "nonpayable",
      "type": "function"
    },
    {
      "inputs": [],
      "name": "numPools",
      "outputs": [
        {
          "internalType": "uint256",
          "name": "",
          "type": "uint256"
        }
      ],
      "stateMutability": "view",
      "type": "function"
    },
    {
      "inputs": [],
      "name": "owner",
      "outputs": [
        {
          "internalType": "address",
          "name": "",
          "type": "address"
        }
      ],
      "stateMutability": "view",
      "type": "function"
    },
    {
      "inputs": [
        {
          "internalType": "address",
          "name": "pair",
          "type": "address"
        }
      ],
      "name": "removeWhitelistedPool",
      "outputs": [],
      "stateMutability": "nonpayable",
      "type": "function"
    },
    {
      "inputs": [],
      "name": "renounceOwnership",
      "outputs": [],
      "stateMutability": "nonpayable",
      "type": "function"
    },
    {
      "inputs": [
        {
          "internalType": "address",
          "name": "avaxYtsPair_",
          "type": "address"
        }
      ],
      "name": "setAvaxYtsPair",
      "outputs": [],
      "stateMutability": "nonpayable",
      "type": "function"
    },
    {
      "inputs": [
        {
          "internalType": "address",
          "name": "",
          "type": "address"
        }
      ],
      "name": "stakes",
      "outputs": [
        {
          "internalType": "address",
          "name": "",
          "type": "address"
        }
      ],
      "stateMutability": "view",
      "type": "function"
    },
    {
      "inputs": [
        {
          "internalType": "address",
          "name": "newOwner",
          "type": "address"
        }
      ],
      "name": "transferOwnership",
      "outputs": [],
      "stateMutability": "nonpayable",
      "type": "function"
    },
    {
      "inputs": [],
      "name": "treasuryVester",
      "outputs": [
        {
          "internalType": "address",
          "name": "",
          "type": "address"
        }
      ],
      "stateMutability": "view",
      "type": "function"
    },
    {
      "inputs": [],
      "name": "unallocatedYts",
      "outputs": [
        {
          "internalType": "uint256",
          "name": "",
          "type": "uint256"
        }
      ],
      "stateMutability": "view",
      "type": "function"
    },
    {
      "inputs": [],
      "name": "vestAllocation",
      "outputs": [],
      "stateMutability": "nonpayable",
      "type": "function"
    },
    {
      "inputs": [],
      "name": "wavax",
      "outputs": [
        {
          "internalType": "address",
          "name": "",
          "type": "address"
        }
      ],
      "stateMutability": "view",
      "type": "function"
    },
    {
      "inputs": [],
      "name": "yts",
      "outputs": [
        {
          "internalType": "address",
          "name": "",
          "type": "address"
        }
      ],
      "stateMutability": "view",
      "type": "function"
    }
  ],
  "bytecode": "0x60806040526000600b819055600c805460ff19169055600e5534801561002457600080fd5b50604051620043b3380380620043b38339818101604052606081101561004957600080fd5b508051602082015160409092015190919060006100646100f4565b600080546001600160a01b0319166001600160a01b0383169081178255604051929350917f8be0079c531659141344cd1fd0a4f28419497f9722a3daafe3b4186f6b6457e0908290a35060018055600780546001600160a01b039485166001600160a01b0319918216179091556008805493851693821693909317909255600a80549190931691161790556100f8565b3390565b6142ab80620001086000396000f3fe60806040523480156200001157600080fd5b5060043610620001d85760003560e01c80637e9ed57a11620001055780639ab1b48411620000a5578063bca75d69116200007b578063bca75d691462000427578063db130a491462000431578063dea96487146200045a578063f2fde38b146200046457620001d8565b80639ab1b48414620003d4578063a8cb13df14620003de578063aa8b0670146200040757620001d8565b80639080dbee11620000db5780639080dbee1462000397578063933733cf14620003c057806394a4036b14620003ca57620001d8565b80637e9ed57a14620003355780638c31ceff14620003645780638da5cb5b146200038d57620001d8565b80634ad00082116200017d57806368dfb544116200015357806368dfb54414620002d85780637113aa1814620002e2578063715018a6146200030b578063796cd9ba146200031557620001d8565b80634ad0008214620002ba5780635278f89c14620002c457806352f647cd14620002ce57620001d8565b80632c74ce9711620001b35780632c74ce97146200023657806335c62bc214620002615780633af32abf146200027d57620001d8565b8063117be4c214620001dd578063150895db146200020357806316934fc4146200020d575b600080fd5b620001e76200048d565b604080516001600160a01b039092168252519081900360200190f35b620001e76200049c565b620001e7600480360360208110156200022557600080fd5b50356001600160a01b0316620004ab565b6200025f600480360360208110156200024e57600080fd5b50356001600160a01b0316620004c6565b005b6200026b620005a8565b60408051918252519081900360200190f35b620002a6600480360360208110156200029557600080fd5b50356001600160a01b0316620005ae565b604080519115158252519081900360200190f35b6200025f620005d7565b6200025f620008a2565b6200026b62000a82565b6200026b62000a88565b620002a660048036036020811015620002fa57600080fd5b50356001600160a01b031662000c23565b6200025f62000c32565b6200025f600480360360208110156200032d57600080fd5b503562000cf5565b6200026b600480360360408110156200034d57600080fd5b506001600160a01b03813516906020013562000fd5565b620002a6600480360360208110156200037c57600080fd5b50356001600160a01b0316620011fd565b620001e76200120c565b6200025f60048036036020811015620003af57600080fd5b50356001600160a01b03166200121b565b6200025f62001556565b620001e76200156c565b6200025f6200157b565b6200025f60048036036020811015620003f657600080fd5b50356001600160a01b03166200181e565b6200026b600480360360208110156200041f57600080fd5b503562001a4b565b6200025f620009a4565b6200026b600480360360208110156200044957600080fd5b50356001600160a01b031662001a6d565b620001e762001c77565b6200025f600480360360208110156200047c57600080fd5b50356001600160a01b031662001c86565b6007546001600160a01b031681565b600a546001600160a01b031681565b6006602052600090815260409020546001600160a01b031681565b620004d062001da1565b6001600160a01b0316620004e36200120c565b6001600160a01b0316146200053f576040805162461bcd60e51b815260206004820181905260248201527f4f776e61626c653a2063616c6c6572206973206e6f7420746865206f776e6572604482015290519081900360640190fd5b6001600160a01b038116620005865760405162461bcd60e51b815260040180806020018281038252604581526020018062003cbf6045913960600191505060405180910390fd5b600980546001600160a01b0319166001600160a01b0392909216919091179055565b600b5481565b6000620005bd60028362001da5565b80620005d15750620005d160048362001da5565b92915050565b600c5460ff16156200061b5760405162461bcd60e51b81526004018080602001828103825260618152602001806200400c6061913960800191505060405180910390fd5b6000600e54116200065e5760405162461bcd60e51b8152600401808060200182810382526052815260200180620041966052913960600191505060405180910390fd5b60006200066c600462001dc3565b1115620006bc576009546001600160a01b0316620006bc5760405162461bcd60e51b815260040180806020018281038252603d81526020018062003d2a603d913960400191505060405180910390fd5b600b5467ffffffffffffffff81118015620006d657600080fd5b5060405190808252806020026020018201604052801562000701578160200160208202803683370190505b5080516200071891600d91602090910190620021a1565b506000805b62000729600262001dc3565b8110156200077f5760006200074a6200074460028462001dd0565b62001a6d565b905080600d83815481106200075b57fe5b60009182526020909120015562000773838262001dde565b9250506001016200071d565b5060006200078e600462001dc3565b111562000819576000620007a162000a88565b905060005b620007b2600462001dc3565b81101562000816576000620007d4620007cd60048462001dd0565b8462000fd5565b905080600d620007e5600262001dc3565b840181548110620007f257fe5b6000918252602090912001556200080a848262001dde565b935050600101620007a6565b50505b6000805b600d548110156200089057600062000865846200085e600e54600d86815481106200084457fe5b906000526020600020015462001e3990919063ffffffff16565b9062001e97565b905080600d83815481106200087657fe5b60009182526020909120015591909101906001016200081d565b5050600c805460ff1916600117905550565b600e5415620008e35760405162461bcd60e51b815260040180806020018281038252605681526020018062003e146056913960600191505060405180910390fd5b600a60009054906101000a90046001600160a01b03166001600160a01b0316634e71d92d6040518163ffffffff1660e01b8152600401602060405180830381600087803b1580156200093457600080fd5b505af115801562000949573d6000803e3d6000fd5b505050506040513d60208110156200096057600080fd5b5051600e819055620009a45760405162461bcd60e51b815260040180806020018281038252604a8152602001806200406d604a913960600191505060405180910390fd5b600854604080517f70a0823100000000000000000000000000000000000000000000000000000000815230600482015290516000926001600160a01b0316916370a08231916024808301926020929190829003018186803b15801562000a0957600080fd5b505afa15801562000a1e573d6000803e3d6000fd5b505050506040513d602081101562000a3557600080fd5b5051600e5490915081101562000a7d5760405162461bcd60e51b815260040180806020018281038252604281526020018062003e6a6042913960600191505060405180910390fd5b600e55565b600e5481565b6009546000906001600160a01b031662000ad45760405162461bcd60e51b815260040180806020018281038252603b8152602001806200423b603b913960400191505060405180910390fd5b600080600960009054906101000a90046001600160a01b03166001600160a01b0316630902f1ac6040518163ffffffff1660e01b815260040160606040518083038186803b15801562000b2657600080fd5b505afa15801562000b3b573d6000803e3d6000fd5b505050506040513d606081101562000b5257600080fd5b50805160209182015160075460095460408051630dfe168160e01b815290516dffffffffffffffffffffffffffff95861698509490931695506001600160a01b0391821694911692630dfe1681926004808201939291829003018186803b15801562000bbd57600080fd5b505afa15801562000bd2573d6000803e3d6000fd5b505050506040513d602081101562000be957600080fd5b50516001600160a01b0316141562000c0f5762000c07818362001f00565b925062000c1e565b62000c1b828262001f00565b92505b505090565b6000620005d160048362001da5565b62000c3c62001da1565b6001600160a01b031662000c4f6200120c565b6001600160a01b03161462000cab576040805162461bcd60e51b815260206004820181905260248201527f4f776e61626c653a2063616c6c6572206973206e6f7420746865206f776e6572604482015290519081900360640190fd5b600080546040516001600160a01b03909116907f8be0079c531659141344cd1fd0a4f28419497f9722a3daafe3b4186f6b6457e0908390a3600080546001600160a01b0319169055565b6002600154141562000d4e576040805162461bcd60e51b815260206004820152601f60248201527f5265656e7472616e637947756172643a207265656e7472616e742063616c6c00604482015290519081900360640190fd5b6002600155600c5460ff1662000d965760405162461bcd60e51b815260040180806020018281038252606981526020018062003dab6069913960800191505060405180910390fd5b600b54811062000dd85760405162461bcd60e51b815260040180806020018281038252604581526020018062003f5e6045913960600191505060405180910390fd5b600062000de6600262001dc3565b82101562000e24576006600062000dff60028562001dd0565b6001600160a01b03908116825260208201929092526040016000205416905062000e63565b6006600062000e4362000e38600262001dc3565b600490860362001dd0565b6001600160a01b0390811682526020820192909252604001600020541690505b6000600d838154811062000e7357fe5b90600052602060002001549050600081111562000fcc576000600d848154811062000e9a57fe5b60009182526020808320909101929092556008546040805163a9059cbb60e01b81526001600160a01b038781166004830152602482018790529151919092169363a9059cbb936044808501949293928390030190829087803b15801562000f0057600080fd5b505af115801562000f15573d6000803e3d6000fd5b505050506040513d602081101562000f2c57600080fd5b505162000f6b5760405162461bcd60e51b8152600401808060200182810382526037815260200180620040b76037913960400191505060405180910390fd5b816001600160a01b0316633c6b16ab826040518263ffffffff1660e01b815260040180828152602001915050600060405180830381600087803b15801562000fb257600080fd5b505af115801562000fc7573d6000803e3d6000fd5b505050505b50506001805550565b6000806000846001600160a01b0316630902f1ac6040518163ffffffff1660e01b815260040160606040518083038186803b1580156200101457600080fd5b505afa15801562001029573d6000803e3d6000fd5b505050506040513d60608110156200104057600080fd5b50805160209182015160085460408051630dfe168160e01b815290516dffffffffffffffffffffffffffff94851697509390921694506000936001600160a01b0391821693918a1692630dfe16819260048083019392829003018186803b158015620010ab57600080fd5b505afa158015620010c0573d6000803e3d6000fd5b505050506040513d6020811015620010d757600080fd5b50516001600160a01b03161415620010fd57620010f5818462001dde565b9050620011c9565b6008546040805163d21220a760e01b815290516001600160a01b039283169289169163d21220a7916004808301926020929190829003018186803b1580156200114557600080fd5b505afa1580156200115a573d6000803e3d6000fd5b505050506040513d60208110156200117157600080fd5b50516001600160a01b031614620011ba5760405162461bcd60e51b815260040180806020018281038252605081526020018062003f0e6050913960600191505060405180910390fd5b620011c6818362001dde565b90505b670de0b6b3a7640000620011e3816200085e848962001e39565b9150620011f282600262001e39565b979650505050505050565b6000620005d160028362001da5565b6000546001600160a01b031690565b6200122562001da1565b6001600160a01b0316620012386200120c565b6001600160a01b03161462001294576040805162461bcd60e51b815260206004820181905260248201527f4f776e61626c653a2063616c6c6572206973206e6f7420746865206f776e6572604482015290519081900360640190fd5b6001600160a01b038116620012db5760405162461bcd60e51b81526004018080602001828103825260498152602001806200414d6049913960600191505060405180910390fd5b620012e681620005ae565b15620013245760405162461bcd60e51b815260040180806020018281038252604281526020018062003fca6042913960600191505060405180910390fd5b6000816001600160a01b0316630dfe16816040518163ffffffff1660e01b815260040160206040518083038186803b1580156200136057600080fd5b505afa15801562001375573d6000803e3d6000fd5b505050506040513d60208110156200138c57600080fd5b50516040805163d21220a760e01b815290519192506000916001600160a01b0385169163d21220a7916004808301926020929190829003018186803b158015620013d557600080fd5b505afa158015620013ea573d6000803e3d6000fd5b505050506040513d60208110156200140157600080fd5b50516008546040519192506000916001600160a01b039091169085906200142890620021f1565b6001600160a01b03928316815291166020820152604080519182900301906000f0801580156200145c573d6000803e3d6000fd5b506001600160a01b03858116600090815260066020526040902080546001600160a01b0319168383161790556007549192509081169084161480620014ae57506007546001600160a01b038381169116145b15620014c857620014c160028562001f77565b506200153d565b6008546001600160a01b0384811691161480620014f257506008546001600160a01b038381169116145b156200150557620014c160048562001f77565b60405162461bcd60e51b815260040180806020018281038252604481526020018062003d676044913960600191505060405180910390fd5b600b546200154d90600162001dde565b600b5550505050565b62001560620005d7565b6200156a6200157b565b565b6008546001600160a01b031681565b60026001541415620015d4576040805162461bcd60e51b815260206004820152601f60248201527f5265656e7472616e637947756172643a207265656e7472616e742063616c6c00604482015290519081900360640190fd5b6002600155600c5460ff166200161c5760405162461bcd60e51b815260040180806020018281038252605f815260200180620040ee605f913960600191505060405180910390fd5b600c805460ff19169055600080805b600d54811015620018105762001642600262001dc3565b8110156200168057600660006200165b60028462001dd0565b6001600160a01b039081168252602082019290925260400160002054169250620016bf565b600660006200169f62001694600262001dc3565b600490850362001dd0565b6001600160a01b0390811682526020820192909252604001600020541692505b600d8181548110620016cd57fe5b90600052602060002001549150600082111562001807576008546040805163a9059cbb60e01b81526001600160a01b038681166004830152602482018690529151919092169163a9059cbb9160448083019260209291908290030181600087803b1580156200173b57600080fd5b505af115801562001750573d6000803e3d6000fd5b505050506040513d60208110156200176757600080fd5b5051620017a65760405162461bcd60e51b8152600401808060200182810382526037815260200180620040b76037913960400191505060405180910390fd5b826001600160a01b0316633c6b16ab836040518263ffffffff1660e01b815260040180828152602001915050600060405180830381600087803b158015620017ed57600080fd5b505af115801562001802573d6000803e3d6000fd5b505050505b6001016200162b565b50506000600e555060018055565b6200182862001da1565b6001600160a01b03166200183b6200120c565b6001600160a01b03161462001897576040805162461bcd60e51b815260206004820181905260248201527f4f776e61626c653a2063616c6c6572206973206e6f7420746865206f776e6572604482015290519081900360640190fd5b620018a281620005ae565b620018df5760405162461bcd60e51b815260040180806020018281038252604181526020018062003eac6041913960600191505060405180910390fd5b6000816001600160a01b0316630dfe16816040518163ffffffff1660e01b815260040160206040518083038186803b1580156200191b57600080fd5b505afa15801562001930573d6000803e3d6000fd5b505050506040513d60208110156200194757600080fd5b50516040805163d21220a760e01b815290519192506000916001600160a01b0385169163d21220a7916004808301926020929190829003018186803b1580156200199057600080fd5b505afa158015620019a5573d6000803e3d6000fd5b505050506040513d6020811015620019bc57600080fd5b50516001600160a01b03808516600090815260066020526040902080546001600160a01b03191690556007549192508381169116148062001a0a57506007546001600160a01b038281169116145b1562001a245762001a1d60028462001f8e565b5062001a33565b62001a3160048462001f8e565b505b600b5462001a4390600162001fa5565b600b55505050565b600d818154811062001a5c57600080fd5b600091825260209091200154905081565b6000806000836001600160a01b0316630902f1ac6040518163ffffffff1660e01b815260040160606040518083038186803b15801562001aac57600080fd5b505afa15801562001ac1573d6000803e3d6000fd5b505050506040513d606081101562001ad857600080fd5b50805160209182015160075460408051630dfe168160e01b815290516dffffffffffffffffffffffffffff94851697509390921694506000936001600160a01b039182169391891692630dfe16819260048083019392829003018186803b15801562001b4357600080fd5b505afa15801562001b58573d6000803e3d6000fd5b505050506040513d602081101562001b6f57600080fd5b50516001600160a01b0316141562001b955762001b8d818462001dde565b905062001c61565b6007546040805163d21220a760e01b815290516001600160a01b039283169288169163d21220a7916004808301926020929190829003018186803b15801562001bdd57600080fd5b505afa15801562001bf2573d6000803e3d6000fd5b505050506040513d602081101562001c0957600080fd5b50516001600160a01b03161462001c525760405162461bcd60e51b8152600401808060200182810382526053815260200180620041e86053913960600191505060405180910390fd5b62001c5e818362001dde565b90505b62001c6e81600262001e39565b95945050505050565b6009546001600160a01b031681565b62001c9062001da1565b6001600160a01b031662001ca36200120c565b6001600160a01b03161462001cff576040805162461bcd60e51b815260206004820181905260248201527f4f776e61626c653a2063616c6c6572206973206e6f7420746865206f776e6572604482015290519081900360640190fd5b6001600160a01b03811662001d465760405162461bcd60e51b815260040180806020018281038252602681526020018062003d046026913960400191505060405180910390fd5b600080546040516001600160a01b03808516939216917f8be0079c531659141344cd1fd0a4f28419497f9722a3daafe3b4186f6b6457e091a3600080546001600160a01b0319166001600160a01b0392909216919091179055565b3390565b600062001dbc836001600160a01b03841662002003565b9392505050565b6000620005d1826200201b565b600062001dbc83836200201f565b60008282018381101562001dbc576040805162461bcd60e51b815260206004820152601b60248201527f536166654d6174683a206164646974696f6e206f766572666c6f770000000000604482015290519081900360640190fd5b60008262001e4a57506000620005d1565b8282028284828162001e5857fe5b041462001dbc5760405162461bcd60e51b815260040180806020018281038252602181526020018062003eed6021913960400191505060405180910390fd5b600080821162001eee576040805162461bcd60e51b815260206004820152601a60248201527f536166654d6174683a206469766973696f6e206279207a65726f000000000000604482015290519081900360640190fd5b81838162001ef857fe5b049392505050565b6000808311801562001f125750600082115b62001f4f5760405162461bcd60e51b815260040180806020018281038252602781526020018062003fa36027913960400191505060405180910390fd5b670de0b6b3a764000062001f6f62001f68828562001e39565b8562001e97565b949350505050565b600062001dbc836001600160a01b03841662002086565b600062001dbc836001600160a01b038416620020d5565b60008282111562001ffd576040805162461bcd60e51b815260206004820152601e60248201527f536166654d6174683a207375627472616374696f6e206f766572666c6f770000604482015290519081900360640190fd5b50900390565b60009081526001919091016020526040902054151590565b5490565b81546000908210620020635760405162461bcd60e51b815260040180806020018281038252602281526020018062003c9d6022913960400191505060405180910390fd5b8260000182815481106200207357fe5b9060005260206000200154905092915050565b600062002094838362002003565b620020cc57508154600181810184556000848152602080822090930184905584548482528286019093526040902091909155620005d1565b506000620005d1565b600081815260018301602052604081205480156200219657835460001980830191908101906000908790839081106200210a57fe5b90600052602060002001549050808760000184815481106200212857fe5b6000918252602080832090910192909255828152600189810190925260409020908401905586548790806200215957fe5b60019003818190600052602060002001600090559055866001016000878152602001908152602001600020600090556001945050505050620005d1565b6000915050620005d1565b828054828255906000526020600020908101928215620021df579160200282015b82811115620021df578251825591602001919060010190620021c2565b50620021ed929150620021ff565b5090565b611a86806200221783390190565b5b80821115620021ed57600081556001016200220056fe60806040526000600455600060055561025860065534801561002057600080fd5b50604051611a86380380611a868339818101604052604081101561004357600080fd5b5080516020909101516001600090815561005b6100da565b600180546001600160a01b0319166001600160a01b038316908117909155604051919250906000907f8be0079c531659141344cd1fd0a4f28419497f9722a3daafe3b4186f6b6457e0908290a350600280546001600160a01b039384166001600160a01b031991821617909155600380549290931691161790556100de565b3390565b611999806100ed6000396000f3fe608060405234801561001057600080fd5b50600436106101ad5760003560e01c80638980f11f116100ee578063cd3daf9d11610097578063e9fad8ee11610071578063e9fad8ee14610382578063ebe2b12b1461038a578063ecd9ba8214610392578063f2fde38b146103ca576101ad565b8063cd3daf9d1461036a578063d1af0c7d14610372578063df136d651461037a576101ad565b8063a694fc3a116100c8578063a694fc3a14610328578063c8f33c9114610345578063cc1a378f1461034d576101ad565b80638980f11f146102ce5780638b876347146102fa5780638da5cb5b14610320576101ad565b80633c6b16ab1161015b578063715018a611610135578063715018a61461029257806372f702f31461029a5780637b0a47ee146102be57806380faa57d146102c6576101ad565b80633c6b16ab146102475780633d18b9121461026457806370a082311461026c576101ad565b80631c1f78eb1161018c5780631c1f78eb146102185780632e1a7d4d14610220578063386a95251461023f576101ad565b80628cc262146101b25780630700037d146101ea57806318160ddd14610210575b600080fd5b6101d8600480360360208110156101c857600080fd5b50356001600160a01b03166103f0565b60408051918252519081900360200190f35b6101d86004803603602081101561020057600080fd5b50356001600160a01b031661046e565b6101d8610480565b6101d8610487565b61023d6004803603602081101561023657600080fd5b50356104a5565b005b6101d8610647565b61023d6004803603602081101561025d57600080fd5b503561064d565b61023d6108c4565b6101d86004803603602081101561028257600080fd5b50356001600160a01b03166109fb565b61023d610a16565b6102a2610ae1565b604080516001600160a01b039092168252519081900360200190f35b6101d8610af0565b6101d8610af6565b61023d600480360360408110156102e457600080fd5b506001600160a01b038135169060200135610b04565b6101d86004803603602081101561031057600080fd5b50356001600160a01b0316610c29565b6102a2610c3b565b61023d6004803603602081101561033e57600080fd5b5035610c4a565b6101d8610ded565b61023d6004803603602081101561036357600080fd5b5035610df3565b6101d8610ee2565b6102a2610f30565b6101d8610f3f565b61023d610f45565b6101d8610f68565b61023d600480360360a08110156103a857600080fd5b5080359060208101359060ff6040820135169060608101359060800135610f6e565b61023d600480360360208110156103e057600080fd5b50356001600160a01b03166111b9565b6001600160a01b0381166000908152600a60209081526040808320546009909252822054610468919061046290670de0b6b3a76400009061045c9061043d90610437610ee2565b906112db565b6001600160a01b0388166000908152600c602052604090205490611338565b90611398565b906113ff565b92915050565b600a6020526000908152604090205481565b600b545b90565b60006104a060065460055461133890919063ffffffff16565b905090565b600260005414156104fd576040805162461bcd60e51b815260206004820152601f60248201527f5265656e7472616e637947756172643a207265656e7472616e742063616c6c00604482015290519081900360640190fd5b60026000553361050b610ee2565b600855610516610af6565b6007556001600160a01b0381161561055d57610531816103f0565b6001600160a01b0382166000908152600a60209081526040808320939093556008546009909152919020555b600082116105b2576040805162461bcd60e51b815260206004820152601160248201527f43616e6e6f742077697468647261772030000000000000000000000000000000604482015290519081900360640190fd5b600b546105bf90836112db565b600b55336000908152600c60205260409020546105dc90836112db565b336000818152600c6020526040902091909155600354610608916001600160a01b039091169084611459565b60408051838152905133917f7084f5476618d8e60b11ef0d7d3f06914655adb8793e28ff7f018d4c76d505d5919081900360200190a250506001600055565b60065481565b6106556114de565b6001600160a01b0316610666610c3b565b6001600160a01b0316146106c1576040805162461bcd60e51b815260206004820181905260248201527f4f776e61626c653a2063616c6c6572206973206e6f7420746865206f776e6572604482015290519081900360640190fd5b60006106cb610ee2565b6008556106d6610af6565b6007556001600160a01b0381161561071d576106f1816103f0565b6001600160a01b0382166000908152600a60209081526040808320939093556008546009909152919020555b600454421061073c57600654610734908390611398565b60055561077f565b60045460009061074c90426112db565b905060006107656005548361133890919063ffffffff16565b6006549091506107799061045c86846113ff565b60055550505b600254604080517f70a0823100000000000000000000000000000000000000000000000000000000815230600482015290516000926001600160a01b0316916370a08231916024808301926020929190829003018186803b1580156107e357600080fd5b505afa1580156107f7573d6000803e3d6000fd5b505050506040513d602081101561080d57600080fd5b5051600654909150610820908290611398565b6005541115610876576040805162461bcd60e51b815260206004820152601860248201527f50726f76696465642072657761726420746f6f20686967680000000000000000604482015290519081900360640190fd5b42600781905560065461088991906113ff565b6004556040805184815290517fde88a922e0d3b88b24e9623efeb464919c6bf9f66857a65e2bfcf2ce87a9433d9181900360200190a1505050565b6002600054141561091c576040805162461bcd60e51b815260206004820152601f60248201527f5265656e7472616e637947756172643a207265656e7472616e742063616c6c00604482015290519081900360640190fd5b60026000553361092a610ee2565b600855610935610af6565b6007556001600160a01b0381161561097c57610950816103f0565b6001600160a01b0382166000908152600a60209081526040808320939093556008546009909152919020555b336000908152600a602052604090205480156109f257336000818152600a60205260408120556002546109bb916001600160a01b039091169083611459565b60408051828152905133917fe2403640ba68fed3a2f88b7557551d1993f84b99bb10ff833f0cf8db0c5e0486919081900360200190a25b50506001600055565b6001600160a01b03166000908152600c602052604090205490565b610a1e6114de565b6001600160a01b0316610a2f610c3b565b6001600160a01b031614610a8a576040805162461bcd60e51b815260206004820181905260248201527f4f776e61626c653a2063616c6c6572206973206e6f7420746865206f776e6572604482015290519081900360640190fd5b6001546040516000916001600160a01b0316907f8be0079c531659141344cd1fd0a4f28419497f9722a3daafe3b4186f6b6457e0908390a36001805473ffffffffffffffffffffffffffffffffffffffff19169055565b6003546001600160a01b031681565b60055481565b60006104a0426004546114e2565b610b0c6114de565b6001600160a01b0316610b1d610c3b565b6001600160a01b031614610b78576040805162461bcd60e51b815260206004820181905260248201527f4f776e61626c653a2063616c6c6572206973206e6f7420746865206f776e6572604482015290519081900360640190fd5b6003546001600160a01b0383811691161415610bc55760405162461bcd60e51b81526004018080602001828103825260218152602001806119436021913960400191505060405180910390fd5b610be1610bd0610c3b565b6001600160a01b0384169083611459565b604080516001600160a01b03841681526020810183905281517f8c1256b8896378cd5044f80c202f9772b9d77dc85c8a6eb51967210b09bfaa28929181900390910190a15050565b60096020526000908152604090205481565b6001546001600160a01b031690565b60026000541415610ca2576040805162461bcd60e51b815260206004820152601f60248201527f5265656e7472616e637947756172643a207265656e7472616e742063616c6c00604482015290519081900360640190fd5b600260005533610cb0610ee2565b600855610cbb610af6565b6007556001600160a01b03811615610d0257610cd6816103f0565b6001600160a01b0382166000908152600a60209081526040808320939093556008546009909152919020555b60008211610d57576040805162461bcd60e51b815260206004820152600e60248201527f43616e6e6f74207374616b652030000000000000000000000000000000000000604482015290519081900360640190fd5b600b54610d6490836113ff565b600b55336000908152600c6020526040902054610d8190836113ff565b336000818152600c6020526040902091909155600354610dae916001600160a01b039091169030856114f8565b60408051838152905133917f9e71bc8eea02a63969f509818f2dafb9254532904319f9dbda79b67bd34a5f3d919081900360200190a250506001600055565b60075481565b610dfb6114de565b6001600160a01b0316610e0c610c3b565b6001600160a01b031614610e67576040805162461bcd60e51b815260206004820181905260248201527f4f776e61626c653a2063616c6c6572206973206e6f7420746865206f776e6572604482015290519081900360640190fd5b6004544211610ea75760405162461bcd60e51b81526004018080602001828103825260588152602001806118546058913960600191505060405180910390fd5b60068190556040805182815290517ffb46ca5a5e06d4540d6387b930a7c978bce0db5f449ec6b3f5d07c6e1d44f2d39181900360200190a150565b6000600b5460001415610ef85750600854610484565b6104a0610f27600b5461045c670de0b6b3a7640000610f21600554610f21600754610437610af6565b90611338565b600854906113ff565b6002546001600160a01b031681565b60085481565b336000908152600c6020526040902054610f5e906104a5565b610f666108c4565b565b60045481565b60026000541415610fc6576040805162461bcd60e51b815260206004820152601f60248201527f5265656e7472616e637947756172643a207265656e7472616e742063616c6c00604482015290519081900360640190fd5b600260005533610fd4610ee2565b600855610fdf610af6565b6007556001600160a01b0381161561102657610ffa816103f0565b6001600160a01b0382166000908152600a60209081526040808320939093556008546009909152919020555b6000861161107b576040805162461bcd60e51b815260206004820152600e60248201527f43616e6e6f74207374616b652030000000000000000000000000000000000000604482015290519081900360640190fd5b600b5461108890876113ff565b600b55336000908152600c60205260409020546110a590876113ff565b336000818152600c60205260408082209390935560035483517fd505accf0000000000000000000000000000000000000000000000000000000081526004810193909352306024840152604483018a90526064830189905260ff8816608484015260a4830187905260c4830186905292516001600160a01b039093169263d505accf9260e480820193929182900301818387803b15801561114557600080fd5b505af1158015611159573d6000803e3d6000fd5b505060035461117692506001600160a01b031690503330896114f8565b60408051878152905133917f9e71bc8eea02a63969f509818f2dafb9254532904319f9dbda79b67bd34a5f3d919081900360200190a25050600160005550505050565b6111c16114de565b6001600160a01b03166111d2610c3b565b6001600160a01b03161461122d576040805162461bcd60e51b815260206004820181905260248201527f4f776e61626c653a2063616c6c6572206973206e6f7420746865206f776e6572604482015290519081900360640190fd5b6001600160a01b0381166112725760405162461bcd60e51b81526004018080602001828103825260268152602001806118ac6026913960400191505060405180910390fd5b6001546040516001600160a01b038084169216907f8be0079c531659141344cd1fd0a4f28419497f9722a3daafe3b4186f6b6457e090600090a36001805473ffffffffffffffffffffffffffffffffffffffff19166001600160a01b0392909216919091179055565b600082821115611332576040805162461bcd60e51b815260206004820152601e60248201527f536166654d6174683a207375627472616374696f6e206f766572666c6f770000604482015290519081900360640190fd5b50900390565b60008261134757506000610468565b8282028284828161135457fe5b04146113915760405162461bcd60e51b81526004018080602001828103825260218152602001806118f86021913960400191505060405180910390fd5b9392505050565b60008082116113ee576040805162461bcd60e51b815260206004820152601a60248201527f536166654d6174683a206469766973696f6e206279207a65726f000000000000604482015290519081900360640190fd5b8183816113f757fe5b049392505050565b600082820183811015611391576040805162461bcd60e51b815260206004820152601b60248201527f536166654d6174683a206164646974696f6e206f766572666c6f770000000000604482015290519081900360640190fd5b604080516001600160a01b038416602482015260448082018490528251808303909101815260649091019091526020810180517bffffffffffffffffffffffffffffffffffffffffffffffffffffffff167fa9059cbb000000000000000000000000000000000000000000000000000000001790526114d9908490611586565b505050565b3390565b60008183106114f15781611391565b5090919050565b604080516001600160a01b0380861660248301528416604482015260648082018490528251808303909101815260849091019091526020810180517bffffffffffffffffffffffffffffffffffffffffffffffffffffffff167f23b872dd00000000000000000000000000000000000000000000000000000000179052611580908590611586565b50505050565b60006115db826040518060400160405280602081526020017f5361666545524332303a206c6f772d6c6576656c2063616c6c206661696c6564815250856001600160a01b03166116379092919063ffffffff16565b8051909150156114d9578080602001905160208110156115fa57600080fd5b50516114d95760405162461bcd60e51b815260040180806020018281038252602a815260200180611919602a913960400191505060405180910390fd5b6060611646848460008561164e565b949350505050565b60608247101561168f5760405162461bcd60e51b81526004018080602001828103825260268152602001806118d26026913960400191505060405180910390fd5b611698856117a9565b6116e9576040805162461bcd60e51b815260206004820152601d60248201527f416464726573733a2063616c6c20746f206e6f6e2d636f6e7472616374000000604482015290519081900360640190fd5b600080866001600160a01b031685876040518082805190602001908083835b602083106117275780518252601f199092019160209182019101611708565b6001836020036101000a03801982511681845116808217855250505050505090500191505060006040518083038185875af1925050503d8060008114611789576040519150601f19603f3d011682016040523d82523d6000602084013e61178e565b606091505b509150915061179e8282866117af565b979650505050505050565b3b151590565b606083156117be575081611391565b8251156117ce5782518084602001fd5b8160405162461bcd60e51b81526004018080602001828103825283818151815260200191508051906020019080838360005b83811015611818578181015183820152602001611800565b50505050905090810190601f1680156118455780820380516001836020036101000a031916815260200191505b509250505060405180910390fdfe50726576696f7573207265776172647320706572696f64206d75737420626520636f6d706c657465206265666f7265206368616e67696e6720746865206475726174696f6e20666f7220746865206e657720706572696f644f776e61626c653a206e6577206f776e657220697320746865207a65726f2061646472657373416464726573733a20696e73756666696369656e742062616c616e636520666f722063616c6c536166654d6174683a206d756c7469706c69636174696f6e206f766572666c6f775361666545524332303a204552433230206f7065726174696f6e20646964206e6f74207375636365656443616e6e6f7420776974686472617720746865207374616b696e6720746f6b656ea264697066735822122011fa7b52d7ffb3a5ef4caf1db4cfa2ef4abb7a6889e2bd8e9c8d92b1f4ed5a3264736f6c63430007060033456e756d657261626c655365743a20696e646578206f7574206f6620626f756e64734c6971756964697479506f6f6c4d616e616765723a3a73657441766178597473506169723a20506f6f6c2063616e6e6f7420626520746865207a65726f20616464726573734f776e61626c653a206e6577206f776e657220697320746865207a65726f20616464726573734c6971756964697479506f6f6c4d616e616765723a3a63616c63756c61746552657475726e733a20417661782f5954532050616972206e6f74207365744c6971756964697479506f6f6c4d616e616765723a3a61646457686974656c6973746564506f6f6c3a204e6f2041564158206f722059545320696e2074686520706169724c6971756964697479506f6f6c4d616e616765723a3a64697374726962757465546f6b656e7353696e676c65506f6f6c3a2050726576696f75732072657475726e73206e6f7420616c6c6f63617465642e2043616c6c2063616c63756c61746552657475726e7328294c6971756964697479506f6f6c4d616e616765723a3a76657374416c6c6f636174696f6e3a204f6c642059545320697320756e616c6c6f63617465642e2043616c6c2064697374726962757465546f6b656e7328292e4c6971756964697479506f6f6c4d616e616765723a3a76657374416c6c6f636174696f6e3a20496e73756666696369656e7420595453207472616e736665727265644c6971756964697479506f6f6c4d616e616765723a3a72656d6f766557686974656c6973746564506f6f6c3a20506f6f6c206e6f742077686974656c6973746564536166654d6174683a206d756c7469706c69636174696f6e206f766572666c6f774c6971756964697479506f6f6c4d616e616765723a3a6765745974734c69717569646974793a204f6e65206f662074686520746f6b656e7320696e207468652070616972206d757374206265205954534c6971756964697479506f6f6c4d616e616765723a3a64697374726962757465546f6b656e7353696e676c65506f6f6c3a20496e646578206f7574206f6620626f756e647359657469537761704c6962726172793a20494e53554646494349454e545f4c49515549444954594c6971756964697479506f6f6c4d616e616765723a3a61646457686974656c6973746564506f6f6c3a20506f6f6c20616c72656164792077686974656c69737465644c6971756964697479506f6f6c4d616e616765723a3a63616c63756c61746552657475726e733a2050726576696f75732072657475726e73206e6f742064697374726962757465642e2043616c6c2064697374726962757465546f6b656e7328294c6971756964697479506f6f6c4d616e616765723a3a76657374416c6c6f636174696f6e3a204e6f2059545320746f20636c61696d2e2054727920616761696e20746f6d6f72726f772e4c6971756964697479506f6f6c4d616e616765723a3a64697374726962757465546f6b656e733a205472616e73666572206661696c65644c6971756964697479506f6f6c4d616e616765723a3a64697374726962757465546f6b656e733a2050726576696f75732072657475726e73206e6f7420616c6c6f63617465642e2043616c6c2063616c63756c61746552657475726e7328294c6971756964697479506f6f6c4d616e616765723a3a61646457686974656c6973746564506f6f6c3a20506f6f6c2063616e6e6f7420626520746865207a65726f20616464726573734c6971756964697479506f6f6c4d616e616765723a3a63616c63756c61746552657475726e733a204e6f2059545320746f20616c6c6f636174652e2043616c6c2076657374416c6c6f636174696f6e28292e4c6971756964697479506f6f6c4d616e616765723a3a676574417661784c69717569646974793a204f6e65206f662074686520746f6b656e7320696e207468652070616972206d7573742062652057415641584c6971756964697479506f6f6c4d616e616765723a3a67657441766178597473526174696f3a204e6f20415641582d595453207061697220736574a2646970667358221220cb0d20c5f8a0325833eb6d5bd8a7241560f7ec80c2409962349956ba19ebcddf64736f6c63430007060033",
  "linkReferences": {},
  "deployedLinkReferences": {}
}