{
  "_format": "hh-sol-artifact-1",
  "contractName": "LiquidityPoolManager",
  "sourceName": "contracts/LiquidityPoolManager.sol",
  "abi": [
    {
      "inputs": [
        {
          "internalType": "address",
          "name": "wavax_",
          "type": "address"
        },
        {
          "internalType": "address",
          "name": "yts_",
          "type": "address"
        },
        {
          "internalType": "address",
          "name": "treasuryVester_",
          "type": "address"
        }
      ],
      "stateMutability": "nonpayable",
      "type": "constructor"
    },
    {
      "anonymous": false,
      "inputs": [
        {
          "indexed": true,
          "internalType": "address",
          "name": "previousOwner",
          "type": "address"
        },
        {
          "indexed": true,
          "internalType": "address",
          "name": "newOwner",
          "type": "address"
        }
      ],
      "name": "OwnershipTransferred",
      "type": "event"
    },
    {
      "inputs": [
        {
          "internalType": "address",
          "name": "pair",
          "type": "address"
        }
      ],
      "name": "addWhitelistedPool",
      "outputs": [],
      "stateMutability": "nonpayable",
      "type": "function"
    },
    {
      "inputs": [],
      "name": "avaxYtsPair",
      "outputs": [
        {
          "internalType": "address",
          "name": "",
          "type": "address"
        }
      ],
      "stateMutability": "view",
      "type": "function"
    },
    {
      "inputs": [],
      "name": "calculateAndDistribute",
      "outputs": [],
      "stateMutability": "nonpayable",
      "type": "function"
    },
    {
      "inputs": [],
      "name": "calculateReturns",
      "outputs": [],
      "stateMutability": "nonpayable",
      "type": "function"
    },
    {
      "inputs": [],
      "name": "distributeTokens",
      "outputs": [],
      "stateMutability": "nonpayable",
      "type": "function"
    },
    {
      "inputs": [
        {
          "internalType": "uint256",
          "name": "pairIndex",
          "type": "uint256"
        }
      ],
      "name": "distributeTokensSinglePool",
      "outputs": [],
      "stateMutability": "nonpayable",
      "type": "function"
    },
    {
      "inputs": [
        {
          "internalType": "uint256",
          "name": "",
          "type": "uint256"
        }
      ],
      "name": "distribution",
      "outputs": [
        {
          "internalType": "uint256",
          "name": "",
          "type": "uint256"
        }
      ],
      "stateMutability": "view",
      "type": "function"
    },
    {
      "inputs": [
        {
          "internalType": "address",
          "name": "pair",
          "type": "address"
        }
      ],
      "name": "getAvaxLiquidity",
      "outputs": [
        {
          "internalType": "uint256",
          "name": "",
          "type": "uint256"
        }
      ],
      "stateMutability": "view",
      "type": "function"
    },
    {
      "inputs": [],
      "name": "getAvaxYtsRatio",
      "outputs": [
        {
          "internalType": "uint256",
          "name": "conversionFactor",
          "type": "uint256"
        }
      ],
      "stateMutability": "view",
      "type": "function"
    },
    {
      "inputs": [
        {
          "internalType": "address",
          "name": "pair",
          "type": "address"
        },
        {
          "internalType": "uint256",
          "name": "conversionFactor",
          "type": "uint256"
        }
      ],
      "name": "getYtsLiquidity",
      "outputs": [
        {
          "internalType": "uint256",
          "name": "",
          "type": "uint256"
        }
      ],
      "stateMutability": "view",
      "type": "function"
    },
    {
      "inputs": [
        {
          "internalType": "address",
          "name": "pair",
          "type": "address"
        }
      ],
      "name": "isAvaxPair",
      "outputs": [
        {
          "internalType": "bool",
          "name": "",
          "type": "bool"
        }
      ],
      "stateMutability": "view",
      "type": "function"
    },
    {
      "inputs": [
        {
          "internalType": "address",
          "name": "pair",
          "type": "address"
        }
      ],
      "name": "isWhitelisted",
      "outputs": [
        {
          "internalType": "bool",
          "name": "",
          "type": "bool"
        }
      ],
      "stateMutability": "view",
      "type": "function"
    },
    {
      "inputs": [
        {
          "internalType": "address",
          "name": "pair",
          "type": "address"
        }
      ],
      "name": "isYtsPair",
      "outputs": [
        {
          "internalType": "bool",
          "name": "",
          "type": "bool"
        }
      ],
      "stateMutability": "view",
      "type": "function"
    },
    {
      "inputs": [],
      "name": "numPools",
      "outputs": [
        {
          "internalType": "uint256",
          "name": "",
          "type": "uint256"
        }
      ],
      "stateMutability": "view",
      "type": "function"
    },
    {
      "inputs": [],
      "name": "owner",
      "outputs": [
        {
          "internalType": "address",
          "name": "",
          "type": "address"
        }
      ],
      "stateMutability": "view",
      "type": "function"
    },
    {
      "inputs": [
        {
          "internalType": "address",
          "name": "pair",
          "type": "address"
        }
      ],
      "name": "removeWhitelistedPool",
      "outputs": [],
      "stateMutability": "nonpayable",
      "type": "function"
    },
    {
      "inputs": [],
      "name": "renounceOwnership",
      "outputs": [],
      "stateMutability": "nonpayable",
      "type": "function"
    },
    {
      "inputs": [
        {
          "internalType": "address",
          "name": "avaxYtsPair_",
          "type": "address"
        }
      ],
      "name": "setAvaxYtsPair",
      "outputs": [],
      "stateMutability": "nonpayable",
      "type": "function"
    },
    {
      "inputs": [
        {
          "internalType": "address",
          "name": "",
          "type": "address"
        }
      ],
      "name": "stakes",
      "outputs": [
        {
          "internalType": "address",
          "name": "",
          "type": "address"
        }
      ],
      "stateMutability": "view",
      "type": "function"
    },
    {
      "inputs": [
        {
          "internalType": "address",
          "name": "newOwner",
          "type": "address"
        }
      ],
      "name": "transferOwnership",
      "outputs": [],
      "stateMutability": "nonpayable",
      "type": "function"
    },
    {
      "inputs": [],
      "name": "treasuryVester",
      "outputs": [
        {
          "internalType": "address",
          "name": "",
          "type": "address"
        }
      ],
      "stateMutability": "view",
      "type": "function"
    },
    {
      "inputs": [],
      "name": "unallocatedYts",
      "outputs": [
        {
          "internalType": "uint256",
          "name": "",
          "type": "uint256"
        }
      ],
      "stateMutability": "view",
      "type": "function"
    },
    {
      "inputs": [],
      "name": "vestAllocation",
      "outputs": [],
      "stateMutability": "nonpayable",
      "type": "function"
    },
    {
      "inputs": [],
      "name": "wavax",
      "outputs": [
        {
          "internalType": "address",
          "name": "",
          "type": "address"
        }
      ],
      "stateMutability": "view",
      "type": "function"
    },
    {
      "inputs": [],
      "name": "yts",
      "outputs": [
        {
          "internalType": "address",
          "name": "",
          "type": "address"
        }
      ],
      "stateMutability": "view",
      "type": "function"
    }
  ],
  "bytecode": "0x60806040526000600b819055600c805460ff19169055600e5534801561002457600080fd5b506040516200439e3803806200439e8339818101604052606081101561004957600080fd5b508051602082015160409092015190919060006100646100f4565b600080546001600160a01b0319166001600160a01b0383169081178255604051929350917f8be0079c531659141344cd1fd0a4f28419497f9722a3daafe3b4186f6b6457e0908290a35060018055600780546001600160a01b039485166001600160a01b0319918216179091556008805493851693821693909317909255600a80549190931691161790556100f8565b3390565b61429680620001086000396000f3fe60806040523480156200001157600080fd5b5060043610620001cc5760003560e01c8063796cd9ba116200010557806394a4036b11620000a5578063aa8b0670116200007b578063aa8b067014620003fb578063db130a49146200041b578063dea964871462000444578063f2fde38b146200044e57620001cc565b806394a4036b14620003be5780639ab1b48414620003c8578063a8cb13df14620003d257620001cc565b80638da5cb5b11620000db5780638da5cb5b14620003815780639080dbee146200038b578063933733cf14620003b457620001cc565b8063796cd9ba14620003095780637e9ed57a14620003295780638c31ceff146200035857620001cc565b80634ad00082116200017157806368dfb544116200014757806368dfb54414620002cc5780637113aa1814620002d6578063715018a614620002ff57620001cc565b80634ad0008214620002ae5780635278f89c14620002b857806352f647cd14620002c257620001cc565b80632c74ce9711620001a75780632c74ce97146200022a57806335c62bc214620002555780633af32abf146200027157620001cc565b8063117be4c214620001d1578063150895db14620001f757806316934fc41462000201575b600080fd5b620001db62000477565b604080516001600160a01b039092168252519081900360200190f35b620001db62000486565b620001db600480360360208110156200021957600080fd5b50356001600160a01b031662000495565b62000253600480360360208110156200024257600080fd5b50356001600160a01b0316620004b0565b005b6200025f62000592565b60408051918252519081900360200190f35b6200029a600480360360208110156200028957600080fd5b50356001600160a01b031662000598565b604080519115158252519081900360200190f35b62000253620005c1565b620002536200088c565b6200025f62000a6c565b6200025f62000a72565b6200029a60048036036020811015620002ee57600080fd5b50356001600160a01b031662000c0d565b6200025362000c1c565b62000253600480360360208110156200032157600080fd5b503562000cdf565b6200025f600480360360408110156200034157600080fd5b506001600160a01b03813516906020013562000fbf565b6200029a600480360360208110156200037057600080fd5b50356001600160a01b0316620011e7565b620001db620011f6565b6200025360048036036020811015620003a357600080fd5b50356001600160a01b031662001205565b6200025362001540565b620001db62001556565b6200025362001565565b6200025360048036036020811015620003ea57600080fd5b50356001600160a01b031662001808565b6200025f600480360360208110156200041357600080fd5b503562001a35565b6200025f600480360360208110156200043357600080fd5b50356001600160a01b031662001a57565b620001db62001c61565b62000253600480360360208110156200046657600080fd5b50356001600160a01b031662001c70565b6007546001600160a01b031681565b600a546001600160a01b031681565b6006602052600090815260409020546001600160a01b031681565b620004ba62001d8b565b6001600160a01b0316620004cd620011f6565b6001600160a01b03161462000529576040805162461bcd60e51b815260206004820181905260248201527f4f776e61626c653a2063616c6c6572206973206e6f7420746865206f776e6572604482015290519081900360640190fd5b6001600160a01b038116620005705760405162461bcd60e51b815260040180806020018281038252604581526020018062003caa6045913960600191505060405180910390fd5b600980546001600160a01b0319166001600160a01b0392909216919091179055565b600b5481565b6000620005a760028362001d8f565b80620005bb5750620005bb60048362001d8f565b92915050565b600c5460ff1615620006055760405162461bcd60e51b815260040180806020018281038252606181526020018062003ff76061913960800191505060405180910390fd5b6000600e5411620006485760405162461bcd60e51b8152600401808060200182810382526052815260200180620041816052913960600191505060405180910390fd5b600062000656600462001dad565b1115620006a6576009546001600160a01b0316620006a65760405162461bcd60e51b815260040180806020018281038252603d81526020018062003d15603d913960400191505060405180910390fd5b600b5467ffffffffffffffff81118015620006c057600080fd5b50604051908082528060200260200182016040528015620006eb578160200160208202803683370190505b5080516200070291600d916020909101906200218b565b506000805b62000713600262001dad565b81101562000769576000620007346200072e60028462001dba565b62001a57565b905080600d83815481106200074557fe5b6000918252602090912001556200075d838262001dc8565b92505060010162000707565b50600062000778600462001dad565b1115620008035760006200078b62000a72565b905060005b6200079c600462001dad565b81101562000800576000620007be620007b760048462001dba565b8462000fbf565b905080600d620007cf600262001dad565b840181548110620007dc57fe5b600091825260209091200155620007f4848262001dc8565b93505060010162000790565b50505b6000805b600d548110156200087a5760006200084f8462000848600e54600d86815481106200082e57fe5b906000526020600020015462001e2390919063ffffffff16565b9062001e81565b905080600d83815481106200086057fe5b600091825260209091200155919091019060010162000807565b5050600c805460ff1916600117905550565b600e5415620008cd5760405162461bcd60e51b815260040180806020018281038252605681526020018062003dff6056913960600191505060405180910390fd5b600a60009054906101000a90046001600160a01b03166001600160a01b0316634e71d92d6040518163ffffffff1660e01b8152600401602060405180830381600087803b1580156200091e57600080fd5b505af115801562000933573d6000803e3d6000fd5b505050506040513d60208110156200094a57600080fd5b5051600e8190556200098e5760405162461bcd60e51b815260040180806020018281038252604a81526020018062004058604a913960600191505060405180910390fd5b600854604080517f70a0823100000000000000000000000000000000000000000000000000000000815230600482015290516000926001600160a01b0316916370a08231916024808301926020929190829003018186803b158015620009f357600080fd5b505afa15801562000a08573d6000803e3d6000fd5b505050506040513d602081101562000a1f57600080fd5b5051600e5490915081101562000a675760405162461bcd60e51b815260040180806020018281038252604281526020018062003e556042913960600191505060405180910390fd5b600e55565b600e5481565b6009546000906001600160a01b031662000abe5760405162461bcd60e51b815260040180806020018281038252603b81526020018062004226603b913960400191505060405180910390fd5b600080600960009054906101000a90046001600160a01b03166001600160a01b0316630902f1ac6040518163ffffffff1660e01b815260040160606040518083038186803b15801562000b1057600080fd5b505afa15801562000b25573d6000803e3d6000fd5b505050506040513d606081101562000b3c57600080fd5b50805160209182015160075460095460408051630dfe168160e01b815290516dffffffffffffffffffffffffffff95861698509490931695506001600160a01b0391821694911692630dfe1681926004808201939291829003018186803b15801562000ba757600080fd5b505afa15801562000bbc573d6000803e3d6000fd5b505050506040513d602081101562000bd357600080fd5b50516001600160a01b0316141562000bf95762000bf1818362001eea565b925062000c08565b62000c05828262001eea565b92505b505090565b6000620005bb60048362001d8f565b62000c2662001d8b565b6001600160a01b031662000c39620011f6565b6001600160a01b03161462000c95576040805162461bcd60e51b815260206004820181905260248201527f4f776e61626c653a2063616c6c6572206973206e6f7420746865206f776e6572604482015290519081900360640190fd5b600080546040516001600160a01b03909116907f8be0079c531659141344cd1fd0a4f28419497f9722a3daafe3b4186f6b6457e0908390a3600080546001600160a01b0319169055565b6002600154141562000d38576040805162461bcd60e51b815260206004820152601f60248201527f5265656e7472616e637947756172643a207265656e7472616e742063616c6c00604482015290519081900360640190fd5b6002600155600c5460ff1662000d805760405162461bcd60e51b815260040180806020018281038252606981526020018062003d966069913960800191505060405180910390fd5b600b54811062000dc25760405162461bcd60e51b815260040180806020018281038252604581526020018062003f496045913960600191505060405180910390fd5b600062000dd0600262001dad565b82101562000e0e576006600062000de960028562001dba565b6001600160a01b03908116825260208201929092526040016000205416905062000e4d565b6006600062000e2d62000e22600262001dad565b600490860362001dba565b6001600160a01b0390811682526020820192909252604001600020541690505b6000600d838154811062000e5d57fe5b90600052602060002001549050600081111562000fb6576000600d848154811062000e8457fe5b60009182526020808320909101929092556008546040805163a9059cbb60e01b81526001600160a01b038781166004830152602482018790529151919092169363a9059cbb936044808501949293928390030190829087803b15801562000eea57600080fd5b505af115801562000eff573d6000803e3d6000fd5b505050506040513d602081101562000f1657600080fd5b505162000f555760405162461bcd60e51b8152600401808060200182810382526037815260200180620040a26037913960400191505060405180910390fd5b816001600160a01b0316633c6b16ab826040518263ffffffff1660e01b815260040180828152602001915050600060405180830381600087803b15801562000f9c57600080fd5b505af115801562000fb1573d6000803e3d6000fd5b505050505b50506001805550565b6000806000846001600160a01b0316630902f1ac6040518163ffffffff1660e01b815260040160606040518083038186803b15801562000ffe57600080fd5b505afa15801562001013573d6000803e3d6000fd5b505050506040513d60608110156200102a57600080fd5b50805160209182015160085460408051630dfe168160e01b815290516dffffffffffffffffffffffffffff94851697509390921694506000936001600160a01b0391821693918a1692630dfe16819260048083019392829003018186803b1580156200109557600080fd5b505afa158015620010aa573d6000803e3d6000fd5b505050506040513d6020811015620010c157600080fd5b50516001600160a01b03161415620010e757620010df818462001dc8565b9050620011b3565b6008546040805163d21220a760e01b815290516001600160a01b039283169289169163d21220a7916004808301926020929190829003018186803b1580156200112f57600080fd5b505afa15801562001144573d6000803e3d6000fd5b505050506040513d60208110156200115b57600080fd5b50516001600160a01b031614620011a45760405162461bcd60e51b815260040180806020018281038252605081526020018062003ef96050913960600191505060405180910390fd5b620011b0818362001dc8565b90505b670de0b6b3a7640000620011cd8162000848848962001e23565b9150620011dc82600262001e23565b979650505050505050565b6000620005bb60028362001d8f565b6000546001600160a01b031690565b6200120f62001d8b565b6001600160a01b031662001222620011f6565b6001600160a01b0316146200127e576040805162461bcd60e51b815260206004820181905260248201527f4f776e61626c653a2063616c6c6572206973206e6f7420746865206f776e6572604482015290519081900360640190fd5b6001600160a01b038116620012c55760405162461bcd60e51b8152600401808060200182810382526049815260200180620041386049913960600191505060405180910390fd5b620012d08162000598565b156200130e5760405162461bcd60e51b815260040180806020018281038252604281526020018062003fb56042913960600191505060405180910390fd5b6000816001600160a01b0316630dfe16816040518163ffffffff1660e01b815260040160206040518083038186803b1580156200134a57600080fd5b505afa1580156200135f573d6000803e3d6000fd5b505050506040513d60208110156200137657600080fd5b50516040805163d21220a760e01b815290519192506000916001600160a01b0385169163d21220a7916004808301926020929190829003018186803b158015620013bf57600080fd5b505afa158015620013d4573d6000803e3d6000fd5b505050506040513d6020811015620013eb57600080fd5b50516008546040519192506000916001600160a01b039091169085906200141290620021db565b6001600160a01b03928316815291166020820152604080519182900301906000f08015801562001446573d6000803e3d6000fd5b506001600160a01b03858116600090815260066020526040902080546001600160a01b03191683831617905560075491925090811690841614806200149857506007546001600160a01b038381169116145b15620014b257620014ab60028562001f61565b5062001527565b6008546001600160a01b0384811691161480620014dc57506008546001600160a01b038381169116145b15620014ef57620014ab60048562001f61565b60405162461bcd60e51b815260040180806020018281038252604481526020018062003d526044913960600191505060405180910390fd5b600b546200153790600162001dc8565b600b5550505050565b6200154a620005c1565b6200155462001565565b565b6008546001600160a01b031681565b60026001541415620015be576040805162461bcd60e51b815260206004820152601f60248201527f5265656e7472616e637947756172643a207265656e7472616e742063616c6c00604482015290519081900360640190fd5b6002600155600c5460ff16620016065760405162461bcd60e51b815260040180806020018281038252605f815260200180620040d9605f913960600191505060405180910390fd5b600c805460ff19169055600080805b600d54811015620017fa576200162c600262001dad565b8110156200166a57600660006200164560028462001dba565b6001600160a01b039081168252602082019290925260400160002054169250620016a9565b60066000620016896200167e600262001dad565b600490850362001dba565b6001600160a01b0390811682526020820192909252604001600020541692505b600d8181548110620016b757fe5b906000526020600020015491506000821115620017f1576008546040805163a9059cbb60e01b81526001600160a01b038681166004830152602482018690529151919092169163a9059cbb9160448083019260209291908290030181600087803b1580156200172557600080fd5b505af11580156200173a573d6000803e3d6000fd5b505050506040513d60208110156200175157600080fd5b5051620017905760405162461bcd60e51b8152600401808060200182810382526037815260200180620040a26037913960400191505060405180910390fd5b826001600160a01b0316633c6b16ab836040518263ffffffff1660e01b815260040180828152602001915050600060405180830381600087803b158015620017d757600080fd5b505af1158015620017ec573d6000803e3d6000fd5b505050505b60010162001615565b50506000600e555060018055565b6200181262001d8b565b6001600160a01b031662001825620011f6565b6001600160a01b03161462001881576040805162461bcd60e51b815260206004820181905260248201527f4f776e61626c653a2063616c6c6572206973206e6f7420746865206f776e6572604482015290519081900360640190fd5b6200188c8162000598565b620018c95760405162461bcd60e51b815260040180806020018281038252604181526020018062003e976041913960600191505060405180910390fd5b6000816001600160a01b0316630dfe16816040518163ffffffff1660e01b815260040160206040518083038186803b1580156200190557600080fd5b505afa1580156200191a573d6000803e3d6000fd5b505050506040513d60208110156200193157600080fd5b50516040805163d21220a760e01b815290519192506000916001600160a01b0385169163d21220a7916004808301926020929190829003018186803b1580156200197a57600080fd5b505afa1580156200198f573d6000803e3d6000fd5b505050506040513d6020811015620019a657600080fd5b50516001600160a01b03808516600090815260066020526040902080546001600160a01b031916905560075491925083811691161480620019f457506007546001600160a01b038281169116145b1562001a0e5762001a0760028462001f78565b5062001a1d565b62001a1b60048462001f78565b505b600b5462001a2d90600162001f8f565b600b55505050565b600d818154811062001a4657600080fd5b600091825260209091200154905081565b6000806000836001600160a01b0316630902f1ac6040518163ffffffff1660e01b815260040160606040518083038186803b15801562001a9657600080fd5b505afa15801562001aab573d6000803e3d6000fd5b505050506040513d606081101562001ac257600080fd5b50805160209182015160075460408051630dfe168160e01b815290516dffffffffffffffffffffffffffff94851697509390921694506000936001600160a01b039182169391891692630dfe16819260048083019392829003018186803b15801562001b2d57600080fd5b505afa15801562001b42573d6000803e3d6000fd5b505050506040513d602081101562001b5957600080fd5b50516001600160a01b0316141562001b7f5762001b77818462001dc8565b905062001c4b565b6007546040805163d21220a760e01b815290516001600160a01b039283169288169163d21220a7916004808301926020929190829003018186803b15801562001bc757600080fd5b505afa15801562001bdc573d6000803e3d6000fd5b505050506040513d602081101562001bf357600080fd5b50516001600160a01b03161462001c3c5760405162461bcd60e51b8152600401808060200182810382526053815260200180620041d36053913960600191505060405180910390fd5b62001c48818362001dc8565b90505b62001c5881600262001e23565b95945050505050565b6009546001600160a01b031681565b62001c7a62001d8b565b6001600160a01b031662001c8d620011f6565b6001600160a01b03161462001ce9576040805162461bcd60e51b815260206004820181905260248201527f4f776e61626c653a2063616c6c6572206973206e6f7420746865206f776e6572604482015290519081900360640190fd5b6001600160a01b03811662001d305760405162461bcd60e51b815260040180806020018281038252602681526020018062003cef6026913960400191505060405180910390fd5b600080546040516001600160a01b03808516939216917f8be0079c531659141344cd1fd0a4f28419497f9722a3daafe3b4186f6b6457e091a3600080546001600160a01b0319166001600160a01b0392909216919091179055565b3390565b600062001da6836001600160a01b03841662001fed565b9392505050565b6000620005bb8262002005565b600062001da6838362002009565b60008282018381101562001da6576040805162461bcd60e51b815260206004820152601b60248201527f536166654d6174683a206164646974696f6e206f766572666c6f770000000000604482015290519081900360640190fd5b60008262001e3457506000620005bb565b8282028284828162001e4257fe5b041462001da65760405162461bcd60e51b815260040180806020018281038252602181526020018062003ed86021913960400191505060405180910390fd5b600080821162001ed8576040805162461bcd60e51b815260206004820152601a60248201527f536166654d6174683a206469766973696f6e206279207a65726f000000000000604482015290519081900360640190fd5b81838162001ee257fe5b049392505050565b6000808311801562001efc5750600082115b62001f395760405162461bcd60e51b815260040180806020018281038252602781526020018062003f8e6027913960400191505060405180910390fd5b670de0b6b3a764000062001f5962001f52828562001e23565b8562001e81565b949350505050565b600062001da6836001600160a01b03841662002070565b600062001da6836001600160a01b038416620020bf565b60008282111562001fe7576040805162461bcd60e51b815260206004820152601e60248201527f536166654d6174683a207375627472616374696f6e206f766572666c6f770000604482015290519081900360640190fd5b50900390565b60009081526001919091016020526040902054151590565b5490565b815460009082106200204d5760405162461bcd60e51b815260040180806020018281038252602281526020018062003c886022913960400191505060405180910390fd5b8260000182815481106200205d57fe5b9060005260206000200154905092915050565b60006200207e838362001fed565b620020b657508154600181810184556000848152602080822090930184905584548482528286019093526040902091909155620005bb565b506000620005bb565b60008181526001830160205260408120548015620021805783546000198083019190810190600090879083908110620020f457fe5b90600052602060002001549050808760000184815481106200211257fe5b6000918252602080832090910192909255828152600189810190925260409020908401905586548790806200214357fe5b60019003818190600052602060002001600090559055866001016000878152602001908152602001600020600090556001945050505050620005bb565b6000915050620005bb565b828054828255906000526020600020908101928215620021c9579160200282015b82811115620021c9578251825591602001919060010190620021ac565b50620021d7929150620021e9565b5090565b611a87806200220183390190565b5b80821115620021d75760008155600101620021ea56fe6080604052600060045560006005556201518060065534801561002157600080fd5b50604051611a87380380611a878339818101604052604081101561004457600080fd5b5080516020909101516001600090815561005c6100db565b600180546001600160a01b0319166001600160a01b038316908117909155604051919250906000907f8be0079c531659141344cd1fd0a4f28419497f9722a3daafe3b4186f6b6457e0908290a350600280546001600160a01b039384166001600160a01b031991821617909155600380549290931691161790556100df565b3390565b611999806100ee6000396000f3fe608060405234801561001057600080fd5b50600436106101ad5760003560e01c80638980f11f116100ee578063cd3daf9d11610097578063e9fad8ee11610071578063e9fad8ee14610382578063ebe2b12b1461038a578063ecd9ba8214610392578063f2fde38b146103ca576101ad565b8063cd3daf9d1461036a578063d1af0c7d14610372578063df136d651461037a576101ad565b8063a694fc3a116100c8578063a694fc3a14610328578063c8f33c9114610345578063cc1a378f1461034d576101ad565b80638980f11f146102ce5780638b876347146102fa5780638da5cb5b14610320576101ad565b80633c6b16ab1161015b578063715018a611610135578063715018a61461029257806372f702f31461029a5780637b0a47ee146102be57806380faa57d146102c6576101ad565b80633c6b16ab146102475780633d18b9121461026457806370a082311461026c576101ad565b80631c1f78eb1161018c5780631c1f78eb146102185780632e1a7d4d14610220578063386a95251461023f576101ad565b80628cc262146101b25780630700037d146101ea57806318160ddd14610210575b600080fd5b6101d8600480360360208110156101c857600080fd5b50356001600160a01b03166103f0565b60408051918252519081900360200190f35b6101d86004803603602081101561020057600080fd5b50356001600160a01b031661046e565b6101d8610480565b6101d8610487565b61023d6004803603602081101561023657600080fd5b50356104a5565b005b6101d8610647565b61023d6004803603602081101561025d57600080fd5b503561064d565b61023d6108c4565b6101d86004803603602081101561028257600080fd5b50356001600160a01b03166109fb565b61023d610a16565b6102a2610ae1565b604080516001600160a01b039092168252519081900360200190f35b6101d8610af0565b6101d8610af6565b61023d600480360360408110156102e457600080fd5b506001600160a01b038135169060200135610b04565b6101d86004803603602081101561031057600080fd5b50356001600160a01b0316610c29565b6102a2610c3b565b61023d6004803603602081101561033e57600080fd5b5035610c4a565b6101d8610ded565b61023d6004803603602081101561036357600080fd5b5035610df3565b6101d8610ee2565b6102a2610f30565b6101d8610f3f565b61023d610f45565b6101d8610f68565b61023d600480360360a08110156103a857600080fd5b5080359060208101359060ff6040820135169060608101359060800135610f6e565b61023d600480360360208110156103e057600080fd5b50356001600160a01b03166111b9565b6001600160a01b0381166000908152600a60209081526040808320546009909252822054610468919061046290670de0b6b3a76400009061045c9061043d90610437610ee2565b906112db565b6001600160a01b0388166000908152600c602052604090205490611338565b90611398565b906113ff565b92915050565b600a6020526000908152604090205481565b600b545b90565b60006104a060065460055461133890919063ffffffff16565b905090565b600260005414156104fd576040805162461bcd60e51b815260206004820152601f60248201527f5265656e7472616e637947756172643a207265656e7472616e742063616c6c00604482015290519081900360640190fd5b60026000553361050b610ee2565b600855610516610af6565b6007556001600160a01b0381161561055d57610531816103f0565b6001600160a01b0382166000908152600a60209081526040808320939093556008546009909152919020555b600082116105b2576040805162461bcd60e51b815260206004820152601160248201527f43616e6e6f742077697468647261772030000000000000000000000000000000604482015290519081900360640190fd5b600b546105bf90836112db565b600b55336000908152600c60205260409020546105dc90836112db565b336000818152600c6020526040902091909155600354610608916001600160a01b039091169084611459565b60408051838152905133917f7084f5476618d8e60b11ef0d7d3f06914655adb8793e28ff7f018d4c76d505d5919081900360200190a250506001600055565b60065481565b6106556114de565b6001600160a01b0316610666610c3b565b6001600160a01b0316146106c1576040805162461bcd60e51b815260206004820181905260248201527f4f776e61626c653a2063616c6c6572206973206e6f7420746865206f776e6572604482015290519081900360640190fd5b60006106cb610ee2565b6008556106d6610af6565b6007556001600160a01b0381161561071d576106f1816103f0565b6001600160a01b0382166000908152600a60209081526040808320939093556008546009909152919020555b600454421061073c57600654610734908390611398565b60055561077f565b60045460009061074c90426112db565b905060006107656005548361133890919063ffffffff16565b6006549091506107799061045c86846113ff565b60055550505b600254604080517f70a0823100000000000000000000000000000000000000000000000000000000815230600482015290516000926001600160a01b0316916370a08231916024808301926020929190829003018186803b1580156107e357600080fd5b505afa1580156107f7573d6000803e3d6000fd5b505050506040513d602081101561080d57600080fd5b5051600654909150610820908290611398565b6005541115610876576040805162461bcd60e51b815260206004820152601860248201527f50726f76696465642072657761726420746f6f20686967680000000000000000604482015290519081900360640190fd5b42600781905560065461088991906113ff565b6004556040805184815290517fde88a922e0d3b88b24e9623efeb464919c6bf9f66857a65e2bfcf2ce87a9433d9181900360200190a1505050565b6002600054141561091c576040805162461bcd60e51b815260206004820152601f60248201527f5265656e7472616e637947756172643a207265656e7472616e742063616c6c00604482015290519081900360640190fd5b60026000553361092a610ee2565b600855610935610af6565b6007556001600160a01b0381161561097c57610950816103f0565b6001600160a01b0382166000908152600a60209081526040808320939093556008546009909152919020555b336000908152600a602052604090205480156109f257336000818152600a60205260408120556002546109bb916001600160a01b039091169083611459565b60408051828152905133917fe2403640ba68fed3a2f88b7557551d1993f84b99bb10ff833f0cf8db0c5e0486919081900360200190a25b50506001600055565b6001600160a01b03166000908152600c602052604090205490565b610a1e6114de565b6001600160a01b0316610a2f610c3b565b6001600160a01b031614610a8a576040805162461bcd60e51b815260206004820181905260248201527f4f776e61626c653a2063616c6c6572206973206e6f7420746865206f776e6572604482015290519081900360640190fd5b6001546040516000916001600160a01b0316907f8be0079c531659141344cd1fd0a4f28419497f9722a3daafe3b4186f6b6457e0908390a36001805473ffffffffffffffffffffffffffffffffffffffff19169055565b6003546001600160a01b031681565b60055481565b60006104a0426004546114e2565b610b0c6114de565b6001600160a01b0316610b1d610c3b565b6001600160a01b031614610b78576040805162461bcd60e51b815260206004820181905260248201527f4f776e61626c653a2063616c6c6572206973206e6f7420746865206f776e6572604482015290519081900360640190fd5b6003546001600160a01b0383811691161415610bc55760405162461bcd60e51b81526004018080602001828103825260218152602001806119436021913960400191505060405180910390fd5b610be1610bd0610c3b565b6001600160a01b0384169083611459565b604080516001600160a01b03841681526020810183905281517f8c1256b8896378cd5044f80c202f9772b9d77dc85c8a6eb51967210b09bfaa28929181900390910190a15050565b60096020526000908152604090205481565b6001546001600160a01b031690565b60026000541415610ca2576040805162461bcd60e51b815260206004820152601f60248201527f5265656e7472616e637947756172643a207265656e7472616e742063616c6c00604482015290519081900360640190fd5b600260005533610cb0610ee2565b600855610cbb610af6565b6007556001600160a01b03811615610d0257610cd6816103f0565b6001600160a01b0382166000908152600a60209081526040808320939093556008546009909152919020555b60008211610d57576040805162461bcd60e51b815260206004820152600e60248201527f43616e6e6f74207374616b652030000000000000000000000000000000000000604482015290519081900360640190fd5b600b54610d6490836113ff565b600b55336000908152600c6020526040902054610d8190836113ff565b336000818152600c6020526040902091909155600354610dae916001600160a01b039091169030856114f8565b60408051838152905133917f9e71bc8eea02a63969f509818f2dafb9254532904319f9dbda79b67bd34a5f3d919081900360200190a250506001600055565b60075481565b610dfb6114de565b6001600160a01b0316610e0c610c3b565b6001600160a01b031614610e67576040805162461bcd60e51b815260206004820181905260248201527f4f776e61626c653a2063616c6c6572206973206e6f7420746865206f776e6572604482015290519081900360640190fd5b6004544211610ea75760405162461bcd60e51b81526004018080602001828103825260588152602001806118546058913960600191505060405180910390fd5b60068190556040805182815290517ffb46ca5a5e06d4540d6387b930a7c978bce0db5f449ec6b3f5d07c6e1d44f2d39181900360200190a150565b6000600b5460001415610ef85750600854610484565b6104a0610f27600b5461045c670de0b6b3a7640000610f21600554610f21600754610437610af6565b90611338565b600854906113ff565b6002546001600160a01b031681565b60085481565b336000908152600c6020526040902054610f5e906104a5565b610f666108c4565b565b60045481565b60026000541415610fc6576040805162461bcd60e51b815260206004820152601f60248201527f5265656e7472616e637947756172643a207265656e7472616e742063616c6c00604482015290519081900360640190fd5b600260005533610fd4610ee2565b600855610fdf610af6565b6007556001600160a01b0381161561102657610ffa816103f0565b6001600160a01b0382166000908152600a60209081526040808320939093556008546009909152919020555b6000861161107b576040805162461bcd60e51b815260206004820152600e60248201527f43616e6e6f74207374616b652030000000000000000000000000000000000000604482015290519081900360640190fd5b600b5461108890876113ff565b600b55336000908152600c60205260409020546110a590876113ff565b336000818152600c60205260408082209390935560035483517fd505accf0000000000000000000000000000000000000000000000000000000081526004810193909352306024840152604483018a90526064830189905260ff8816608484015260a4830187905260c4830186905292516001600160a01b039093169263d505accf9260e480820193929182900301818387803b15801561114557600080fd5b505af1158015611159573d6000803e3d6000fd5b505060035461117692506001600160a01b031690503330896114f8565b60408051878152905133917f9e71bc8eea02a63969f509818f2dafb9254532904319f9dbda79b67bd34a5f3d919081900360200190a25050600160005550505050565b6111c16114de565b6001600160a01b03166111d2610c3b565b6001600160a01b03161461122d576040805162461bcd60e51b815260206004820181905260248201527f4f776e61626c653a2063616c6c6572206973206e6f7420746865206f776e6572604482015290519081900360640190fd5b6001600160a01b0381166112725760405162461bcd60e51b81526004018080602001828103825260268152602001806118ac6026913960400191505060405180910390fd5b6001546040516001600160a01b038084169216907f8be0079c531659141344cd1fd0a4f28419497f9722a3daafe3b4186f6b6457e090600090a36001805473ffffffffffffffffffffffffffffffffffffffff19166001600160a01b0392909216919091179055565b600082821115611332576040805162461bcd60e51b815260206004820152601e60248201527f536166654d6174683a207375627472616374696f6e206f766572666c6f770000604482015290519081900360640190fd5b50900390565b60008261134757506000610468565b8282028284828161135457fe5b04146113915760405162461bcd60e51b81526004018080602001828103825260218152602001806118f86021913960400191505060405180910390fd5b9392505050565b60008082116113ee576040805162461bcd60e51b815260206004820152601a60248201527f536166654d6174683a206469766973696f6e206279207a65726f000000000000604482015290519081900360640190fd5b8183816113f757fe5b049392505050565b600082820183811015611391576040805162461bcd60e51b815260206004820152601b60248201527f536166654d6174683a206164646974696f6e206f766572666c6f770000000000604482015290519081900360640190fd5b604080516001600160a01b038416602482015260448082018490528251808303909101815260649091019091526020810180517bffffffffffffffffffffffffffffffffffffffffffffffffffffffff167fa9059cbb000000000000000000000000000000000000000000000000000000001790526114d9908490611586565b505050565b3390565b60008183106114f15781611391565b5090919050565b604080516001600160a01b0380861660248301528416604482015260648082018490528251808303909101815260849091019091526020810180517bffffffffffffffffffffffffffffffffffffffffffffffffffffffff167f23b872dd00000000000000000000000000000000000000000000000000000000179052611580908590611586565b50505050565b60006115db826040518060400160405280602081526020017f5361666545524332303a206c6f772d6c6576656c2063616c6c206661696c6564815250856001600160a01b03166116379092919063ffffffff16565b8051909150156114d9578080602001905160208110156115fa57600080fd5b50516114d95760405162461bcd60e51b815260040180806020018281038252602a815260200180611919602a913960400191505060405180910390fd5b6060611646848460008561164e565b949350505050565b60608247101561168f5760405162461bcd60e51b81526004018080602001828103825260268152602001806118d26026913960400191505060405180910390fd5b611698856117a9565b6116e9576040805162461bcd60e51b815260206004820152601d60248201527f416464726573733a2063616c6c20746f206e6f6e2d636f6e7472616374000000604482015290519081900360640190fd5b600080866001600160a01b031685876040518082805190602001908083835b602083106117275780518252601f199092019160209182019101611708565b6001836020036101000a03801982511681845116808217855250505050505090500191505060006040518083038185875af1925050503d8060008114611789576040519150601f19603f3d011682016040523d82523d6000602084013e61178e565b606091505b509150915061179e8282866117af565b979650505050505050565b3b151590565b606083156117be575081611391565b8251156117ce5782518084602001fd5b8160405162461bcd60e51b81526004018080602001828103825283818151815260200191508051906020019080838360005b83811015611818578181015183820152602001611800565b50505050905090810190601f1680156118455780820380516001836020036101000a031916815260200191505b509250505060405180910390fdfe50726576696f7573207265776172647320706572696f64206d75737420626520636f6d706c657465206265666f7265206368616e67696e6720746865206475726174696f6e20666f7220746865206e657720706572696f644f776e61626c653a206e6577206f776e657220697320746865207a65726f2061646472657373416464726573733a20696e73756666696369656e742062616c616e636520666f722063616c6c536166654d6174683a206d756c7469706c69636174696f6e206f766572666c6f775361666545524332303a204552433230206f7065726174696f6e20646964206e6f74207375636365656443616e6e6f7420776974686472617720746865207374616b696e6720746f6b656ea2646970667358221220b2da2794a2212fa4d585dba1e264017b0471373a2780496b12ad306a3933e2bf64736f6c63430007060033456e756d657261626c655365743a20696e646578206f7574206f6620626f756e64734c6971756964697479506f6f6c4d616e616765723a3a73657441766178597473506169723a20506f6f6c2063616e6e6f7420626520746865207a65726f20616464726573734f776e61626c653a206e6577206f776e657220697320746865207a65726f20616464726573734c6971756964697479506f6f6c4d616e616765723a3a63616c63756c61746552657475726e733a20417661782f5954532050616972206e6f74207365744c6971756964697479506f6f6c4d616e616765723a3a61646457686974656c6973746564506f6f6c3a204e6f2041564158206f722059545320696e2074686520706169724c6971756964697479506f6f6c4d616e616765723a3a64697374726962757465546f6b656e7353696e676c65506f6f6c3a2050726576696f75732072657475726e73206e6f7420616c6c6f63617465642e2043616c6c2063616c63756c61746552657475726e7328294c6971756964697479506f6f6c4d616e616765723a3a76657374416c6c6f636174696f6e3a204f6c642059545320697320756e616c6c6f63617465642e2043616c6c2064697374726962757465546f6b656e7328292e4c6971756964697479506f6f6c4d616e616765723a3a76657374416c6c6f636174696f6e3a20496e73756666696369656e7420595453207472616e736665727265644c6971756964697479506f6f6c4d616e616765723a3a72656d6f766557686974656c6973746564506f6f6c3a20506f6f6c206e6f742077686974656c6973746564536166654d6174683a206d756c7469706c69636174696f6e206f766572666c6f774c6971756964697479506f6f6c4d616e616765723a3a6765745974734c69717569646974793a204f6e65206f662074686520746f6b656e7320696e207468652070616972206d757374206265205954534c6971756964697479506f6f6c4d616e616765723a3a64697374726962757465546f6b656e7353696e676c65506f6f6c3a20496e646578206f7574206f6620626f756e647359657469537761704c6962726172793a20494e53554646494349454e545f4c49515549444954594c6971756964697479506f6f6c4d616e616765723a3a61646457686974656c6973746564506f6f6c3a20506f6f6c20616c72656164792077686974656c69737465644c6971756964697479506f6f6c4d616e616765723a3a63616c63756c61746552657475726e733a2050726576696f75732072657475726e73206e6f742064697374726962757465642e2043616c6c2064697374726962757465546f6b656e7328294c6971756964697479506f6f6c4d616e616765723a3a76657374416c6c6f636174696f6e3a204e6f2059545320746f20636c61696d2e2054727920616761696e20746f6d6f72726f772e4c6971756964697479506f6f6c4d616e616765723a3a64697374726962757465546f6b656e733a205472616e73666572206661696c65644c6971756964697479506f6f6c4d616e616765723a3a64697374726962757465546f6b656e733a2050726576696f75732072657475726e73206e6f7420616c6c6f63617465642e2043616c6c2063616c63756c61746552657475726e7328294c6971756964697479506f6f6c4d616e616765723a3a61646457686974656c6973746564506f6f6c3a20506f6f6c2063616e6e6f7420626520746865207a65726f20616464726573734c6971756964697479506f6f6c4d616e616765723a3a63616c63756c61746552657475726e733a204e6f2059545320746f20616c6c6f636174652e2043616c6c2076657374416c6c6f636174696f6e28292e4c6971756964697479506f6f6c4d616e616765723a3a676574417661784c69717569646974793a204f6e65206f662074686520746f6b656e7320696e207468652070616972206d7573742062652057415641584c6971756964697479506f6f6c4d616e616765723a3a67657441766178597473526174696f3a204e6f20415641582d595453207061697220736574a264697066735822122001da0f7ed5dfc01091ecd3698a726fa4c1fe1e840b698fdfbdedcf7ef49b56ad64736f6c63430007060033",
  "linkReferences": {},
  "deployedLinkReferences": {}
}