{
  "_format": "hh-sol-artifact-1",
  "contractName": "StakingRewards",
  "sourceName": "contracts/StakingRewards.sol",
  "abi": [
    {
      "inputs": [
        {
          "internalType": "address",
          "name": "_rewardsToken",
          "type": "address"
        },
        {
          "internalType": "address",
          "name": "_stakingToken",
          "type": "address"
        }
      ],
      "stateMutability": "nonpayable",
      "type": "constructor"
    },
    {
      "anonymous": false,
      "inputs": [
        {
          "indexed": true,
          "internalType": "address",
          "name": "previousOwner",
          "type": "address"
        },
        {
          "indexed": true,
          "internalType": "address",
          "name": "newOwner",
          "type": "address"
        }
      ],
      "name": "OwnershipTransferred",
      "type": "event"
    },
    {
      "anonymous": false,
      "inputs": [
        {
          "indexed": false,
          "internalType": "address",
          "name": "token",
          "type": "address"
        },
        {
          "indexed": false,
          "internalType": "uint256",
          "name": "amount",
          "type": "uint256"
        }
      ],
      "name": "Recovered",
      "type": "event"
    },
    {
      "anonymous": false,
      "inputs": [
        {
          "indexed": false,
          "internalType": "uint256",
          "name": "reward",
          "type": "uint256"
        }
      ],
      "name": "RewardAdded",
      "type": "event"
    },
    {
      "anonymous": false,
      "inputs": [
        {
          "indexed": true,
          "internalType": "address",
          "name": "user",
          "type": "address"
        },
        {
          "indexed": false,
          "internalType": "uint256",
          "name": "reward",
          "type": "uint256"
        }
      ],
      "name": "RewardPaid",
      "type": "event"
    },
    {
      "anonymous": false,
      "inputs": [
        {
          "indexed": false,
          "internalType": "uint256",
          "name": "newDuration",
          "type": "uint256"
        }
      ],
      "name": "RewardsDurationUpdated",
      "type": "event"
    },
    {
      "anonymous": false,
      "inputs": [
        {
          "indexed": true,
          "internalType": "address",
          "name": "user",
          "type": "address"
        },
        {
          "indexed": false,
          "internalType": "uint256",
          "name": "amount",
          "type": "uint256"
        }
      ],
      "name": "Staked",
      "type": "event"
    },
    {
      "anonymous": false,
      "inputs": [
        {
          "indexed": true,
          "internalType": "address",
          "name": "user",
          "type": "address"
        },
        {
          "indexed": false,
          "internalType": "uint256",
          "name": "amount",
          "type": "uint256"
        }
      ],
      "name": "Withdrawn",
      "type": "event"
    },
    {
      "inputs": [
        {
          "internalType": "address",
          "name": "account",
          "type": "address"
        }
      ],
      "name": "balanceOf",
      "outputs": [
        {
          "internalType": "uint256",
          "name": "",
          "type": "uint256"
        }
      ],
      "stateMutability": "view",
      "type": "function"
    },
    {
      "inputs": [
        {
          "internalType": "address",
          "name": "account",
          "type": "address"
        }
      ],
      "name": "earned",
      "outputs": [
        {
          "internalType": "uint256",
          "name": "",
          "type": "uint256"
        }
      ],
      "stateMutability": "view",
      "type": "function"
    },
    {
      "inputs": [],
      "name": "exit",
      "outputs": [],
      "stateMutability": "nonpayable",
      "type": "function"
    },
    {
      "inputs": [],
      "name": "getReward",
      "outputs": [],
      "stateMutability": "nonpayable",
      "type": "function"
    },
    {
      "inputs": [],
      "name": "getRewardForDuration",
      "outputs": [
        {
          "internalType": "uint256",
          "name": "",
          "type": "uint256"
        }
      ],
      "stateMutability": "view",
      "type": "function"
    },
    {
      "inputs": [],
      "name": "lastTimeRewardApplicable",
      "outputs": [
        {
          "internalType": "uint256",
          "name": "",
          "type": "uint256"
        }
      ],
      "stateMutability": "view",
      "type": "function"
    },
    {
      "inputs": [],
      "name": "lastUpdateTime",
      "outputs": [
        {
          "internalType": "uint256",
          "name": "",
          "type": "uint256"
        }
      ],
      "stateMutability": "view",
      "type": "function"
    },
    {
      "inputs": [
        {
          "internalType": "uint256",
          "name": "reward",
          "type": "uint256"
        }
      ],
      "name": "notifyRewardAmount",
      "outputs": [],
      "stateMutability": "nonpayable",
      "type": "function"
    },
    {
      "inputs": [],
      "name": "owner",
      "outputs": [
        {
          "internalType": "address",
          "name": "",
          "type": "address"
        }
      ],
      "stateMutability": "view",
      "type": "function"
    },
    {
      "inputs": [],
      "name": "periodFinish",
      "outputs": [
        {
          "internalType": "uint256",
          "name": "",
          "type": "uint256"
        }
      ],
      "stateMutability": "view",
      "type": "function"
    },
    {
      "inputs": [
        {
          "internalType": "address",
          "name": "tokenAddress",
          "type": "address"
        },
        {
          "internalType": "uint256",
          "name": "tokenAmount",
          "type": "uint256"
        }
      ],
      "name": "recoverERC20",
      "outputs": [],
      "stateMutability": "nonpayable",
      "type": "function"
    },
    {
      "inputs": [],
      "name": "renounceOwnership",
      "outputs": [],
      "stateMutability": "nonpayable",
      "type": "function"
    },
    {
      "inputs": [],
      "name": "rewardPerToken",
      "outputs": [
        {
          "internalType": "uint256",
          "name": "",
          "type": "uint256"
        }
      ],
      "stateMutability": "view",
      "type": "function"
    },
    {
      "inputs": [],
      "name": "rewardPerTokenStored",
      "outputs": [
        {
          "internalType": "uint256",
          "name": "",
          "type": "uint256"
        }
      ],
      "stateMutability": "view",
      "type": "function"
    },
    {
      "inputs": [],
      "name": "rewardRate",
      "outputs": [
        {
          "internalType": "uint256",
          "name": "",
          "type": "uint256"
        }
      ],
      "stateMutability": "view",
      "type": "function"
    },
    {
      "inputs": [
        {
          "internalType": "address",
          "name": "",
          "type": "address"
        }
      ],
      "name": "rewards",
      "outputs": [
        {
          "internalType": "uint256",
          "name": "",
          "type": "uint256"
        }
      ],
      "stateMutability": "view",
      "type": "function"
    },
    {
      "inputs": [],
      "name": "rewardsDuration",
      "outputs": [
        {
          "internalType": "uint256",
          "name": "",
          "type": "uint256"
        }
      ],
      "stateMutability": "view",
      "type": "function"
    },
    {
      "inputs": [],
      "name": "rewardsToken",
      "outputs": [
        {
          "internalType": "contract IERC20",
          "name": "",
          "type": "address"
        }
      ],
      "stateMutability": "view",
      "type": "function"
    },
    {
      "inputs": [
        {
          "internalType": "uint256",
          "name": "_rewardsDuration",
          "type": "uint256"
        }
      ],
      "name": "setRewardsDuration",
      "outputs": [],
      "stateMutability": "nonpayable",
      "type": "function"
    },
    {
      "inputs": [
        {
          "internalType": "uint256",
          "name": "amount",
          "type": "uint256"
        }
      ],
      "name": "stake",
      "outputs": [],
      "stateMutability": "nonpayable",
      "type": "function"
    },
    {
      "inputs": [
        {
          "internalType": "uint256",
          "name": "amount",
          "type": "uint256"
        },
        {
          "internalType": "uint256",
          "name": "deadline",
          "type": "uint256"
        },
        {
          "internalType": "uint8",
          "name": "v",
          "type": "uint8"
        },
        {
          "internalType": "bytes32",
          "name": "r",
          "type": "bytes32"
        },
        {
          "internalType": "bytes32",
          "name": "s",
          "type": "bytes32"
        }
      ],
      "name": "stakeWithPermit",
      "outputs": [],
      "stateMutability": "nonpayable",
      "type": "function"
    },
    {
      "inputs": [],
      "name": "stakingToken",
      "outputs": [
        {
          "internalType": "contract IERC20",
          "name": "",
          "type": "address"
        }
      ],
      "stateMutability": "view",
      "type": "function"
    },
    {
      "inputs": [],
      "name": "totalSupply",
      "outputs": [
        {
          "internalType": "uint256",
          "name": "",
          "type": "uint256"
        }
      ],
      "stateMutability": "view",
      "type": "function"
    },
    {
      "inputs": [
        {
          "internalType": "address",
          "name": "newOwner",
          "type": "address"
        }
      ],
      "name": "transferOwnership",
      "outputs": [],
      "stateMutability": "nonpayable",
      "type": "function"
    },
    {
      "inputs": [
        {
          "internalType": "address",
          "name": "",
          "type": "address"
        }
      ],
      "name": "userRewardPerTokenPaid",
      "outputs": [
        {
          "internalType": "uint256",
          "name": "",
          "type": "uint256"
        }
      ],
      "stateMutability": "view",
      "type": "function"
    },
    {
      "inputs": [
        {
          "internalType": "uint256",
          "name": "amount",
          "type": "uint256"
        }
      ],
      "name": "withdraw",
      "outputs": [],
      "stateMutability": "nonpayable",
      "type": "function"
    }
  ],
  "bytecode": "0x6080604052600060045560006005556201518060065534801561002157600080fd5b50604051611a87380380611a878339818101604052604081101561004457600080fd5b5080516020909101516001600090815561005c6100db565b600180546001600160a01b0319166001600160a01b038316908117909155604051919250906000907f8be0079c531659141344cd1fd0a4f28419497f9722a3daafe3b4186f6b6457e0908290a350600280546001600160a01b039384166001600160a01b031991821617909155600380549290931691161790556100df565b3390565b611999806100ee6000396000f3fe608060405234801561001057600080fd5b50600436106101ad5760003560e01c80638980f11f116100ee578063cd3daf9d11610097578063e9fad8ee11610071578063e9fad8ee14610382578063ebe2b12b1461038a578063ecd9ba8214610392578063f2fde38b146103ca576101ad565b8063cd3daf9d1461036a578063d1af0c7d14610372578063df136d651461037a576101ad565b8063a694fc3a116100c8578063a694fc3a14610328578063c8f33c9114610345578063cc1a378f1461034d576101ad565b80638980f11f146102ce5780638b876347146102fa5780638da5cb5b14610320576101ad565b80633c6b16ab1161015b578063715018a611610135578063715018a61461029257806372f702f31461029a5780637b0a47ee146102be57806380faa57d146102c6576101ad565b80633c6b16ab146102475780633d18b9121461026457806370a082311461026c576101ad565b80631c1f78eb1161018c5780631c1f78eb146102185780632e1a7d4d14610220578063386a95251461023f576101ad565b80628cc262146101b25780630700037d146101ea57806318160ddd14610210575b600080fd5b6101d8600480360360208110156101c857600080fd5b50356001600160a01b03166103f0565b60408051918252519081900360200190f35b6101d86004803603602081101561020057600080fd5b50356001600160a01b031661046e565b6101d8610480565b6101d8610487565b61023d6004803603602081101561023657600080fd5b50356104a5565b005b6101d8610647565b61023d6004803603602081101561025d57600080fd5b503561064d565b61023d6108c4565b6101d86004803603602081101561028257600080fd5b50356001600160a01b03166109fb565b61023d610a16565b6102a2610ae1565b604080516001600160a01b039092168252519081900360200190f35b6101d8610af0565b6101d8610af6565b61023d600480360360408110156102e457600080fd5b506001600160a01b038135169060200135610b04565b6101d86004803603602081101561031057600080fd5b50356001600160a01b0316610c29565b6102a2610c3b565b61023d6004803603602081101561033e57600080fd5b5035610c4a565b6101d8610ded565b61023d6004803603602081101561036357600080fd5b5035610df3565b6101d8610ee2565b6102a2610f30565b6101d8610f3f565b61023d610f45565b6101d8610f68565b61023d600480360360a08110156103a857600080fd5b5080359060208101359060ff6040820135169060608101359060800135610f6e565b61023d600480360360208110156103e057600080fd5b50356001600160a01b03166111b9565b6001600160a01b0381166000908152600a60209081526040808320546009909252822054610468919061046290670de0b6b3a76400009061045c9061043d90610437610ee2565b906112db565b6001600160a01b0388166000908152600c602052604090205490611338565b90611398565b906113ff565b92915050565b600a6020526000908152604090205481565b600b545b90565b60006104a060065460055461133890919063ffffffff16565b905090565b600260005414156104fd576040805162461bcd60e51b815260206004820152601f60248201527f5265656e7472616e637947756172643a207265656e7472616e742063616c6c00604482015290519081900360640190fd5b60026000553361050b610ee2565b600855610516610af6565b6007556001600160a01b0381161561055d57610531816103f0565b6001600160a01b0382166000908152600a60209081526040808320939093556008546009909152919020555b600082116105b2576040805162461bcd60e51b815260206004820152601160248201527f43616e6e6f742077697468647261772030000000000000000000000000000000604482015290519081900360640190fd5b600b546105bf90836112db565b600b55336000908152600c60205260409020546105dc90836112db565b336000818152600c6020526040902091909155600354610608916001600160a01b039091169084611459565b60408051838152905133917f7084f5476618d8e60b11ef0d7d3f06914655adb8793e28ff7f018d4c76d505d5919081900360200190a250506001600055565b60065481565b6106556114de565b6001600160a01b0316610666610c3b565b6001600160a01b0316146106c1576040805162461bcd60e51b815260206004820181905260248201527f4f776e61626c653a2063616c6c6572206973206e6f7420746865206f776e6572604482015290519081900360640190fd5b60006106cb610ee2565b6008556106d6610af6565b6007556001600160a01b0381161561071d576106f1816103f0565b6001600160a01b0382166000908152600a60209081526040808320939093556008546009909152919020555b600454421061073c57600654610734908390611398565b60055561077f565b60045460009061074c90426112db565b905060006107656005548361133890919063ffffffff16565b6006549091506107799061045c86846113ff565b60055550505b600254604080517f70a0823100000000000000000000000000000000000000000000000000000000815230600482015290516000926001600160a01b0316916370a08231916024808301926020929190829003018186803b1580156107e357600080fd5b505afa1580156107f7573d6000803e3d6000fd5b505050506040513d602081101561080d57600080fd5b5051600654909150610820908290611398565b6005541115610876576040805162461bcd60e51b815260206004820152601860248201527f50726f76696465642072657761726420746f6f20686967680000000000000000604482015290519081900360640190fd5b42600781905560065461088991906113ff565b6004556040805184815290517fde88a922e0d3b88b24e9623efeb464919c6bf9f66857a65e2bfcf2ce87a9433d9181900360200190a1505050565b6002600054141561091c576040805162461bcd60e51b815260206004820152601f60248201527f5265656e7472616e637947756172643a207265656e7472616e742063616c6c00604482015290519081900360640190fd5b60026000553361092a610ee2565b600855610935610af6565b6007556001600160a01b0381161561097c57610950816103f0565b6001600160a01b0382166000908152600a60209081526040808320939093556008546009909152919020555b336000908152600a602052604090205480156109f257336000818152600a60205260408120556002546109bb916001600160a01b039091169083611459565b60408051828152905133917fe2403640ba68fed3a2f88b7557551d1993f84b99bb10ff833f0cf8db0c5e0486919081900360200190a25b50506001600055565b6001600160a01b03166000908152600c602052604090205490565b610a1e6114de565b6001600160a01b0316610a2f610c3b565b6001600160a01b031614610a8a576040805162461bcd60e51b815260206004820181905260248201527f4f776e61626c653a2063616c6c6572206973206e6f7420746865206f776e6572604482015290519081900360640190fd5b6001546040516000916001600160a01b0316907f8be0079c531659141344cd1fd0a4f28419497f9722a3daafe3b4186f6b6457e0908390a36001805473ffffffffffffffffffffffffffffffffffffffff19169055565b6003546001600160a01b031681565b60055481565b60006104a0426004546114e2565b610b0c6114de565b6001600160a01b0316610b1d610c3b565b6001600160a01b031614610b78576040805162461bcd60e51b815260206004820181905260248201527f4f776e61626c653a2063616c6c6572206973206e6f7420746865206f776e6572604482015290519081900360640190fd5b6003546001600160a01b0383811691161415610bc55760405162461bcd60e51b81526004018080602001828103825260218152602001806119436021913960400191505060405180910390fd5b610be1610bd0610c3b565b6001600160a01b0384169083611459565b604080516001600160a01b03841681526020810183905281517f8c1256b8896378cd5044f80c202f9772b9d77dc85c8a6eb51967210b09bfaa28929181900390910190a15050565b60096020526000908152604090205481565b6001546001600160a01b031690565b60026000541415610ca2576040805162461bcd60e51b815260206004820152601f60248201527f5265656e7472616e637947756172643a207265656e7472616e742063616c6c00604482015290519081900360640190fd5b600260005533610cb0610ee2565b600855610cbb610af6565b6007556001600160a01b03811615610d0257610cd6816103f0565b6001600160a01b0382166000908152600a60209081526040808320939093556008546009909152919020555b60008211610d57576040805162461bcd60e51b815260206004820152600e60248201527f43616e6e6f74207374616b652030000000000000000000000000000000000000604482015290519081900360640190fd5b600b54610d6490836113ff565b600b55336000908152600c6020526040902054610d8190836113ff565b336000818152600c6020526040902091909155600354610dae916001600160a01b039091169030856114f8565b60408051838152905133917f9e71bc8eea02a63969f509818f2dafb9254532904319f9dbda79b67bd34a5f3d919081900360200190a250506001600055565b60075481565b610dfb6114de565b6001600160a01b0316610e0c610c3b565b6001600160a01b031614610e67576040805162461bcd60e51b815260206004820181905260248201527f4f776e61626c653a2063616c6c6572206973206e6f7420746865206f776e6572604482015290519081900360640190fd5b6004544211610ea75760405162461bcd60e51b81526004018080602001828103825260588152602001806118546058913960600191505060405180910390fd5b60068190556040805182815290517ffb46ca5a5e06d4540d6387b930a7c978bce0db5f449ec6b3f5d07c6e1d44f2d39181900360200190a150565b6000600b5460001415610ef85750600854610484565b6104a0610f27600b5461045c670de0b6b3a7640000610f21600554610f21600754610437610af6565b90611338565b600854906113ff565b6002546001600160a01b031681565b60085481565b336000908152600c6020526040902054610f5e906104a5565b610f666108c4565b565b60045481565b60026000541415610fc6576040805162461bcd60e51b815260206004820152601f60248201527f5265656e7472616e637947756172643a207265656e7472616e742063616c6c00604482015290519081900360640190fd5b600260005533610fd4610ee2565b600855610fdf610af6565b6007556001600160a01b0381161561102657610ffa816103f0565b6001600160a01b0382166000908152600a60209081526040808320939093556008546009909152919020555b6000861161107b576040805162461bcd60e51b815260206004820152600e60248201527f43616e6e6f74207374616b652030000000000000000000000000000000000000604482015290519081900360640190fd5b600b5461108890876113ff565b600b55336000908152600c60205260409020546110a590876113ff565b336000818152600c60205260408082209390935560035483517fd505accf0000000000000000000000000000000000000000000000000000000081526004810193909352306024840152604483018a90526064830189905260ff8816608484015260a4830187905260c4830186905292516001600160a01b039093169263d505accf9260e480820193929182900301818387803b15801561114557600080fd5b505af1158015611159573d6000803e3d6000fd5b505060035461117692506001600160a01b031690503330896114f8565b60408051878152905133917f9e71bc8eea02a63969f509818f2dafb9254532904319f9dbda79b67bd34a5f3d919081900360200190a25050600160005550505050565b6111c16114de565b6001600160a01b03166111d2610c3b565b6001600160a01b03161461122d576040805162461bcd60e51b815260206004820181905260248201527f4f776e61626c653a2063616c6c6572206973206e6f7420746865206f776e6572604482015290519081900360640190fd5b6001600160a01b0381166112725760405162461bcd60e51b81526004018080602001828103825260268152602001806118ac6026913960400191505060405180910390fd5b6001546040516001600160a01b038084169216907f8be0079c531659141344cd1fd0a4f28419497f9722a3daafe3b4186f6b6457e090600090a36001805473ffffffffffffffffffffffffffffffffffffffff19166001600160a01b0392909216919091179055565b600082821115611332576040805162461bcd60e51b815260206004820152601e60248201527f536166654d6174683a207375627472616374696f6e206f766572666c6f770000604482015290519081900360640190fd5b50900390565b60008261134757506000610468565b8282028284828161135457fe5b04146113915760405162461bcd60e51b81526004018080602001828103825260218152602001806118f86021913960400191505060405180910390fd5b9392505050565b60008082116113ee576040805162461bcd60e51b815260206004820152601a60248201527f536166654d6174683a206469766973696f6e206279207a65726f000000000000604482015290519081900360640190fd5b8183816113f757fe5b049392505050565b600082820183811015611391576040805162461bcd60e51b815260206004820152601b60248201527f536166654d6174683a206164646974696f6e206f766572666c6f770000000000604482015290519081900360640190fd5b604080516001600160a01b038416602482015260448082018490528251808303909101815260649091019091526020810180517bffffffffffffffffffffffffffffffffffffffffffffffffffffffff167fa9059cbb000000000000000000000000000000000000000000000000000000001790526114d9908490611586565b505050565b3390565b60008183106114f15781611391565b5090919050565b604080516001600160a01b0380861660248301528416604482015260648082018490528251808303909101815260849091019091526020810180517bffffffffffffffffffffffffffffffffffffffffffffffffffffffff167f23b872dd00000000000000000000000000000000000000000000000000000000179052611580908590611586565b50505050565b60006115db826040518060400160405280602081526020017f5361666545524332303a206c6f772d6c6576656c2063616c6c206661696c6564815250856001600160a01b03166116379092919063ffffffff16565b8051909150156114d9578080602001905160208110156115fa57600080fd5b50516114d95760405162461bcd60e51b815260040180806020018281038252602a815260200180611919602a913960400191505060405180910390fd5b6060611646848460008561164e565b949350505050565b60608247101561168f5760405162461bcd60e51b81526004018080602001828103825260268152602001806118d26026913960400191505060405180910390fd5b611698856117a9565b6116e9576040805162461bcd60e51b815260206004820152601d60248201527f416464726573733a2063616c6c20746f206e6f6e2d636f6e7472616374000000604482015290519081900360640190fd5b600080866001600160a01b031685876040518082805190602001908083835b602083106117275780518252601f199092019160209182019101611708565b6001836020036101000a03801982511681845116808217855250505050505090500191505060006040518083038185875af1925050503d8060008114611789576040519150601f19603f3d011682016040523d82523d6000602084013e61178e565b606091505b509150915061179e8282866117af565b979650505050505050565b3b151590565b606083156117be575081611391565b8251156117ce5782518084602001fd5b8160405162461bcd60e51b81526004018080602001828103825283818151815260200191508051906020019080838360005b83811015611818578181015183820152602001611800565b50505050905090810190601f1680156118455780820380516001836020036101000a031916815260200191505b509250505060405180910390fdfe50726576696f7573207265776172647320706572696f64206d75737420626520636f6d706c657465206265666f7265206368616e67696e6720746865206475726174696f6e20666f7220746865206e657720706572696f644f776e61626c653a206e6577206f776e657220697320746865207a65726f2061646472657373416464726573733a20696e73756666696369656e742062616c616e636520666f722063616c6c536166654d6174683a206d756c7469706c69636174696f6e206f766572666c6f775361666545524332303a204552433230206f7065726174696f6e20646964206e6f74207375636365656443616e6e6f7420776974686472617720746865207374616b696e6720746f6b656ea2646970667358221220b2da2794a2212fa4d585dba1e264017b0471373a2780496b12ad306a3933e2bf64736f6c63430007060033",
  "linkReferences": {},
  "deployedLinkReferences": {}
}